{
  "_format": "hh-sol-artifact-1",
  "contractName": "NameWorld",
  "sourceName": "contracts/NameWorld.sol",
  "abi": [
    {
      "inputs": [
        {
          "internalType": "address",
          "name": "_NCAddress",
          "type": "address"
        },
        {
          "internalType": "address",
          "name": "_NNFTAddress",
          "type": "address"
        }
      ],
      "stateMutability": "nonpayable",
      "type": "constructor"
    },
    {
      "inputs": [],
      "name": "NC",
      "outputs": [
        {
          "internalType": "contract NameCoin",
          "name": "",
          "type": "address"
        }
      ],
      "stateMutability": "view",
      "type": "function"
    },
    {
      "inputs": [],
      "name": "NNFT",
      "outputs": [
        {
          "internalType": "contract NameNft",
          "name": "",
          "type": "address"
        }
      ],
      "stateMutability": "view",
      "type": "function"
    },
    {
      "inputs": [
        {
          "internalType": "address",
          "name": "_address",
          "type": "address"
        }
      ],
      "name": "balanceNC",
      "outputs": [
        {
          "internalType": "uint256",
          "name": "balance",
          "type": "uint256"
        }
      ],
      "stateMutability": "view",
      "type": "function"
    },
    {
      "inputs": [
        {
          "internalType": "address",
          "name": "_address",
          "type": "address"
        }
      ],
      "name": "balanceNNFT",
      "outputs": [
        {
          "internalType": "uint256",
          "name": "balance",
          "type": "uint256"
        }
      ],
      "stateMutability": "view",
      "type": "function"
    },
    {
      "inputs": [],
      "name": "buyNC",
      "outputs": [],
      "stateMutability": "payable",
      "type": "function"
    },
    {
      "inputs": [
        {
          "internalType": "uint256",
          "name": "_tokenId",
          "type": "uint256"
        }
      ],
      "name": "buyNNFT",
      "outputs": [],
      "stateMutability": "nonpayable",
      "type": "function"
    },
    {
      "inputs": [
        {
          "internalType": "string",
          "name": "",
          "type": "string"
        }
      ],
      "name": "idForString",
      "outputs": [
        {
          "internalType": "uint256",
          "name": "",
          "type": "uint256"
        }
      ],
      "stateMutability": "view",
      "type": "function"
    },
    {
      "inputs": [
        {
          "internalType": "uint256",
          "name": "",
          "type": "uint256"
        }
      ],
      "name": "idNftMap",
      "outputs": [
        {
          "internalType": "string",
          "name": "name",
          "type": "string"
        }
      ],
      "stateMutability": "view",
      "type": "function"
    },
    {
      "inputs": [
        {
          "internalType": "uint256",
          "name": "_value",
          "type": "uint256"
        }
      ],
      "name": "mintNC",
      "outputs": [],
      "stateMutability": "nonpayable",
      "type": "function"
    },
    {
      "inputs": [
        {
          "internalType": "string",
          "name": "_name",
          "type": "string"
        }
      ],
      "name": "mintNNFT",
      "outputs": [],
      "stateMutability": "nonpayable",
      "type": "function"
    },
    {
      "inputs": [],
      "name": "owner",
      "outputs": [
        {
          "internalType": "address payable",
          "name": "",
          "type": "address"
        }
      ],
      "stateMutability": "view",
      "type": "function"
    },
    {
      "inputs": [
        {
          "internalType": "uint256",
          "name": "_value",
          "type": "uint256"
        }
      ],
      "name": "ownerNNFT",
      "outputs": [
        {
          "internalType": "address",
          "name": "_adr",
          "type": "address"
        }
      ],
      "stateMutability": "view",
      "type": "function"
    },
    {
      "inputs": [
        {
          "internalType": "uint256",
          "name": "",
          "type": "uint256"
        }
      ],
      "name": "priceToken",
      "outputs": [
        {
          "internalType": "uint256",
          "name": "",
          "type": "uint256"
        }
      ],
      "stateMutability": "view",
      "type": "function"
    },
    {
      "inputs": [
        {
          "internalType": "uint256",
          "name": "",
          "type": "uint256"
        }
      ],
      "name": "saleNFTMas",
      "outputs": [
        {
          "internalType": "uint256",
          "name": "",
          "type": "uint256"
        }
      ],
      "stateMutability": "view",
      "type": "function"
    },
    {
      "inputs": [],
      "name": "saleNFTMasLength",
      "outputs": [
        {
          "internalType": "uint256",
          "name": "len",
          "type": "uint256"
        }
      ],
      "stateMutability": "view",
      "type": "function"
    },
    {
      "inputs": [
        {
          "internalType": "uint256",
          "name": "_tokenId",
          "type": "uint256"
        },
        {
          "internalType": "uint256",
          "name": "_value",
          "type": "uint256"
        }
      ],
      "name": "saleNNFT",
      "outputs": [],
      "stateMutability": "nonpayable",
      "type": "function"
    },
    {
      "inputs": [
        {
          "internalType": "string",
          "name": "",
          "type": "string"
        }
      ],
      "name": "statusName",
      "outputs": [
        {
          "internalType": "bool",
          "name": "",
          "type": "bool"
        }
      ],
      "stateMutability": "view",
      "type": "function"
    },
    {
      "inputs": [
        {
          "internalType": "uint256",
          "name": "",
          "type": "uint256"
        }
      ],
      "name": "statusToSale",
      "outputs": [
        {
          "internalType": "bool",
          "name": "",
          "type": "bool"
        }
      ],
      "stateMutability": "view",
      "type": "function"
    },
    {
      "inputs": [],
      "name": "symbolNC",
      "outputs": [
        {
          "internalType": "string",
          "name": "symbol",
          "type": "string"
        }
      ],
      "stateMutability": "view",
      "type": "function"
    },
    {
      "inputs": [],
      "name": "symbolNFT",
      "outputs": [
        {
          "internalType": "string",
          "name": "symbol",
          "type": "string"
        }
      ],
      "stateMutability": "view",
      "type": "function"
    },
    {
      "inputs": [],
      "name": "totalSupplyNC",
      "outputs": [
        {
          "internalType": "uint256",
          "name": "total",
          "type": "uint256"
        }
      ],
      "stateMutability": "view",
      "type": "function"
    },
    {
      "inputs": [],
      "name": "totalSupplyNFT",
      "outputs": [
        {
          "internalType": "uint256",
          "name": "total",
          "type": "uint256"
        }
      ],
      "stateMutability": "view",
      "type": "function"
    },
    {
      "inputs": [
        {
          "internalType": "address",
          "name": "_to",
          "type": "address"
        },
        {
          "internalType": "uint256",
          "name": "_value",
          "type": "uint256"
        }
      ],
      "name": "transferNC",
      "outputs": [],
      "stateMutability": "nonpayable",
      "type": "function"
    },
    {
      "inputs": [
        {
          "internalType": "address",
          "name": "_from",
          "type": "address"
        },
        {
          "internalType": "address",
          "name": "_to",
          "type": "address"
        },
        {
          "internalType": "uint256",
          "name": "_value",
          "type": "uint256"
        }
      ],
      "name": "transferNNFT",
      "outputs": [],
      "stateMutability": "nonpayable",
      "type": "function"
    },
    {
      "inputs": [
        {
          "internalType": "address",
          "name": "",
          "type": "address"
        },
        {
          "internalType": "uint256",
          "name": "",
          "type": "uint256"
        }
      ],
      "name": "userNft",
      "outputs": [
        {
          "internalType": "uint256",
          "name": "",
          "type": "uint256"
        }
      ],
      "stateMutability": "view",
      "type": "function"
    }
  ],
  "bytecode": "0x608060405260006003553480156200001657600080fd5b5060405162002bcc38038062002bcc83398181016040528101906200003c919062000201565b816000806101000a81548173ffffffffffffffffffffffffffffffffffffffff021916908373ffffffffffffffffffffffffffffffffffffffff16021790555080600160006101000a81548173ffffffffffffffffffffffffffffffffffffffff021916908373ffffffffffffffffffffffffffffffffffffffff16021790555060008054906101000a900473ffffffffffffffffffffffffffffffffffffffff1673ffffffffffffffffffffffffffffffffffffffff16638da5cb5b6040518163ffffffff1660e01b8152600401602060405180830381865afa15801562000129573d6000803e3d6000fd5b505050506040513d601f19601f820116820180604052508101906200014f91906200028d565b600260006101000a81548173ffffffffffffffffffffffffffffffffffffffff021916908373ffffffffffffffffffffffffffffffffffffffff1602179055505050620002bf565b600080fd5b600073ffffffffffffffffffffffffffffffffffffffff82169050919050565b6000620001c9826200019c565b9050919050565b620001db81620001bc565b8114620001e757600080fd5b50565b600081519050620001fb81620001d0565b92915050565b600080604083850312156200021b576200021a62000197565b5b60006200022b85828601620001ea565b92505060206200023e85828601620001ea565b9150509250929050565b600062000255826200019c565b9050919050565b620002678162000248565b81146200027357600080fd5b50565b60008151905062000287816200025c565b92915050565b600060208284031215620002a657620002a562000197565b5b6000620002b68482850162000276565b91505092915050565b6128fd80620002cf6000396000f3fe6080604052600436106101665760003560e01c806394eac4a5116100d1578063b0ea6a841161008a578063bd014d5e11610064578063bd014d5e1461056b578063bd53c6e214610596578063cafde69a146105bf578063e9c35f9d146105e857610166565b8063b0ea6a84146104d8578063b7be803414610503578063bc8c956b1461054057610166565b806394eac4a5146103c35780639897e50d14610400578063a1948acf1461043d578063a36e50df1461047a578063a59b968214610484578063b07d4611146104af57610166565b80636776a3c2116101235780636776a3c2146102a15780637aa3977f146102ca5780637bce3d8b146102f35780638b663bc1146103305780638c5d2a6d1461035b5780638da5cb5b1461039857610166565b80630803a3e31461016b5780630935a539146101965780632106ada2146101c1578063277ed1e8146101fe578063348a9ffa146102275780633bf1142214610264575b600080fd5b34801561017757600080fd5b50610180610625565b60405161018d9190611989565b60405180910390f35b3480156101a257600080fd5b506101ab6106c2565b6040516101b89190611a2a565b60405180910390f35b3480156101cd57600080fd5b506101e860048036038101906101e39190611a8f565b6106e8565b6040516101f59190611add565b60405180910390f35b34801561020a57600080fd5b5061022560048036038101906102209190611b24565b61078d565b005b34801561023357600080fd5b5061024e60048036038101906102499190611b64565b610820565b60405161025b9190611ba0565b60405180910390f35b34801561027057600080fd5b5061028b60048036038101906102869190611cf0565b61086c565b6040516102989190611d54565b60405180910390f35b3480156102ad57600080fd5b506102c860048036038101906102c39190611a8f565b6108a2565b005b3480156102d657600080fd5b506102f160048036038101906102ec9190611cf0565b610a2d565b005b3480156102ff57600080fd5b5061031a60048036038101906103159190611b64565b610ddf565b6040516103279190611ba0565b60405180910390f35b34801561033c57600080fd5b50610345610e83565b6040516103529190611989565b60405180910390f35b34801561036757600080fd5b50610382600480360381019061037d9190611a8f565b610f1e565b60405161038f9190611989565b60405180910390f35b3480156103a457600080fd5b506103ad610fc4565b6040516103ba9190611d90565b60405180910390f35b3480156103cf57600080fd5b506103ea60048036038101906103e59190611a8f565b610fea565b6040516103f79190611d54565b60405180910390f35b34801561040c57600080fd5b5061042760048036038101906104229190611b24565b61100a565b6040516104349190611ba0565b60405180910390f35b34801561044957600080fd5b50610464600480360381019061045f9190611a8f565b61103b565b6040516104719190611ba0565b60405180910390f35b61048261105f565b005b34801561049057600080fd5b506104996111ec565b6040516104a69190611dcc565b60405180910390f35b3480156104bb57600080fd5b506104d660048036038101906104d19190611de7565b611210565b005b3480156104e457600080fd5b506104ed611542565b6040516104fa9190611ba0565b60405180910390f35b34801561050f57600080fd5b5061052a60048036038101906105259190611cf0565b61154c565b6040516105379190611ba0565b60405180910390f35b34801561054c57600080fd5b5061055561157a565b6040516105629190611ba0565b60405180910390f35b34801561057757600080fd5b50610580611587565b60405161058d9190611ba0565b60405180910390f35b3480156105a257600080fd5b506105bd60048036038101906105b89190611e3a565b61161e565b005b3480156105cb57600080fd5b506105e660048036038101906105e19190611a8f565b6117c3565b005b3480156105f457600080fd5b5061060f600480360381019061060a9190611a8f565b6118e1565b60405161061c9190611ba0565b60405180910390f35b6060600160009054906101000a900473ffffffffffffffffffffffffffffffffffffffff1673ffffffffffffffffffffffffffffffffffffffff166395d89b416040518163ffffffff1660e01b8152600401600060405180830381865afa158015610694573d6000803e3d6000fd5b505050506040513d6000823e3d601f19601f820116820180604052508101906106bd9190611eea565b905090565b600160009054906101000a900473ffffffffffffffffffffffffffffffffffffffff1681565b6000600160009054906101000a900473ffffffffffffffffffffffffffffffffffffffff1673ffffffffffffffffffffffffffffffffffffffff16636352211e836040518263ffffffff1660e01b81526004016107459190611ba0565b602060405180830381865afa158015610762573d6000803e3d6000fd5b505050506040513d601f19601f820116820180604052508101906107869190611f48565b9050919050565b60008054906101000a900473ffffffffffffffffffffffffffffffffffffffff1673ffffffffffffffffffffffffffffffffffffffff1663beabacc83384846040518463ffffffff1660e01b81526004016107ea93929190611f75565b600060405180830381600087803b15801561080457600080fd5b505af1158015610818573d6000803e3d6000fd5b505050505050565b6000600960008373ffffffffffffffffffffffffffffffffffffffff1673ffffffffffffffffffffffffffffffffffffffff168152602001908152602001600020805490509050919050565b6008818051602081018201805184825260208301602085012081835280955050505050506000915054906101000a900460ff1681565b600a6000828152602001908152602001600020546108bf33610ddf565b1015610900576040517f08c379a00000000000000000000000000000000000000000000000000000000081526004016108f790611ff8565b60405180910390fd5b600061090b826106e8565b905061092a81600a60008581526020019081526020016000205461078d565b610935813384611210565b60005b600480549050811015610a2857826004828154811061095a57610959612018565b5b906000526020600020015403610a15576004600160048054905061097e9190612076565b8154811061098f5761098e612018565b5b9060005260206000200154600482815481106109ae576109ad612018565b5b906000526020600020018190555060048054806109ce576109cd6120aa565b5b6001900381819060005260206000200160009055905560006006600085815260200190815260200160002060006101000a81548160ff021916908315150217905550610a28565b8080610a20906120d9565b915050610938565b505050565b60001515600882604051610a41919061215d565b908152602001604051809103902060009054906101000a900460ff16151514610a9f576040517f08c379a0000000000000000000000000000000000000000000000000000000008152600401610a96906121c0565b60405180910390fd5b6001600882604051610ab1919061215d565b908152602001604051809103902060006101000a81548160ff021916908315150217905550600260009054906101000a900473ffffffffffffffffffffffffffffffffffffffff1673ffffffffffffffffffffffffffffffffffffffff163373ffffffffffffffffffffffffffffffffffffffff1603610bc157600160009054906101000a900473ffffffffffffffffffffffffffffffffffffffff1673ffffffffffffffffffffffffffffffffffffffff166340c10f19336003546040518363ffffffff1660e01b8152600401610b8a9291906121e0565b600060405180830381600087803b158015610ba457600080fd5b505af1158015610bb8573d6000803e3d6000fd5b50505050610ccc565b6064610bcc33610ddf565b1015610c0d576040517f08c379a0000000000000000000000000000000000000000000000000000000008152600401610c0490612255565b60405180910390fd5b610c3a600260009054906101000a900473ffffffffffffffffffffffffffffffffffffffff16606461078d565b600160009054906101000a900473ffffffffffffffffffffffffffffffffffffffff1673ffffffffffffffffffffffffffffffffffffffff166340c10f19336003546040518363ffffffff1660e01b8152600401610c999291906121e0565b600060405180830381600087803b158015610cb357600080fd5b505af1158015610cc7573d6000803e3d6000fd5b505050505b600354600782604051610cdf919061215d565b908152602001604051809103902081905550600060066000600354815260200190815260200160002060006101000a81548160ff0219169083151502179055506040518060200160405280828152506005600060035481526020019081526020016000206000820151816000019081610d589190612477565b50905050600960003373ffffffffffffffffffffffffffffffffffffffff1673ffffffffffffffffffffffffffffffffffffffff168152602001908152602001600020600354908060018154018082558091505060019003906000526020600020016000909190919091505560036000815480929190610dd7906120d9565b919050555050565b60008060009054906101000a900473ffffffffffffffffffffffffffffffffffffffff1673ffffffffffffffffffffffffffffffffffffffff166370a08231836040518263ffffffff1660e01b8152600401610e3b9190611add565b602060405180830381865afa158015610e58573d6000803e3d6000fd5b505050506040513d601f19601f82011682018060405250810190610e7c919061255e565b9050919050565b606060008054906101000a900473ffffffffffffffffffffffffffffffffffffffff1673ffffffffffffffffffffffffffffffffffffffff166395d89b416040518163ffffffff1660e01b8152600401600060405180830381865afa158015610ef0573d6000803e3d6000fd5b505050506040513d6000823e3d601f19601f82011682018060405250810190610f199190611eea565b905090565b6005602052806000526040600020600091509050806000018054610f41906122a4565b80601f0160208091040260200160405190810160405280929190818152602001828054610f6d906122a4565b8015610fba5780601f10610f8f57610100808354040283529160200191610fba565b820191906000526020600020905b815481529060010190602001808311610f9d57829003601f168201915b5050505050905081565b600260009054906101000a900473ffffffffffffffffffffffffffffffffffffffff1681565b60066020528060005260406000206000915054906101000a900460ff1681565b6009602052816000526040600020818154811061102657600080fd5b90600052602060002001600091509150505481565b6004818154811061104b57600080fd5b906000526020600020016000915090505481565b670de0b6b3a76400003410156110aa576040517f08c379a00000000000000000000000000000000000000000000000000000000081526004016110a1906125d7565b60405180910390fd5b60006103e8670de0b6b3a7640000346110c39190612626565b6110cd9190612657565b9050600260009054906101000a900473ffffffffffffffffffffffffffffffffffffffff1673ffffffffffffffffffffffffffffffffffffffff166108fc349081150290604051600060405180830381858888f19350505050158015611137573d6000803e3d6000fd5b5060008054906101000a900473ffffffffffffffffffffffffffffffffffffffff1673ffffffffffffffffffffffffffffffffffffffff1663beabacc8600260009054906101000a900473ffffffffffffffffffffffffffffffffffffffff1633846040518463ffffffff1660e01b81526004016111b7939291906126ba565b600060405180830381600087803b1580156111d157600080fd5b505af11580156111e5573d6000803e3d6000fd5b5050505050565b60008054906101000a900473ffffffffffffffffffffffffffffffffffffffff1681565b600160009054906101000a900473ffffffffffffffffffffffffffffffffffffffff1673ffffffffffffffffffffffffffffffffffffffff1663beabacc88484846040518463ffffffff1660e01b815260040161126f93929190611f75565b600060405180830381600087803b15801561128957600080fd5b505af115801561129d573d6000803e3d6000fd5b50505050600960008373ffffffffffffffffffffffffffffffffffffffff1673ffffffffffffffffffffffffffffffffffffffff16815260200190815260200160002081908060018154018082558091505060019003906000526020600020016000909190919091505560005b600960008573ffffffffffffffffffffffffffffffffffffffff1673ffffffffffffffffffffffffffffffffffffffff1681526020019081526020016000208054905081101561153c5781600960008673ffffffffffffffffffffffffffffffffffffffff1673ffffffffffffffffffffffffffffffffffffffff16815260200190815260200160002082815481106113a6576113a5612018565b5b90600052602060002001540361152957600960008573ffffffffffffffffffffffffffffffffffffffff1673ffffffffffffffffffffffffffffffffffffffff1681526020019081526020016000206001600960008773ffffffffffffffffffffffffffffffffffffffff1673ffffffffffffffffffffffffffffffffffffffff168152602001908152602001600020805490506114449190612076565b8154811061145557611454612018565b5b9060005260206000200154600960008673ffffffffffffffffffffffffffffffffffffffff1673ffffffffffffffffffffffffffffffffffffffff16815260200190815260200160002082815481106114b1576114b0612018565b5b9060005260206000200181905550600960008573ffffffffffffffffffffffffffffffffffffffff1673ffffffffffffffffffffffffffffffffffffffff16815260200190815260200160002080548061150e5761150d6120aa565b5b6001900381819060005260206000200160009055905561153c565b8080611534906120d9565b91505061130a565b50505050565b6000600354905090565b6007818051602081018201805184825260208301602085012081835280955050505050506000915090505481565b6000600480549050905090565b60008060009054906101000a900473ffffffffffffffffffffffffffffffffffffffff1673ffffffffffffffffffffffffffffffffffffffff166318160ddd6040518163ffffffff1660e01b8152600401602060405180830381865afa1580156115f5573d6000803e3d6000fd5b505050506040513d601f19601f82011682018060405250810190611619919061255e565b905090565b600115156006600084815260200190815260200160002060009054906101000a900460ff16151503611685576040517f08c379a000000000000000000000000000000000000000000000000000000000815260040161167c9061273d565b60405180910390fd5b61168e826106e8565b73ffffffffffffffffffffffffffffffffffffffff163373ffffffffffffffffffffffffffffffffffffffff16146116fb576040517f08c379a00000000000000000000000000000000000000000000000000000000081526004016116f2906127cf565b60405180910390fd5b611703611587565b8111158015611713575060008110155b611752576040517f08c379a00000000000000000000000000000000000000000000000000000000081526004016117499061283b565b60405180910390fd5b600482908060018154018082558091505060019003906000526020600020016000909190919091505580600a60008481526020019081526020016000208190555060016006600084815260200190815260200160002060006101000a81548160ff0219169083151502179055505050565b600260009054906101000a900473ffffffffffffffffffffffffffffffffffffffff1673ffffffffffffffffffffffffffffffffffffffff163373ffffffffffffffffffffffffffffffffffffffff1614611853576040517f08c379a000000000000000000000000000000000000000000000000000000000815260040161184a906128a7565b60405180910390fd5b60008054906101000a900473ffffffffffffffffffffffffffffffffffffffff1673ffffffffffffffffffffffffffffffffffffffff1663a0712d68826040518263ffffffff1660e01b81526004016118ac9190611ba0565b600060405180830381600087803b1580156118c657600080fd5b505af11580156118da573d6000803e3d6000fd5b5050505050565b600a6020528060005260406000206000915090505481565b600081519050919050565b600082825260208201905092915050565b60005b83811015611933578082015181840152602081019050611918565b60008484015250505050565b6000601f19601f8301169050919050565b600061195b826118f9565b6119658185611904565b9350611975818560208601611915565b61197e8161193f565b840191505092915050565b600060208201905081810360008301526119a38184611950565b905092915050565b600073ffffffffffffffffffffffffffffffffffffffff82169050919050565b6000819050919050565b60006119f06119eb6119e6846119ab565b6119cb565b6119ab565b9050919050565b6000611a02826119d5565b9050919050565b6000611a14826119f7565b9050919050565b611a2481611a09565b82525050565b6000602082019050611a3f6000830184611a1b565b92915050565b6000604051905090565b600080fd5b600080fd5b6000819050919050565b611a6c81611a59565b8114611a7757600080fd5b50565b600081359050611a8981611a63565b92915050565b600060208284031215611aa557611aa4611a4f565b5b6000611ab384828501611a7a565b91505092915050565b6000611ac7826119ab565b9050919050565b611ad781611abc565b82525050565b6000602082019050611af26000830184611ace565b92915050565b611b0181611abc565b8114611b0c57600080fd5b50565b600081359050611b1e81611af8565b92915050565b60008060408385031215611b3b57611b3a611a4f565b5b6000611b4985828601611b0f565b9250506020611b5a85828601611a7a565b9150509250929050565b600060208284031215611b7a57611b79611a4f565b5b6000611b8884828501611b0f565b91505092915050565b611b9a81611a59565b82525050565b6000602082019050611bb56000830184611b91565b92915050565b600080fd5b600080fd5b7f4e487b7100000000000000000000000000000000000000000000000000000000600052604160045260246000fd5b611bfd8261193f565b810181811067ffffffffffffffff82111715611c1c57611c1b611bc5565b5b80604052505050565b6000611c2f611a45565b9050611c3b8282611bf4565b919050565b600067ffffffffffffffff821115611c5b57611c5a611bc5565b5b611c648261193f565b9050602081019050919050565b82818337600083830152505050565b6000611c93611c8e84611c40565b611c25565b905082815260208101848484011115611caf57611cae611bc0565b5b611cba848285611c71565b509392505050565b600082601f830112611cd757611cd6611bbb565b5b8135611ce7848260208601611c80565b91505092915050565b600060208284031215611d0657611d05611a4f565b5b600082013567ffffffffffffffff811115611d2457611d23611a54565b5b611d3084828501611cc2565b91505092915050565b60008115159050919050565b611d4e81611d39565b82525050565b6000602082019050611d696000830184611d45565b92915050565b6000611d7a826119ab565b9050919050565b611d8a81611d6f565b82525050565b6000602082019050611da56000830184611d81565b92915050565b6000611db6826119f7565b9050919050565b611dc681611dab565b82525050565b6000602082019050611de16000830184611dbd565b92915050565b600080600060608486031215611e0057611dff611a4f565b5b6000611e0e86828701611b0f565b9350506020611e1f86828701611b0f565b9250506040611e3086828701611a7a565b9150509250925092565b60008060408385031215611e5157611e50611a4f565b5b6000611e5f85828601611a7a565b9250506020611e7085828601611a7a565b9150509250929050565b6000611e8d611e8884611c40565b611c25565b905082815260208101848484011115611ea957611ea8611bc0565b5b611eb4848285611915565b509392505050565b600082601f830112611ed157611ed0611bbb565b5b8151611ee1848260208601611e7a565b91505092915050565b600060208284031215611f0057611eff611a4f565b5b600082015167ffffffffffffffff811115611f1e57611f1d611a54565b5b611f2a84828501611ebc565b91505092915050565b600081519050611f4281611af8565b92915050565b600060208284031215611f5e57611f5d611a4f565b5b6000611f6c84828501611f33565b91505092915050565b6000606082019050611f8a6000830186611ace565b611f976020830185611ace565b611fa46040830184611b91565b949350505050565b7f6e6f74204e430000000000000000000000000000000000000000000000000000600082015250565b6000611fe2600683611904565b9150611fed82611fac565b602082019050919050565b6000602082019050818103600083015261201181611fd5565b9050919050565b7f4e487b7100000000000000000000000000000000000000000000000000000000600052603260045260246000fd5b7f4e487b7100000000000000000000000000000000000000000000000000000000600052601160045260246000fd5b600061208182611a59565b915061208c83611a59565b92508282039050818111156120a4576120a3612047565b5b92915050565b7f4e487b7100000000000000000000000000000000000000000000000000000000600052603160045260246000fd5b60006120e482611a59565b91507fffffffffffffffffffffffffffffffffffffffffffffffffffffffffffffffff820361211657612115612047565b5b600182019050919050565b600081905092915050565b6000612137826118f9565b6121418185612121565b9350612151818560208601611915565b80840191505092915050565b6000612169828461212c565b915081905092915050565b7f74686973206e616d6520616c7265616479207573656400000000000000000000600082015250565b60006121aa601683611904565b91506121b582612174565b602082019050919050565b600060208201905081810360008301526121d98161219d565b9050919050565b60006040820190506121f56000830185611ace565b6122026020830184611b91565b9392505050565b7f796f7572204e43203c2031303000000000000000000000000000000000000000600082015250565b600061223f600d83611904565b915061224a82612209565b602082019050919050565b6000602082019050818103600083015261226e81612232565b9050919050565b7f4e487b7100000000000000000000000000000000000000000000000000000000600052602260045260246000fd5b600060028204905060018216806122bc57607f821691505b6020821081036122cf576122ce612275565b5b50919050565b60008190508160005260206000209050919050565b60006020601f8301049050919050565b600082821b905092915050565b6000600883026123377fffffffffffffffffffffffffffffffffffffffffffffffffffffffffffffffff826122fa565b61234186836122fa565b95508019841693508086168417925050509392505050565b600061237461236f61236a84611a59565b6119cb565b611a59565b9050919050565b6000819050919050565b61238e83612359565b6123a261239a8261237b565b848454612307565b825550505050565b600090565b6123b76123aa565b6123c2818484612385565b505050565b5b818110156123e6576123db6000826123af565b6001810190506123c8565b5050565b601f82111561242b576123fc816122d5565b612405846122ea565b81016020851015612414578190505b612428612420856122ea565b8301826123c7565b50505b505050565b600082821c905092915050565b600061244e60001984600802612430565b1980831691505092915050565b6000612467838361243d565b9150826002028217905092915050565b612480826118f9565b67ffffffffffffffff81111561249957612498611bc5565b5b6124a382546122a4565b6124ae8282856123ea565b600060209050601f8311600181146124e157600084156124cf578287015190505b6124d9858261245b565b865550612541565b601f1984166124ef866122d5565b60005b82811015612517578489015182556001820191506020850194506020810190506124f2565b868310156125345784890151612530601f89168261243d565b8355505b6001600288020188555050505b505050505050565b60008151905061255881611a63565b92915050565b60006020828403121561257457612573611a4f565b5b600061258284828501612549565b91505092915050565b7f496e73756666696369656e742045746865722073656e74000000000000000000600082015250565b60006125c1601783611904565b91506125cc8261258b565b602082019050919050565b600060208201905081810360008301526125f0816125b4565b9050919050565b7f4e487b7100000000000000000000000000000000000000000000000000000000600052601260045260246000fd5b600061263182611a59565b915061263c83611a59565b92508261264c5761264b6125f7565b5b828204905092915050565b600061266282611a59565b915061266d83611a59565b925082820261267b81611a59565b9150828204841483151761269257612691612047565b5b5092915050565b60006126a4826119f7565b9050919050565b6126b481612699565b82525050565b60006060820190506126cf60008301866126ab565b6126dc6020830185611ace565b6126e96040830184611b91565b949350505050565b7f74686973206e667420616c72656164792073616c656400000000000000000000600082015250565b6000612727601683611904565b9150612732826126f1565b602082019050919050565b600060208201905081810360008301526127568161271a565b9050919050565b7f596f7520617265206e6f7420746865206f776e6572206f66207468697320746f60008201527f6b656e0000000000000000000000000000000000000000000000000000000000602082015250565b60006127b9602383611904565b91506127c48261275d565b604082019050919050565b600060208201905081810360008301526127e8816127ac565b9050919050565b7f706c65617365202c20656e74657220636f72726563746c792070726963650000600082015250565b6000612825601e83611904565b9150612830826127ef565b602082019050919050565b6000602082019050818103600083015261285481612818565b9050919050565b7f796f75206e6f74206f776e657240210000000000000000000000000000000000600082015250565b6000612891600f83611904565b915061289c8261285b565b602082019050919050565b600060208201905081810360008301526128c081612884565b905091905056fea26469706673582212202095a560f40716fb0e236218f5559fe8dce05d7fd4cb75e80ce6127635cce64d64736f6c63430008140033",
  "linkReferences": {},
  "deployedLinkReferences": {}
}