{
  "_format": "hh-sol-artifact-1",
  "contractName": "NameWorld",
  "sourceName": "contracts/NameWorld.sol",
  "abi": [
    {
      "inputs": [
        {
          "internalType": "address",
          "name": "_NCAddress",
          "type": "address"
        },
        {
          "internalType": "address",
          "name": "_NNFTAddress",
          "type": "address"
        }
      ],
      "stateMutability": "nonpayable",
      "type": "constructor"
    },
    {
      "inputs": [],
      "name": "NC",
      "outputs": [
        {
          "internalType": "contract NameCoin",
          "name": "",
          "type": "address"
        }
      ],
      "stateMutability": "view",
      "type": "function"
    },
    {
      "inputs": [],
      "name": "NNFT",
      "outputs": [
        {
          "internalType": "contract NameNft",
          "name": "",
          "type": "address"
        }
      ],
      "stateMutability": "view",
      "type": "function"
    },
    {
      "inputs": [
        {
          "internalType": "uint256",
          "name": "",
          "type": "uint256"
        }
      ],
      "name": "allIdTokens",
      "outputs": [
        {
          "internalType": "uint256",
          "name": "",
          "type": "uint256"
        }
      ],
      "stateMutability": "view",
      "type": "function"
    },
    {
      "inputs": [
        {
          "internalType": "address",
          "name": "_address",
          "type": "address"
        }
      ],
      "name": "balanceNC",
      "outputs": [
        {
          "internalType": "uint256",
          "name": "balance",
          "type": "uint256"
        }
      ],
      "stateMutability": "view",
      "type": "function"
    },
    {
      "inputs": [
        {
          "internalType": "address",
          "name": "_address",
          "type": "address"
        }
      ],
      "name": "balanceNNFT",
      "outputs": [
        {
          "internalType": "uint256",
          "name": "balance",
          "type": "uint256"
        }
      ],
      "stateMutability": "view",
      "type": "function"
    },
    {
      "inputs": [],
      "name": "buyNC",
      "outputs": [],
      "stateMutability": "payable",
      "type": "function"
    },
    {
      "inputs": [
        {
          "internalType": "uint256",
          "name": "",
          "type": "uint256"
        }
      ],
      "name": "idNftMap",
      "outputs": [
        {
          "internalType": "string",
          "name": "name",
          "type": "string"
        }
      ],
      "stateMutability": "view",
      "type": "function"
    },
    {
      "inputs": [
        {
          "internalType": "uint256",
          "name": "_value",
          "type": "uint256"
        }
      ],
      "name": "mintNC",
      "outputs": [],
      "stateMutability": "nonpayable",
      "type": "function"
    },
    {
      "inputs": [
        {
          "internalType": "string",
          "name": "_name",
          "type": "string"
        }
      ],
      "name": "mintNNFT",
      "outputs": [],
      "stateMutability": "nonpayable",
      "type": "function"
    },
    {
      "inputs": [],
      "name": "owner",
      "outputs": [
        {
          "internalType": "address payable",
          "name": "",
          "type": "address"
        }
      ],
      "stateMutability": "view",
      "type": "function"
    },
    {
      "inputs": [
        {
          "internalType": "uint256",
          "name": "_value",
          "type": "uint256"
        }
      ],
      "name": "ownerNNFT",
      "outputs": [
        {
          "internalType": "address",
          "name": "_adr",
          "type": "address"
        }
      ],
      "stateMutability": "view",
      "type": "function"
    },
    {
      "inputs": [
        {
          "internalType": "address",
          "name": "_to",
          "type": "address"
        },
        {
          "internalType": "uint256",
          "name": "_tokenId",
          "type": "uint256"
        }
      ],
      "name": "safeTransferFrom",
      "outputs": [],
      "stateMutability": "nonpayable",
      "type": "function"
    },
    {
      "inputs": [
        {
          "internalType": "uint256",
          "name": "",
          "type": "uint256"
        }
      ],
      "name": "saleNFTMas",
      "outputs": [
        {
          "internalType": "uint256",
          "name": "",
          "type": "uint256"
        }
      ],
      "stateMutability": "view",
      "type": "function"
    },
    {
      "inputs": [
        {
          "internalType": "string",
          "name": "",
          "type": "string"
        }
      ],
      "name": "statusName",
      "outputs": [
        {
          "internalType": "bool",
          "name": "",
          "type": "bool"
        }
      ],
      "stateMutability": "view",
      "type": "function"
    },
    {
      "inputs": [
        {
          "internalType": "uint256",
          "name": "",
          "type": "uint256"
        }
      ],
      "name": "statusToSale",
      "outputs": [
        {
          "internalType": "bool",
          "name": "",
          "type": "bool"
        }
      ],
      "stateMutability": "view",
      "type": "function"
    },
    {
      "inputs": [],
      "name": "symbolNC",
      "outputs": [
        {
          "internalType": "string",
          "name": "symbol",
          "type": "string"
        }
      ],
      "stateMutability": "view",
      "type": "function"
    },
    {
      "inputs": [],
      "name": "symbolNFT",
      "outputs": [
        {
          "internalType": "string",
          "name": "symbol",
          "type": "string"
        }
      ],
      "stateMutability": "view",
      "type": "function"
    },
    {
      "inputs": [],
      "name": "totalSupplyNC",
      "outputs": [
        {
          "internalType": "uint256",
          "name": "total",
          "type": "uint256"
        }
      ],
      "stateMutability": "view",
      "type": "function"
    },
    {
      "inputs": [],
      "name": "totalSupplyNFT",
      "outputs": [
        {
          "internalType": "uint256",
          "name": "total",
          "type": "uint256"
        }
      ],
      "stateMutability": "view",
      "type": "function"
    },
    {
      "inputs": [
        {
          "internalType": "address",
          "name": "_to",
          "type": "address"
        },
        {
          "internalType": "uint256",
          "name": "_value",
          "type": "uint256"
        }
      ],
      "name": "transferNC",
      "outputs": [],
      "stateMutability": "nonpayable",
      "type": "function"
    },
    {
      "inputs": [
        {
          "internalType": "address",
          "name": "",
          "type": "address"
        },
        {
          "internalType": "uint256",
          "name": "",
          "type": "uint256"
        }
      ],
      "name": "userNft",
      "outputs": [
        {
          "internalType": "uint256",
          "name": "",
          "type": "uint256"
        }
      ],
      "stateMutability": "view",
      "type": "function"
    }
  ],
  "bytecode": "0x60806040523480156200001157600080fd5b5060405162002167380380620021678339818101604052810190620000379190620001fc565b816000806101000a81548173ffffffffffffffffffffffffffffffffffffffff021916908373ffffffffffffffffffffffffffffffffffffffff16021790555080600160006101000a81548173ffffffffffffffffffffffffffffffffffffffff021916908373ffffffffffffffffffffffffffffffffffffffff16021790555060008054906101000a900473ffffffffffffffffffffffffffffffffffffffff1673ffffffffffffffffffffffffffffffffffffffff16638da5cb5b6040518163ffffffff1660e01b8152600401602060405180830381865afa15801562000124573d6000803e3d6000fd5b505050506040513d601f19601f820116820180604052508101906200014a919062000288565b600260006101000a81548173ffffffffffffffffffffffffffffffffffffffff021916908373ffffffffffffffffffffffffffffffffffffffff1602179055505050620002ba565b600080fd5b600073ffffffffffffffffffffffffffffffffffffffff82169050919050565b6000620001c48262000197565b9050919050565b620001d681620001b7565b8114620001e257600080fd5b50565b600081519050620001f681620001cb565b92915050565b6000806040838503121562000216576200021562000192565b5b60006200022685828601620001e5565b92505060206200023985828601620001e5565b9150509250929050565b6000620002508262000197565b9050919050565b620002628162000243565b81146200026e57600080fd5b50565b600081519050620002828162000257565b92915050565b600060208284031215620002a157620002a062000192565b5b6000620002b18482850162000271565b91505092915050565b611e9d80620002ca6000396000f3fe60806040526004361061012a5760003560e01c80638c5d2a6d116100ab578063a36e50df1161006f578063a36e50df1461043e578063a59b968214610448578063b0ea6a8414610473578063bd014d5e1461049e578063cafde69a146104c9578063ecc708e1146104f25761012a565b80638c5d2a6d1461031f5780638da5cb5b1461035c57806394eac4a5146103875780639897e50d146103c4578063a1948acf146104015761012a565b80633bf11422116100f25780633bf1142214610228578063551026bb146102655780637aa3977f1461028e5780637bce3d8b146102b75780638b663bc1146102f45761012a565b80630803a3e31461012f5780630935a5391461015a5780632106ada214610185578063277ed1e8146101c2578063348a9ffa146101eb575b600080fd5b34801561013b57600080fd5b5061014461052f565b6040516101519190611295565b60405180910390f35b34801561016657600080fd5b5061016f6105cc565b60405161017c9190611336565b60405180910390f35b34801561019157600080fd5b506101ac60048036038101906101a7919061139b565b6105f2565b6040516101b991906113e9565b60405180910390f35b3480156101ce57600080fd5b506101e960048036038101906101e49190611430565b610697565b005b3480156101f757600080fd5b50610212600480360381019061020d9190611470565b61072a565b60405161021f91906114ac565b60405180910390f35b34801561023457600080fd5b5061024f600480360381019061024a91906115fc565b610776565b60405161025c9190611660565b60405180910390f35b34801561027157600080fd5b5061028c60048036038101906102879190611430565b6107ac565b005b34801561029a57600080fd5b506102b560048036038101906102b091906115fc565b610841565b005b3480156102c357600080fd5b506102de60048036038101906102d99190611470565b610bee565b6040516102eb91906114ac565b60405180910390f35b34801561030057600080fd5b50610309610c92565b6040516103169190611295565b60405180910390f35b34801561032b57600080fd5b506103466004803603810190610341919061139b565b610d2d565b6040516103539190611295565b60405180910390f35b34801561036857600080fd5b50610371610dd3565b60405161037e919061169c565b60405180910390f35b34801561039357600080fd5b506103ae60048036038101906103a9919061139b565b610df9565b6040516103bb9190611660565b60405180910390f35b3480156103d057600080fd5b506103eb60048036038101906103e69190611430565b610e19565b6040516103f891906114ac565b60405180910390f35b34801561040d57600080fd5b506104286004803603810190610423919061139b565b610e4a565b60405161043591906114ac565b60405180910390f35b610446610e6e565b005b34801561045457600080fd5b5061045d610ffb565b60405161046a91906116d8565b60405180910390f35b34801561047f57600080fd5b5061048861101f565b60405161049591906114ac565b60405180910390f35b3480156104aa57600080fd5b506104b361102c565b6040516104c091906114ac565b60405180910390f35b3480156104d557600080fd5b506104f060048036038101906104eb919061139b565b6110c3565b005b3480156104fe57600080fd5b506105196004803603810190610514919061139b565b6111e1565b60405161052691906114ac565b60405180910390f35b6060600160009054906101000a900473ffffffffffffffffffffffffffffffffffffffff1673ffffffffffffffffffffffffffffffffffffffff166395d89b416040518163ffffffff1660e01b8152600401600060405180830381865afa15801561059e573d6000803e3d6000fd5b505050506040513d6000823e3d601f19601f820116820180604052508101906105c79190611763565b905090565b600160009054906101000a900473ffffffffffffffffffffffffffffffffffffffff1681565b6000600160009054906101000a900473ffffffffffffffffffffffffffffffffffffffff1673ffffffffffffffffffffffffffffffffffffffff16636352211e836040518263ffffffff1660e01b815260040161064f91906114ac565b602060405180830381865afa15801561066c573d6000803e3d6000fd5b505050506040513d601f19601f8201168201806040525081019061069091906117c1565b9050919050565b60008054906101000a900473ffffffffffffffffffffffffffffffffffffffff1673ffffffffffffffffffffffffffffffffffffffff1663beabacc83384846040518463ffffffff1660e01b81526004016106f4939291906117ee565b600060405180830381600087803b15801561070e57600080fd5b505af1158015610722573d6000803e3d6000fd5b505050505050565b6000600860008373ffffffffffffffffffffffffffffffffffffffff1673ffffffffffffffffffffffffffffffffffffffff168152602001908152602001600020805490509050919050565b6007818051602081018201805184825260208301602085012081835280955050505050506000915054906101000a900460ff1681565b600160009054906101000a900473ffffffffffffffffffffffffffffffffffffffff1673ffffffffffffffffffffffffffffffffffffffff166342842e0e3384846040518463ffffffff1660e01b815260040161080b939291906117ee565b600060405180830381600087803b15801561082557600080fd5b505af1158015610839573d6000803e3d6000fd5b505050505050565b600015156007826040516108559190611861565b908152602001604051809103902060009054906101000a900460ff161515146108b3576040517f08c379a00000000000000000000000000000000000000000000000000000000081526004016108aa906118c4565b60405180910390fd5b60646108be33610bee565b10156108ff576040517f08c379a00000000000000000000000000000000000000000000000000000000081526004016108f690611930565b60405180910390fd5b60016007826040516109119190611861565b908152602001604051809103902060006101000a81548160ff021916908315150217905550600260009054906101000a900473ffffffffffffffffffffffffffffffffffffffff1673ffffffffffffffffffffffffffffffffffffffff163373ffffffffffffffffffffffffffffffffffffffff1603610a2257600160009054906101000a900473ffffffffffffffffffffffffffffffffffffffff1673ffffffffffffffffffffffffffffffffffffffff1663a0712d686003805490506040518263ffffffff1660e01b81526004016109eb91906114ac565b600060405180830381600087803b158015610a0557600080fd5b505af1158015610a19573d6000803e3d6000fd5b50505050610ae2565b610a4f600260009054906101000a900473ffffffffffffffffffffffffffffffffffffffff166064610697565b600160009054906101000a900473ffffffffffffffffffffffffffffffffffffffff1673ffffffffffffffffffffffffffffffffffffffff1663a0712d686003805490506040518263ffffffff1660e01b8152600401610aaf91906114ac565b600060405180830381600087803b158015610ac957600080fd5b505af1158015610add573d6000803e3d6000fd5b505050505b600060066000600380549050815260200190815260200160002060006101000a81548160ff0219169083151502179055506040518060200160405280828152506005600060038054905081526020019081526020016000206000820151816000019081610b4f9190611b52565b50905050600860003373ffffffffffffffffffffffffffffffffffffffff1673ffffffffffffffffffffffffffffffffffffffff168152602001908152602001600020600380549050908060018154018082558091505060019003906000526020600020016000909190919091505560038080549050908060018154018082558091505060019003906000526020600020016000909190919091505550565b60008060009054906101000a900473ffffffffffffffffffffffffffffffffffffffff1673ffffffffffffffffffffffffffffffffffffffff166370a08231836040518263ffffffff1660e01b8152600401610c4a91906113e9565b602060405180830381865afa158015610c67573d6000803e3d6000fd5b505050506040513d601f19601f82011682018060405250810190610c8b9190611c39565b9050919050565b606060008054906101000a900473ffffffffffffffffffffffffffffffffffffffff1673ffffffffffffffffffffffffffffffffffffffff166395d89b416040518163ffffffff1660e01b8152600401600060405180830381865afa158015610cff573d6000803e3d6000fd5b505050506040513d6000823e3d601f19601f82011682018060405250810190610d289190611763565b905090565b6005602052806000526040600020600091509050806000018054610d509061197f565b80601f0160208091040260200160405190810160405280929190818152602001828054610d7c9061197f565b8015610dc95780601f10610d9e57610100808354040283529160200191610dc9565b820191906000526020600020905b815481529060010190602001808311610dac57829003601f168201915b5050505050905081565b600260009054906101000a900473ffffffffffffffffffffffffffffffffffffffff1681565b60066020528060005260406000206000915054906101000a900460ff1681565b60086020528160005260406000208181548110610e3557600080fd5b90600052602060002001600091509150505481565b60048181548110610e5a57600080fd5b906000526020600020016000915090505481565b670de0b6b3a7640000341015610eb9576040517f08c379a0000000000000000000000000000000000000000000000000000000008152600401610eb090611cb2565b60405180910390fd5b60006103e8670de0b6b3a764000034610ed29190611d30565b610edc9190611d61565b9050600260009054906101000a900473ffffffffffffffffffffffffffffffffffffffff1673ffffffffffffffffffffffffffffffffffffffff166108fc349081150290604051600060405180830381858888f19350505050158015610f46573d6000803e3d6000fd5b5060008054906101000a900473ffffffffffffffffffffffffffffffffffffffff1673ffffffffffffffffffffffffffffffffffffffff1663beabacc8600260009054906101000a900473ffffffffffffffffffffffffffffffffffffffff1633846040518463ffffffff1660e01b8152600401610fc693929190611dc4565b600060405180830381600087803b158015610fe057600080fd5b505af1158015610ff4573d6000803e3d6000fd5b5050505050565b60008054906101000a900473ffffffffffffffffffffffffffffffffffffffff1681565b6000600380549050905090565b60008060009054906101000a900473ffffffffffffffffffffffffffffffffffffffff1673ffffffffffffffffffffffffffffffffffffffff166318160ddd6040518163ffffffff1660e01b8152600401602060405180830381865afa15801561109a573d6000803e3d6000fd5b505050506040513d601f19601f820116820180604052508101906110be9190611c39565b905090565b600260009054906101000a900473ffffffffffffffffffffffffffffffffffffffff1673ffffffffffffffffffffffffffffffffffffffff163373ffffffffffffffffffffffffffffffffffffffff1614611153576040517f08c379a000000000000000000000000000000000000000000000000000000000815260040161114a90611e47565b60405180910390fd5b60008054906101000a900473ffffffffffffffffffffffffffffffffffffffff1673ffffffffffffffffffffffffffffffffffffffff1663a0712d68826040518263ffffffff1660e01b81526004016111ac91906114ac565b600060405180830381600087803b1580156111c657600080fd5b505af11580156111da573d6000803e3d6000fd5b5050505050565b600381815481106111f157600080fd5b906000526020600020016000915090505481565b600081519050919050565b600082825260208201905092915050565b60005b8381101561123f578082015181840152602081019050611224565b60008484015250505050565b6000601f19601f8301169050919050565b600061126782611205565b6112718185611210565b9350611281818560208601611221565b61128a8161124b565b840191505092915050565b600060208201905081810360008301526112af818461125c565b905092915050565b600073ffffffffffffffffffffffffffffffffffffffff82169050919050565b6000819050919050565b60006112fc6112f76112f2846112b7565b6112d7565b6112b7565b9050919050565b600061130e826112e1565b9050919050565b600061132082611303565b9050919050565b61133081611315565b82525050565b600060208201905061134b6000830184611327565b92915050565b6000604051905090565b600080fd5b600080fd5b6000819050919050565b61137881611365565b811461138357600080fd5b50565b6000813590506113958161136f565b92915050565b6000602082840312156113b1576113b061135b565b5b60006113bf84828501611386565b91505092915050565b60006113d3826112b7565b9050919050565b6113e3816113c8565b82525050565b60006020820190506113fe60008301846113da565b92915050565b61140d816113c8565b811461141857600080fd5b50565b60008135905061142a81611404565b92915050565b600080604083850312156114475761144661135b565b5b60006114558582860161141b565b925050602061146685828601611386565b9150509250929050565b6000602082840312156114865761148561135b565b5b60006114948482850161141b565b91505092915050565b6114a681611365565b82525050565b60006020820190506114c1600083018461149d565b92915050565b600080fd5b600080fd5b7f4e487b7100000000000000000000000000000000000000000000000000000000600052604160045260246000fd5b6115098261124b565b810181811067ffffffffffffffff82111715611528576115276114d1565b5b80604052505050565b600061153b611351565b90506115478282611500565b919050565b600067ffffffffffffffff821115611567576115666114d1565b5b6115708261124b565b9050602081019050919050565b82818337600083830152505050565b600061159f61159a8461154c565b611531565b9050828152602081018484840111156115bb576115ba6114cc565b5b6115c684828561157d565b509392505050565b600082601f8301126115e3576115e26114c7565b5b81356115f384826020860161158c565b91505092915050565b6000602082840312156116125761161161135b565b5b600082013567ffffffffffffffff8111156116305761162f611360565b5b61163c848285016115ce565b91505092915050565b60008115159050919050565b61165a81611645565b82525050565b60006020820190506116756000830184611651565b92915050565b6000611686826112b7565b9050919050565b6116968161167b565b82525050565b60006020820190506116b1600083018461168d565b92915050565b60006116c282611303565b9050919050565b6116d2816116b7565b82525050565b60006020820190506116ed60008301846116c9565b92915050565b60006117066117018461154c565b611531565b905082815260208101848484011115611722576117216114cc565b5b61172d848285611221565b509392505050565b600082601f83011261174a576117496114c7565b5b815161175a8482602086016116f3565b91505092915050565b6000602082840312156117795761177861135b565b5b600082015167ffffffffffffffff81111561179757611796611360565b5b6117a384828501611735565b91505092915050565b6000815190506117bb81611404565b92915050565b6000602082840312156117d7576117d661135b565b5b60006117e5848285016117ac565b91505092915050565b600060608201905061180360008301866113da565b61181060208301856113da565b61181d604083018461149d565b949350505050565b600081905092915050565b600061183b82611205565b6118458185611825565b9350611855818560208601611221565b80840191505092915050565b600061186d8284611830565b915081905092915050565b7f74686973206e616d6520616c7265616479207573656400000000000000000000600082015250565b60006118ae601683611210565b91506118b982611878565b602082019050919050565b600060208201905081810360008301526118dd816118a1565b9050919050565b7f796f7572204e43203c2031303000000000000000000000000000000000000000600082015250565b600061191a600d83611210565b9150611925826118e4565b602082019050919050565b600060208201905081810360008301526119498161190d565b9050919050565b7f4e487b7100000000000000000000000000000000000000000000000000000000600052602260045260246000fd5b6000600282049050600182168061199757607f821691505b6020821081036119aa576119a9611950565b5b50919050565b60008190508160005260206000209050919050565b60006020601f8301049050919050565b600082821b905092915050565b600060088302611a127fffffffffffffffffffffffffffffffffffffffffffffffffffffffffffffffff826119d5565b611a1c86836119d5565b95508019841693508086168417925050509392505050565b6000611a4f611a4a611a4584611365565b6112d7565b611365565b9050919050565b6000819050919050565b611a6983611a34565b611a7d611a7582611a56565b8484546119e2565b825550505050565b600090565b611a92611a85565b611a9d818484611a60565b505050565b5b81811015611ac157611ab6600082611a8a565b600181019050611aa3565b5050565b601f821115611b0657611ad7816119b0565b611ae0846119c5565b81016020851015611aef578190505b611b03611afb856119c5565b830182611aa2565b50505b505050565b600082821c905092915050565b6000611b2960001984600802611b0b565b1980831691505092915050565b6000611b428383611b18565b9150826002028217905092915050565b611b5b82611205565b67ffffffffffffffff811115611b7457611b736114d1565b5b611b7e825461197f565b611b89828285611ac5565b600060209050601f831160018114611bbc5760008415611baa578287015190505b611bb48582611b36565b865550611c1c565b601f198416611bca866119b0565b60005b82811015611bf257848901518255600182019150602085019450602081019050611bcd565b86831015611c0f5784890151611c0b601f891682611b18565b8355505b6001600288020188555050505b505050505050565b600081519050611c338161136f565b92915050565b600060208284031215611c4f57611c4e61135b565b5b6000611c5d84828501611c24565b91505092915050565b7f496e73756666696369656e742045746865722073656e74000000000000000000600082015250565b6000611c9c601783611210565b9150611ca782611c66565b602082019050919050565b60006020820190508181036000830152611ccb81611c8f565b9050919050565b7f4e487b7100000000000000000000000000000000000000000000000000000000600052601260045260246000fd5b7f4e487b7100000000000000000000000000000000000000000000000000000000600052601160045260246000fd5b6000611d3b82611365565b9150611d4683611365565b925082611d5657611d55611cd2565b5b828204905092915050565b6000611d6c82611365565b9150611d7783611365565b9250828202611d8581611365565b91508282048414831517611d9c57611d9b611d01565b5b5092915050565b6000611dae82611303565b9050919050565b611dbe81611da3565b82525050565b6000606082019050611dd96000830186611db5565b611de660208301856113da565b611df3604083018461149d565b949350505050565b7f796f75206e6f74206f776e657240210000000000000000000000000000000000600082015250565b6000611e31600f83611210565b9150611e3c82611dfb565b602082019050919050565b60006020820190508181036000830152611e6081611e24565b905091905056fea26469706673582212200098b097e20ea559d8e8e81e55f942566956fdf6990eb8c12d47f1ec48c5bbb164736f6c63430008140033",
  "linkReferences": {},
  "deployedLinkReferences": {}
}