{
  "_format": "hh-sol-artifact-1",
  "contractName": "NameWorld",
  "sourceName": "contracts/NameWorld.sol",
  "abi": [
    {
      "inputs": [],
      "stateMutability": "nonpayable",
      "type": "constructor"
    },
    {
      "inputs": [
        {
          "internalType": "address",
          "name": "sender",
          "type": "address"
        },
        {
          "internalType": "uint256",
          "name": "tokenId",
          "type": "uint256"
        },
        {
          "internalType": "address",
          "name": "owner",
          "type": "address"
        }
      ],
      "name": "ERC721IncorrectOwner",
      "type": "error"
    },
    {
      "inputs": [
        {
          "internalType": "address",
          "name": "operator",
          "type": "address"
        },
        {
          "internalType": "uint256",
          "name": "tokenId",
          "type": "uint256"
        }
      ],
      "name": "ERC721InsufficientApproval",
      "type": "error"
    },
    {
      "inputs": [
        {
          "internalType": "address",
          "name": "approver",
          "type": "address"
        }
      ],
      "name": "ERC721InvalidApprover",
      "type": "error"
    },
    {
      "inputs": [
        {
          "internalType": "address",
          "name": "operator",
          "type": "address"
        }
      ],
      "name": "ERC721InvalidOperator",
      "type": "error"
    },
    {
      "inputs": [
        {
          "internalType": "address",
          "name": "owner",
          "type": "address"
        }
      ],
      "name": "ERC721InvalidOwner",
      "type": "error"
    },
    {
      "inputs": [
        {
          "internalType": "address",
          "name": "receiver",
          "type": "address"
        }
      ],
      "name": "ERC721InvalidReceiver",
      "type": "error"
    },
    {
      "inputs": [
        {
          "internalType": "address",
          "name": "sender",
          "type": "address"
        }
      ],
      "name": "ERC721InvalidSender",
      "type": "error"
    },
    {
      "inputs": [
        {
          "internalType": "uint256",
          "name": "tokenId",
          "type": "uint256"
        }
      ],
      "name": "ERC721NonexistentToken",
      "type": "error"
    },
    {
      "anonymous": false,
      "inputs": [
        {
          "indexed": true,
          "internalType": "address",
          "name": "owner",
          "type": "address"
        },
        {
          "indexed": true,
          "internalType": "address",
          "name": "approved",
          "type": "address"
        },
        {
          "indexed": true,
          "internalType": "uint256",
          "name": "tokenId",
          "type": "uint256"
        }
      ],
      "name": "Approval",
      "type": "event"
    },
    {
      "anonymous": false,
      "inputs": [
        {
          "indexed": true,
          "internalType": "address",
          "name": "owner",
          "type": "address"
        },
        {
          "indexed": true,
          "internalType": "address",
          "name": "operator",
          "type": "address"
        },
        {
          "indexed": false,
          "internalType": "bool",
          "name": "approved",
          "type": "bool"
        }
      ],
      "name": "ApprovalForAll",
      "type": "event"
    },
    {
      "anonymous": false,
      "inputs": [
        {
          "indexed": true,
          "internalType": "address",
          "name": "from",
          "type": "address"
        },
        {
          "indexed": true,
          "internalType": "address",
          "name": "to",
          "type": "address"
        },
        {
          "indexed": true,
          "internalType": "uint256",
          "name": "tokenId",
          "type": "uint256"
        }
      ],
      "name": "Transfer",
      "type": "event"
    },
    {
      "inputs": [
        {
          "internalType": "uint256",
          "name": "",
          "type": "uint256"
        }
      ],
      "name": "allIdTokens",
      "outputs": [
        {
          "internalType": "uint256",
          "name": "",
          "type": "uint256"
        }
      ],
      "stateMutability": "view",
      "type": "function"
    },
    {
      "inputs": [
        {
          "internalType": "address",
          "name": "to",
          "type": "address"
        },
        {
          "internalType": "uint256",
          "name": "tokenId",
          "type": "uint256"
        }
      ],
      "name": "approve",
      "outputs": [],
      "stateMutability": "nonpayable",
      "type": "function"
    },
    {
      "inputs": [
        {
          "internalType": "address",
          "name": "owner",
          "type": "address"
        }
      ],
      "name": "balanceOf",
      "outputs": [
        {
          "internalType": "uint256",
          "name": "",
          "type": "uint256"
        }
      ],
      "stateMutability": "view",
      "type": "function"
    },
    {
      "inputs": [
        {
          "internalType": "uint256",
          "name": "tokenId",
          "type": "uint256"
        }
      ],
      "name": "getApproved",
      "outputs": [
        {
          "internalType": "address",
          "name": "",
          "type": "address"
        }
      ],
      "stateMutability": "view",
      "type": "function"
    },
    {
      "inputs": [
        {
          "internalType": "uint256",
          "name": "",
          "type": "uint256"
        }
      ],
      "name": "idNftMap",
      "outputs": [
        {
          "internalType": "string",
          "name": "name",
          "type": "string"
        }
      ],
      "stateMutability": "view",
      "type": "function"
    },
    {
      "inputs": [
        {
          "internalType": "address",
          "name": "owner",
          "type": "address"
        },
        {
          "internalType": "address",
          "name": "operator",
          "type": "address"
        }
      ],
      "name": "isApprovedForAll",
      "outputs": [
        {
          "internalType": "bool",
          "name": "",
          "type": "bool"
        }
      ],
      "stateMutability": "view",
      "type": "function"
    },
    {
      "inputs": [],
      "name": "lengthUserNft",
      "outputs": [
        {
          "internalType": "uint256",
          "name": "",
          "type": "uint256"
        }
      ],
      "stateMutability": "view",
      "type": "function"
    },
    {
      "inputs": [
        {
          "internalType": "string",
          "name": "_name",
          "type": "string"
        }
      ],
      "name": "mintToken",
      "outputs": [],
      "stateMutability": "nonpayable",
      "type": "function"
    },
    {
      "inputs": [],
      "name": "name",
      "outputs": [
        {
          "internalType": "string",
          "name": "",
          "type": "string"
        }
      ],
      "stateMutability": "view",
      "type": "function"
    },
    {
      "inputs": [
        {
          "internalType": "uint256",
          "name": "tokenId",
          "type": "uint256"
        }
      ],
      "name": "ownerOf",
      "outputs": [
        {
          "internalType": "address",
          "name": "",
          "type": "address"
        }
      ],
      "stateMutability": "view",
      "type": "function"
    },
    {
      "inputs": [
        {
          "internalType": "address",
          "name": "from",
          "type": "address"
        },
        {
          "internalType": "address",
          "name": "to",
          "type": "address"
        },
        {
          "internalType": "uint256",
          "name": "tokenId",
          "type": "uint256"
        }
      ],
      "name": "safeTransferFrom",
      "outputs": [],
      "stateMutability": "nonpayable",
      "type": "function"
    },
    {
      "inputs": [
        {
          "internalType": "address",
          "name": "from",
          "type": "address"
        },
        {
          "internalType": "address",
          "name": "to",
          "type": "address"
        },
        {
          "internalType": "uint256",
          "name": "tokenId",
          "type": "uint256"
        },
        {
          "internalType": "bytes",
          "name": "data",
          "type": "bytes"
        }
      ],
      "name": "safeTransferFrom",
      "outputs": [],
      "stateMutability": "nonpayable",
      "type": "function"
    },
    {
      "inputs": [
        {
          "internalType": "address",
          "name": "operator",
          "type": "address"
        },
        {
          "internalType": "bool",
          "name": "approved",
          "type": "bool"
        }
      ],
      "name": "setApprovalForAll",
      "outputs": [],
      "stateMutability": "nonpayable",
      "type": "function"
    },
    {
      "inputs": [
        {
          "internalType": "string",
          "name": "",
          "type": "string"
        }
      ],
      "name": "statusName",
      "outputs": [
        {
          "internalType": "bool",
          "name": "",
          "type": "bool"
        }
      ],
      "stateMutability": "view",
      "type": "function"
    },
    {
      "inputs": [
        {
          "internalType": "bytes4",
          "name": "interfaceId",
          "type": "bytes4"
        }
      ],
      "name": "supportsInterface",
      "outputs": [
        {
          "internalType": "bool",
          "name": "",
          "type": "bool"
        }
      ],
      "stateMutability": "view",
      "type": "function"
    },
    {
      "inputs": [],
      "name": "symbol",
      "outputs": [
        {
          "internalType": "string",
          "name": "",
          "type": "string"
        }
      ],
      "stateMutability": "view",
      "type": "function"
    },
    {
      "inputs": [
        {
          "internalType": "uint256",
          "name": "tokenId",
          "type": "uint256"
        }
      ],
      "name": "tokenURI",
      "outputs": [
        {
          "internalType": "string",
          "name": "",
          "type": "string"
        }
      ],
      "stateMutability": "view",
      "type": "function"
    },
    {
      "inputs": [
        {
          "internalType": "address",
          "name": "from",
          "type": "address"
        },
        {
          "internalType": "address",
          "name": "to",
          "type": "address"
        },
        {
          "internalType": "uint256",
          "name": "tokenId",
          "type": "uint256"
        }
      ],
      "name": "transferFrom",
      "outputs": [],
      "stateMutability": "nonpayable",
      "type": "function"
    },
    {
      "inputs": [
        {
          "internalType": "address",
          "name": "",
          "type": "address"
        },
        {
          "internalType": "uint256",
          "name": "",
          "type": "uint256"
        }
      ],
      "name": "userNft",
      "outputs": [
        {
          "internalType": "uint256",
          "name": "",
          "type": "uint256"
        }
      ],
      "stateMutability": "view",
      "type": "function"
    }
  ],
  "bytecode": "0x60806040523480156200001157600080fd5b506040518060400160405280600781526020017f4e616d654e4654000000000000000000000000000000000000000000000000008152506040518060400160405280600381526020017f4e4654000000000000000000000000000000000000000000000000000000000081525081600090816200008f919062000d66565b508060019081620000a1919062000d66565b50505033600660006101000a81548173ffffffffffffffffffffffffffffffffffffffff021916908373ffffffffffffffffffffffffffffffffffffffff160217905550600a6000600660009054906101000a900473ffffffffffffffffffffffffffffffffffffffff1673ffffffffffffffffffffffffffffffffffffffff1673ffffffffffffffffffffffffffffffffffffffff168152602001908152602001600020600780549050908060018154018082558091505060019003906000526020600020016000909190919091505560405180602001604052806040518060400160405280600a81526020017f5472796c617374736b79000000000000000000000000000000000000000000008152508152506008600060078054905081526020019081526020016000206000820151816000019081620001e5919062000d66565b5090505060016009604051620001fb9062000ea8565b908152602001604051809103902060006101000a81548160ff02191690831515021790555062000259600660009054906101000a900473ffffffffffffffffffffffffffffffffffffffff166007805490506200028c60201b60201c565b60078080549050908060018154018082558091505060019003906000526020600020016000909190919091505562000f7c565b600073ffffffffffffffffffffffffffffffffffffffff168273ffffffffffffffffffffffffffffffffffffffff1603620003015760006040517f64a0ae92000000000000000000000000000000000000000000000000000000008152600401620002f8919062000f04565b60405180910390fd5b600062000317838360006200039360201b60201c565b9050600073ffffffffffffffffffffffffffffffffffffffff168173ffffffffffffffffffffffffffffffffffffffff16146200038e5760006040517f73c6ac6e00000000000000000000000000000000000000000000000000000000815260040162000385919062000f04565b60405180910390fd5b505050565b600080620003a784620005c860201b60201c565b9050600073ffffffffffffffffffffffffffffffffffffffff168373ffffffffffffffffffffffffffffffffffffffff1614620003f257620003f18184866200060560201b60201c565b5b600073ffffffffffffffffffffffffffffffffffffffff168173ffffffffffffffffffffffffffffffffffffffff16146200048c576200043d600085600080620006d760201b60201c565b6001600360008373ffffffffffffffffffffffffffffffffffffffff1673ffffffffffffffffffffffffffffffffffffffff168152602001908152602001600020600082825403925050819055505b600073ffffffffffffffffffffffffffffffffffffffff168573ffffffffffffffffffffffffffffffffffffffff161462000510576001600360008773ffffffffffffffffffffffffffffffffffffffff1673ffffffffffffffffffffffffffffffffffffffff168152602001908152602001600020600082825401925050819055505b846002600086815260200190815260200160002060006101000a81548173ffffffffffffffffffffffffffffffffffffffff021916908373ffffffffffffffffffffffffffffffffffffffff160217905550838573ffffffffffffffffffffffffffffffffffffffff168273ffffffffffffffffffffffffffffffffffffffff167fddf252ad1be2c89b69c2b068fc378daa952ba7f163c4a11628f55a4df523b3ef60405160405180910390a4809150509392505050565b60006002600083815260200190815260200160002060009054906101000a900473ffffffffffffffffffffffffffffffffffffffff169050919050565b62000618838383620008b460201b60201c565b620006d257600073ffffffffffffffffffffffffffffffffffffffff168373ffffffffffffffffffffffffffffffffffffffff16036200069157806040517f7e27328900000000000000000000000000000000000000000000000000000000815260040162000688919062000f32565b60405180910390fd5b81816040517f177e802f000000000000000000000000000000000000000000000000000000008152600401620006c992919062000f4f565b60405180910390fd5b505050565b8080620007115750600073ffffffffffffffffffffffffffffffffffffffff168273ffffffffffffffffffffffffffffffffffffffff1614155b156200085c5760006200072a846200098860201b60201c565b9050600073ffffffffffffffffffffffffffffffffffffffff168373ffffffffffffffffffffffffffffffffffffffff16141580156200079657508273ffffffffffffffffffffffffffffffffffffffff168173ffffffffffffffffffffffffffffffffffffffff1614155b8015620007b25750620007b0818462000a1b60201b60201c565b155b15620007f757826040517fa9fbf51f000000000000000000000000000000000000000000000000000000008152600401620007ee919062000f04565b60405180910390fd5b81156200085a57838573ffffffffffffffffffffffffffffffffffffffff168273ffffffffffffffffffffffffffffffffffffffff167f8c5be1e5ebec7d5bd14f71427d1e84f3dd0314c0f7b2291e5b200ac8c7c3b92560405160405180910390a45b505b836004600085815260200190815260200160002060006101000a81548173ffffffffffffffffffffffffffffffffffffffff021916908373ffffffffffffffffffffffffffffffffffffffff16021790555050505050565b60008073ffffffffffffffffffffffffffffffffffffffff168373ffffffffffffffffffffffffffffffffffffffff16141580156200097f57508273ffffffffffffffffffffffffffffffffffffffff168473ffffffffffffffffffffffffffffffffffffffff16148062000937575062000936848462000a1b60201b60201c565b5b806200097e57508273ffffffffffffffffffffffffffffffffffffffff16620009668362000aaf60201b60201c565b73ffffffffffffffffffffffffffffffffffffffff16145b5b90509392505050565b6000806200099c83620005c860201b60201c565b9050600073ffffffffffffffffffffffffffffffffffffffff168173ffffffffffffffffffffffffffffffffffffffff160362000a1257826040517f7e27328900000000000000000000000000000000000000000000000000000000815260040162000a09919062000f32565b60405180910390fd5b80915050919050565b6000600560008473ffffffffffffffffffffffffffffffffffffffff1673ffffffffffffffffffffffffffffffffffffffff16815260200190815260200160002060008373ffffffffffffffffffffffffffffffffffffffff1673ffffffffffffffffffffffffffffffffffffffff16815260200190815260200160002060009054906101000a900460ff16905092915050565b60006004600083815260200190815260200160002060009054906101000a900473ffffffffffffffffffffffffffffffffffffffff169050919050565b600081519050919050565b7f4e487b7100000000000000000000000000000000000000000000000000000000600052604160045260246000fd5b7f4e487b7100000000000000000000000000000000000000000000000000000000600052602260045260246000fd5b6000600282049050600182168062000b6e57607f821691505b60208210810362000b845762000b8362000b26565b5b50919050565b60008190508160005260206000209050919050565b60006020601f8301049050919050565b600082821b905092915050565b60006008830262000bee7fffffffffffffffffffffffffffffffffffffffffffffffffffffffffffffffff8262000baf565b62000bfa868362000baf565b95508019841693508086168417925050509392505050565b6000819050919050565b6000819050919050565b600062000c4762000c4162000c3b8462000c12565b62000c1c565b62000c12565b9050919050565b6000819050919050565b62000c638362000c26565b62000c7b62000c728262000c4e565b84845462000bbc565b825550505050565b600090565b62000c9262000c83565b62000c9f81848462000c58565b505050565b5b8181101562000cc75762000cbb60008262000c88565b60018101905062000ca5565b5050565b601f82111562000d165762000ce08162000b8a565b62000ceb8462000b9f565b8101602085101562000cfb578190505b62000d1362000d0a8562000b9f565b83018262000ca4565b50505b505050565b600082821c905092915050565b600062000d3b6000198460080262000d1b565b1980831691505092915050565b600062000d56838362000d28565b9150826002028217905092915050565b62000d718262000aec565b67ffffffffffffffff81111562000d8d5762000d8c62000af7565b5b62000d99825462000b55565b62000da682828562000ccb565b600060209050601f83116001811462000dde576000841562000dc9578287015190505b62000dd5858262000d48565b86555062000e45565b601f19841662000dee8662000b8a565b60005b8281101562000e185784890151825560018201915060208501945060208101905062000df1565b8683101562000e38578489015162000e34601f89168262000d28565b8355505b6001600288020188555050505b505050505050565b600081905092915050565b7f5472796c617374736b7900000000000000000000000000000000000000000000600082015250565b600062000e90600a8362000e4d565b915062000e9d8262000e58565b600a82019050919050565b600062000eb58262000e81565b9150819050919050565b600073ffffffffffffffffffffffffffffffffffffffff82169050919050565b600062000eec8262000ebf565b9050919050565b62000efe8162000edf565b82525050565b600060208201905062000f1b600083018462000ef3565b92915050565b62000f2c8162000c12565b82525050565b600060208201905062000f49600083018462000f21565b92915050565b600060408201905062000f66600083018562000ef3565b62000f75602083018462000f21565b9392505050565b6125ba8062000f8c6000396000f3fe608060405234801561001057600080fd5b50600436106101215760003560e01c80636352211e116100ad578063a22cb46511610071578063a22cb46514610340578063b88d4fde1461035c578063c87b56dd14610378578063e985e9c5146103a8578063ecc708e1146103d857610121565b80636352211e1461026257806370a08231146102925780638c5d2a6d146102c257806395d89b41146102f25780639897e50d1461031057610121565b806311359be0116100f457806311359be0146101c057806323b872dd146101de57806333eba49a146101fa5780633bf114221461021657806342842e0e1461024657610121565b806301ffc9a71461012657806306fdde0314610156578063081812fc14610174578063095ea7b3146101a4575b600080fd5b610140600480360381019061013b9190611a19565b610408565b60405161014d9190611a61565b60405180910390f35b61015e6104ea565b60405161016b9190611b0c565b60405180910390f35b61018e60048036038101906101899190611b64565b61057c565b60405161019b9190611bd2565b60405180910390f35b6101be60048036038101906101b99190611c19565b610598565b005b6101c86105ae565b6040516101d59190611c68565b60405180910390f35b6101f860048036038101906101f39190611c83565b6105f8565b005b610214600480360381019061020f9190611e0b565b6106fa565b005b610230600480360381019061022b9190611e0b565b61088d565b60405161023d9190611a61565b60405180910390f35b610260600480360381019061025b9190611c83565b6108c3565b005b61027c60048036038101906102779190611b64565b6108e3565b6040516102899190611bd2565b60405180910390f35b6102ac60048036038101906102a79190611e54565b6108f5565b6040516102b99190611c68565b60405180910390f35b6102dc60048036038101906102d79190611b64565b6109af565b6040516102e99190611b0c565b60405180910390f35b6102fa610a55565b6040516103079190611b0c565b60405180910390f35b61032a60048036038101906103259190611c19565b610ae7565b6040516103379190611c68565b60405180910390f35b61035a60048036038101906103559190611ead565b610b18565b005b61037660048036038101906103719190611f8e565b610b2e565b005b610392600480360381019061038d9190611b64565b610b4b565b60405161039f9190611b0c565b60405180910390f35b6103c260048036038101906103bd9190612011565b610bb4565b6040516103cf9190611a61565b60405180910390f35b6103f260048036038101906103ed9190611b64565b610c48565b6040516103ff9190611c68565b60405180910390f35b60007f80ac58cd000000000000000000000000000000000000000000000000000000007bffffffffffffffffffffffffffffffffffffffffffffffffffffffff1916827bffffffffffffffffffffffffffffffffffffffffffffffffffffffff191614806104d357507f5b5e139f000000000000000000000000000000000000000000000000000000007bffffffffffffffffffffffffffffffffffffffffffffffffffffffff1916827bffffffffffffffffffffffffffffffffffffffffffffffffffffffff1916145b806104e357506104e282610c6c565b5b9050919050565b6060600080546104f990612080565b80601f016020809104026020016040519081016040528092919081815260200182805461052590612080565b80156105725780601f1061054757610100808354040283529160200191610572565b820191906000526020600020905b81548152906001019060200180831161055557829003601f168201915b5050505050905090565b600061058782610cd6565b5061059182610d5e565b9050919050565b6105aa82826105a5610d9b565b610da3565b5050565b6000600a60003373ffffffffffffffffffffffffffffffffffffffff1673ffffffffffffffffffffffffffffffffffffffff16815260200190815260200160002080549050905090565b600073ffffffffffffffffffffffffffffffffffffffff168273ffffffffffffffffffffffffffffffffffffffff160361066a5760006040517f64a0ae920000000000000000000000000000000000000000000000000000000081526004016106619190611bd2565b60405180910390fd5b600061067e8383610679610d9b565b610db5565b90508373ffffffffffffffffffffffffffffffffffffffff168173ffffffffffffffffffffffffffffffffffffffff16146106f4578382826040517f64283d7b0000000000000000000000000000000000000000000000000000000081526004016106eb939291906120b1565b60405180910390fd5b50505050565b6000151560098260405161070e9190612124565b908152602001604051809103902060009054906101000a900460ff1615151461076c576040517f08c379a000000000000000000000000000000000000000000000000000000000815260040161076390612187565b60405180910390fd5b600a60003373ffffffffffffffffffffffffffffffffffffffff1673ffffffffffffffffffffffffffffffffffffffff168152602001908152602001600020600780549050908060018154018082558091505060019003906000526020600020016000909190919091505560405180602001604052808281525060086000600780549050815260200190815260200160002060008201518160000190816108139190612353565b5090505060016009826040516108299190612124565b908152602001604051809103902060006101000a81548160ff02191690831515021790555061085d33600780549050610fcf565b60078080549050908060018154018082558091505060019003906000526020600020016000909190919091505550565b6009818051602081018201805184825260208301602085012081835280955050505050506000915054906101000a900460ff1681565b6108de83838360405180602001604052806000815250610b2e565b505050565b60006108ee82610cd6565b9050919050565b60008073ffffffffffffffffffffffffffffffffffffffff168273ffffffffffffffffffffffffffffffffffffffff16036109685760006040517f89c62b6400000000000000000000000000000000000000000000000000000000815260040161095f9190611bd2565b60405180910390fd5b600360008373ffffffffffffffffffffffffffffffffffffffff1673ffffffffffffffffffffffffffffffffffffffff168152602001908152602001600020549050919050565b60086020528060005260406000206000915090508060000180546109d290612080565b80601f01602080910402602001604051908101604052809291908181526020018280546109fe90612080565b8015610a4b5780601f10610a2057610100808354040283529160200191610a4b565b820191906000526020600020905b815481529060010190602001808311610a2e57829003601f168201915b5050505050905081565b606060018054610a6490612080565b80601f0160208091040260200160405190810160405280929190818152602001828054610a9090612080565b8015610add5780601f10610ab257610100808354040283529160200191610add565b820191906000526020600020905b815481529060010190602001808311610ac057829003601f168201915b5050505050905090565b600a6020528160005260406000208181548110610b0357600080fd5b90600052602060002001600091509150505481565b610b2a610b23610d9b565b83836110c8565b5050565b610b398484846105f8565b610b4584848484611237565b50505050565b6060610b5682610cd6565b506000610b616113ee565b90506000815111610b815760405180602001604052806000815250610bac565b80610b8b84611405565b604051602001610b9c929190612425565b6040516020818303038152906040525b915050919050565b6000600560008473ffffffffffffffffffffffffffffffffffffffff1673ffffffffffffffffffffffffffffffffffffffff16815260200190815260200160002060008373ffffffffffffffffffffffffffffffffffffffff1673ffffffffffffffffffffffffffffffffffffffff16815260200190815260200160002060009054906101000a900460ff16905092915050565b60078181548110610c5857600080fd5b906000526020600020016000915090505481565b60007f01ffc9a7000000000000000000000000000000000000000000000000000000007bffffffffffffffffffffffffffffffffffffffffffffffffffffffff1916827bffffffffffffffffffffffffffffffffffffffffffffffffffffffff1916149050919050565b600080610ce2836114d3565b9050600073ffffffffffffffffffffffffffffffffffffffff168173ffffffffffffffffffffffffffffffffffffffff1603610d5557826040517f7e273289000000000000000000000000000000000000000000000000000000008152600401610d4c9190611c68565b60405180910390fd5b80915050919050565b60006004600083815260200190815260200160002060009054906101000a900473ffffffffffffffffffffffffffffffffffffffff169050919050565b600033905090565b610db08383836001611510565b505050565b600080610dc1846114d3565b9050600073ffffffffffffffffffffffffffffffffffffffff168373ffffffffffffffffffffffffffffffffffffffff1614610e0357610e028184866116d5565b5b600073ffffffffffffffffffffffffffffffffffffffff168173ffffffffffffffffffffffffffffffffffffffff1614610e9457610e45600085600080611510565b6001600360008373ffffffffffffffffffffffffffffffffffffffff1673ffffffffffffffffffffffffffffffffffffffff168152602001908152602001600020600082825403925050819055505b600073ffffffffffffffffffffffffffffffffffffffff168573ffffffffffffffffffffffffffffffffffffffff1614610f17576001600360008773ffffffffffffffffffffffffffffffffffffffff1673ffffffffffffffffffffffffffffffffffffffff168152602001908152602001600020600082825401925050819055505b846002600086815260200190815260200160002060006101000a81548173ffffffffffffffffffffffffffffffffffffffff021916908373ffffffffffffffffffffffffffffffffffffffff160217905550838573ffffffffffffffffffffffffffffffffffffffff168273ffffffffffffffffffffffffffffffffffffffff167fddf252ad1be2c89b69c2b068fc378daa952ba7f163c4a11628f55a4df523b3ef60405160405180910390a4809150509392505050565b600073ffffffffffffffffffffffffffffffffffffffff168273ffffffffffffffffffffffffffffffffffffffff16036110415760006040517f64a0ae920000000000000000000000000000000000000000000000000000000081526004016110389190611bd2565b60405180910390fd5b600061104f83836000610db5565b9050600073ffffffffffffffffffffffffffffffffffffffff168173ffffffffffffffffffffffffffffffffffffffff16146110c35760006040517f73c6ac6e0000000000000000000000000000000000000000000000000000000081526004016110ba9190611bd2565b60405180910390fd5b505050565b600073ffffffffffffffffffffffffffffffffffffffff168273ffffffffffffffffffffffffffffffffffffffff160361113957816040517f5b08ba180000000000000000000000000000000000000000000000000000000081526004016111309190611bd2565b60405180910390fd5b80600560008573ffffffffffffffffffffffffffffffffffffffff1673ffffffffffffffffffffffffffffffffffffffff16815260200190815260200160002060008473ffffffffffffffffffffffffffffffffffffffff1673ffffffffffffffffffffffffffffffffffffffff16815260200190815260200160002060006101000a81548160ff0219169083151502179055508173ffffffffffffffffffffffffffffffffffffffff168373ffffffffffffffffffffffffffffffffffffffff167f17307eab39ab6107e8899845ad3d59bd9653f200f220920489ca2b5937696c318360405161122a9190611a61565b60405180910390a3505050565b60008373ffffffffffffffffffffffffffffffffffffffff163b11156113e8578273ffffffffffffffffffffffffffffffffffffffff1663150b7a0261127b610d9b565b8685856040518563ffffffff1660e01b815260040161129d949392919061249e565b6020604051808303816000875af19250505080156112d957506040513d601f19601f820116820180604052508101906112d691906124ff565b60015b61135d573d8060008114611309576040519150601f19603f3d011682016040523d82523d6000602084013e61130e565b606091505b50600081510361135557836040517f64a0ae9200000000000000000000000000000000000000000000000000000000815260040161134c9190611bd2565b60405180910390fd5b805181602001fd5b63150b7a0260e01b7bffffffffffffffffffffffffffffffffffffffffffffffffffffffff1916817bffffffffffffffffffffffffffffffffffffffffffffffffffffffff1916146113e657836040517f64a0ae920000000000000000000000000000000000000000000000000000000081526004016113dd9190611bd2565b60405180910390fd5b505b50505050565b606060405180602001604052806000815250905090565b60606000600161141484611799565b01905060008167ffffffffffffffff81111561143357611432611ce0565b5b6040519080825280601f01601f1916602001820160405280156114655781602001600182028036833780820191505090505b509050600082602001820190505b6001156114c8578080600190039150507f3031323334353637383961626364656600000000000000000000000000000000600a86061a8153600a85816114bc576114bb61252c565b5b04945060008503611473575b819350505050919050565b60006002600083815260200190815260200160002060009054906101000a900473ffffffffffffffffffffffffffffffffffffffff169050919050565b80806115495750600073ffffffffffffffffffffffffffffffffffffffff168273ffffffffffffffffffffffffffffffffffffffff1614155b1561167d57600061155984610cd6565b9050600073ffffffffffffffffffffffffffffffffffffffff168373ffffffffffffffffffffffffffffffffffffffff16141580156115c457508273ffffffffffffffffffffffffffffffffffffffff168173ffffffffffffffffffffffffffffffffffffffff1614155b80156115d757506115d58184610bb4565b155b1561161957826040517fa9fbf51f0000000000000000000000000000000000000000000000000000000081526004016116109190611bd2565b60405180910390fd5b811561167b57838573ffffffffffffffffffffffffffffffffffffffff168273ffffffffffffffffffffffffffffffffffffffff167f8c5be1e5ebec7d5bd14f71427d1e84f3dd0314c0f7b2291e5b200ac8c7c3b92560405160405180910390a45b505b836004600085815260200190815260200160002060006101000a81548173ffffffffffffffffffffffffffffffffffffffff021916908373ffffffffffffffffffffffffffffffffffffffff16021790555050505050565b6116e08383836118ec565b61179457600073ffffffffffffffffffffffffffffffffffffffff168373ffffffffffffffffffffffffffffffffffffffff160361175557806040517f7e27328900000000000000000000000000000000000000000000000000000000815260040161174c9190611c68565b60405180910390fd5b81816040517f177e802f00000000000000000000000000000000000000000000000000000000815260040161178b92919061255b565b60405180910390fd5b505050565b600080600090507a184f03e93ff9f4daa797ed6e38ed64bf6a1f01000000000000000083106117f7577a184f03e93ff9f4daa797ed6e38ed64bf6a1f01000000000000000083816117ed576117ec61252c565b5b0492506040810190505b6d04ee2d6d415b85acef81000000008310611834576d04ee2d6d415b85acef8100000000838161182a5761182961252c565b5b0492506020810190505b662386f26fc10000831061186357662386f26fc1000083816118595761185861252c565b5b0492506010810190505b6305f5e100831061188c576305f5e10083816118825761188161252c565b5b0492506008810190505b61271083106118b15761271083816118a7576118a661252c565b5b0492506004810190505b606483106118d457606483816118ca576118c961252c565b5b0492506002810190505b600a83106118e3576001810190505b80915050919050565b60008073ffffffffffffffffffffffffffffffffffffffff168373ffffffffffffffffffffffffffffffffffffffff16141580156119a457508273ffffffffffffffffffffffffffffffffffffffff168473ffffffffffffffffffffffffffffffffffffffff16148061196557506119648484610bb4565b5b806119a357508273ffffffffffffffffffffffffffffffffffffffff1661198b83610d5e565b73ffffffffffffffffffffffffffffffffffffffff16145b5b90509392505050565b6000604051905090565b600080fd5b600080fd5b60007fffffffff0000000000000000000000000000000000000000000000000000000082169050919050565b6119f6816119c1565b8114611a0157600080fd5b50565b600081359050611a13816119ed565b92915050565b600060208284031215611a2f57611a2e6119b7565b5b6000611a3d84828501611a04565b91505092915050565b60008115159050919050565b611a5b81611a46565b82525050565b6000602082019050611a766000830184611a52565b92915050565b600081519050919050565b600082825260208201905092915050565b60005b83811015611ab6578082015181840152602081019050611a9b565b60008484015250505050565b6000601f19601f8301169050919050565b6000611ade82611a7c565b611ae88185611a87565b9350611af8818560208601611a98565b611b0181611ac2565b840191505092915050565b60006020820190508181036000830152611b268184611ad3565b905092915050565b6000819050919050565b611b4181611b2e565b8114611b4c57600080fd5b50565b600081359050611b5e81611b38565b92915050565b600060208284031215611b7a57611b796119b7565b5b6000611b8884828501611b4f565b91505092915050565b600073ffffffffffffffffffffffffffffffffffffffff82169050919050565b6000611bbc82611b91565b9050919050565b611bcc81611bb1565b82525050565b6000602082019050611be76000830184611bc3565b92915050565b611bf681611bb1565b8114611c0157600080fd5b50565b600081359050611c1381611bed565b92915050565b60008060408385031215611c3057611c2f6119b7565b5b6000611c3e85828601611c04565b9250506020611c4f85828601611b4f565b9150509250929050565b611c6281611b2e565b82525050565b6000602082019050611c7d6000830184611c59565b92915050565b600080600060608486031215611c9c57611c9b6119b7565b5b6000611caa86828701611c04565b9350506020611cbb86828701611c04565b9250506040611ccc86828701611b4f565b9150509250925092565b600080fd5b600080fd5b7f4e487b7100000000000000000000000000000000000000000000000000000000600052604160045260246000fd5b611d1882611ac2565b810181811067ffffffffffffffff82111715611d3757611d36611ce0565b5b80604052505050565b6000611d4a6119ad565b9050611d568282611d0f565b919050565b600067ffffffffffffffff821115611d7657611d75611ce0565b5b611d7f82611ac2565b9050602081019050919050565b82818337600083830152505050565b6000611dae611da984611d5b565b611d40565b905082815260208101848484011115611dca57611dc9611cdb565b5b611dd5848285611d8c565b509392505050565b600082601f830112611df257611df1611cd6565b5b8135611e02848260208601611d9b565b91505092915050565b600060208284031215611e2157611e206119b7565b5b600082013567ffffffffffffffff811115611e3f57611e3e6119bc565b5b611e4b84828501611ddd565b91505092915050565b600060208284031215611e6a57611e696119b7565b5b6000611e7884828501611c04565b91505092915050565b611e8a81611a46565b8114611e9557600080fd5b50565b600081359050611ea781611e81565b92915050565b60008060408385031215611ec457611ec36119b7565b5b6000611ed285828601611c04565b9250506020611ee385828601611e98565b9150509250929050565b600067ffffffffffffffff821115611f0857611f07611ce0565b5b611f1182611ac2565b9050602081019050919050565b6000611f31611f2c84611eed565b611d40565b905082815260208101848484011115611f4d57611f4c611cdb565b5b611f58848285611d8c565b509392505050565b600082601f830112611f7557611f74611cd6565b5b8135611f85848260208601611f1e565b91505092915050565b60008060008060808587031215611fa857611fa76119b7565b5b6000611fb687828801611c04565b9450506020611fc787828801611c04565b9350506040611fd887828801611b4f565b925050606085013567ffffffffffffffff811115611ff957611ff86119bc565b5b61200587828801611f60565b91505092959194509250565b60008060408385031215612028576120276119b7565b5b600061203685828601611c04565b925050602061204785828601611c04565b9150509250929050565b7f4e487b7100000000000000000000000000000000000000000000000000000000600052602260045260246000fd5b6000600282049050600182168061209857607f821691505b6020821081036120ab576120aa612051565b5b50919050565b60006060820190506120c66000830186611bc3565b6120d36020830185611c59565b6120e06040830184611bc3565b949350505050565b600081905092915050565b60006120fe82611a7c565b61210881856120e8565b9350612118818560208601611a98565b80840191505092915050565b600061213082846120f3565b915081905092915050565b7f74686973206e616d6520616c7265616479207573656400000000000000000000600082015250565b6000612171601683611a87565b915061217c8261213b565b602082019050919050565b600060208201905081810360008301526121a081612164565b9050919050565b60008190508160005260206000209050919050565b60006020601f8301049050919050565b600082821b905092915050565b6000600883026122097fffffffffffffffffffffffffffffffffffffffffffffffffffffffffffffffff826121cc565b61221386836121cc565b95508019841693508086168417925050509392505050565b6000819050919050565b600061225061224b61224684611b2e565b61222b565b611b2e565b9050919050565b6000819050919050565b61226a83612235565b61227e61227682612257565b8484546121d9565b825550505050565b600090565b612293612286565b61229e818484612261565b505050565b5b818110156122c2576122b760008261228b565b6001810190506122a4565b5050565b601f821115612307576122d8816121a7565b6122e1846121bc565b810160208510156122f0578190505b6123046122fc856121bc565b8301826122a3565b50505b505050565b600082821c905092915050565b600061232a6000198460080261230c565b1980831691505092915050565b60006123438383612319565b9150826002028217905092915050565b61235c82611a7c565b67ffffffffffffffff81111561237557612374611ce0565b5b61237f8254612080565b61238a8282856122c6565b600060209050601f8311600181146123bd57600084156123ab578287015190505b6123b58582612337565b86555061241d565b601f1984166123cb866121a7565b60005b828110156123f3578489015182556001820191506020850194506020810190506123ce565b86831015612410578489015161240c601f891682612319565b8355505b6001600288020188555050505b505050505050565b600061243182856120f3565b915061243d82846120f3565b91508190509392505050565b600081519050919050565b600082825260208201905092915050565b600061247082612449565b61247a8185612454565b935061248a818560208601611a98565b61249381611ac2565b840191505092915050565b60006080820190506124b36000830187611bc3565b6124c06020830186611bc3565b6124cd6040830185611c59565b81810360608301526124df8184612465565b905095945050505050565b6000815190506124f9816119ed565b92915050565b600060208284031215612515576125146119b7565b5b6000612523848285016124ea565b91505092915050565b7f4e487b7100000000000000000000000000000000000000000000000000000000600052601260045260246000fd5b60006040820190506125706000830185611bc3565b61257d6020830184611c59565b939250505056fea26469706673582212203096f8ee0fc6cb77abcaf0351d690123725f29132c1bcee448ee4e2d2a45195d64736f6c63430008140033",
  "linkReferences": {},
  "deployedLinkReferences": {}
}