{
  "_format": "hh-sol-artifact-1",
  "contractName": "NameWorld",
  "sourceName": "contracts/NameWorld.sol",
  "abi": [
    {
      "inputs": [
        {
          "internalType": "address",
          "name": "_NCAddress",
          "type": "address"
        },
        {
          "internalType": "address",
          "name": "_NNFTAddress",
          "type": "address"
        }
      ],
      "stateMutability": "nonpayable",
      "type": "constructor"
    },
    {
      "inputs": [],
      "name": "NC",
      "outputs": [
        {
          "internalType": "contract NameCoin",
          "name": "",
          "type": "address"
        }
      ],
      "stateMutability": "view",
      "type": "function"
    },
    {
      "inputs": [],
      "name": "NNFT",
      "outputs": [
        {
          "internalType": "contract NameNft",
          "name": "",
          "type": "address"
        }
      ],
      "stateMutability": "view",
      "type": "function"
    },
    {
      "inputs": [
        {
          "internalType": "uint256",
          "name": "",
          "type": "uint256"
        }
      ],
      "name": "allIdTokens",
      "outputs": [
        {
          "internalType": "uint256",
          "name": "",
          "type": "uint256"
        }
      ],
      "stateMutability": "view",
      "type": "function"
    },
    {
      "inputs": [
        {
          "internalType": "address",
          "name": "_address",
          "type": "address"
        }
      ],
      "name": "balanceNC",
      "outputs": [
        {
          "internalType": "uint256",
          "name": "balance",
          "type": "uint256"
        }
      ],
      "stateMutability": "view",
      "type": "function"
    },
    {
      "inputs": [
        {
          "internalType": "address",
          "name": "_address",
          "type": "address"
        }
      ],
      "name": "balanceNNFT",
      "outputs": [
        {
          "internalType": "uint256",
          "name": "balance",
          "type": "uint256"
        }
      ],
      "stateMutability": "view",
      "type": "function"
    },
    {
      "inputs": [],
      "name": "buyNC",
      "outputs": [],
      "stateMutability": "payable",
      "type": "function"
    },
    {
      "inputs": [
        {
          "internalType": "string",
          "name": "",
          "type": "string"
        }
      ],
      "name": "idForString",
      "outputs": [
        {
          "internalType": "uint256",
          "name": "",
          "type": "uint256"
        }
      ],
      "stateMutability": "view",
      "type": "function"
    },
    {
      "inputs": [
        {
          "internalType": "uint256",
          "name": "",
          "type": "uint256"
        }
      ],
      "name": "idNftMap",
      "outputs": [
        {
          "internalType": "string",
          "name": "name",
          "type": "string"
        }
      ],
      "stateMutability": "view",
      "type": "function"
    },
    {
      "inputs": [
        {
          "internalType": "uint256",
          "name": "_value",
          "type": "uint256"
        }
      ],
      "name": "mintNC",
      "outputs": [],
      "stateMutability": "nonpayable",
      "type": "function"
    },
    {
      "inputs": [
        {
          "internalType": "string",
          "name": "_name",
          "type": "string"
        }
      ],
      "name": "mintNNFT",
      "outputs": [],
      "stateMutability": "nonpayable",
      "type": "function"
    },
    {
      "inputs": [],
      "name": "owner",
      "outputs": [
        {
          "internalType": "address payable",
          "name": "",
          "type": "address"
        }
      ],
      "stateMutability": "view",
      "type": "function"
    },
    {
      "inputs": [
        {
          "internalType": "uint256",
          "name": "_value",
          "type": "uint256"
        }
      ],
      "name": "ownerNNFT",
      "outputs": [
        {
          "internalType": "address",
          "name": "_adr",
          "type": "address"
        }
      ],
      "stateMutability": "view",
      "type": "function"
    },
    {
      "inputs": [
        {
          "internalType": "address",
          "name": "_to",
          "type": "address"
        },
        {
          "internalType": "uint256",
          "name": "_tokenId",
          "type": "uint256"
        }
      ],
      "name": "safeTransferFrom",
      "outputs": [],
      "stateMutability": "nonpayable",
      "type": "function"
    },
    {
      "inputs": [
        {
          "internalType": "uint256",
          "name": "",
          "type": "uint256"
        }
      ],
      "name": "saleNFTMas",
      "outputs": [
        {
          "internalType": "uint256",
          "name": "",
          "type": "uint256"
        }
      ],
      "stateMutability": "view",
      "type": "function"
    },
    {
      "inputs": [
        {
          "internalType": "string",
          "name": "",
          "type": "string"
        }
      ],
      "name": "statusName",
      "outputs": [
        {
          "internalType": "bool",
          "name": "",
          "type": "bool"
        }
      ],
      "stateMutability": "view",
      "type": "function"
    },
    {
      "inputs": [
        {
          "internalType": "uint256",
          "name": "",
          "type": "uint256"
        }
      ],
      "name": "statusToSale",
      "outputs": [
        {
          "internalType": "bool",
          "name": "",
          "type": "bool"
        }
      ],
      "stateMutability": "view",
      "type": "function"
    },
    {
      "inputs": [],
      "name": "symbolNC",
      "outputs": [
        {
          "internalType": "string",
          "name": "symbol",
          "type": "string"
        }
      ],
      "stateMutability": "view",
      "type": "function"
    },
    {
      "inputs": [],
      "name": "symbolNFT",
      "outputs": [
        {
          "internalType": "string",
          "name": "symbol",
          "type": "string"
        }
      ],
      "stateMutability": "view",
      "type": "function"
    },
    {
      "inputs": [],
      "name": "totalSupplyNC",
      "outputs": [
        {
          "internalType": "uint256",
          "name": "total",
          "type": "uint256"
        }
      ],
      "stateMutability": "view",
      "type": "function"
    },
    {
      "inputs": [],
      "name": "totalSupplyNFT",
      "outputs": [
        {
          "internalType": "uint256",
          "name": "total",
          "type": "uint256"
        }
      ],
      "stateMutability": "view",
      "type": "function"
    },
    {
      "inputs": [
        {
          "internalType": "address",
          "name": "_to",
          "type": "address"
        },
        {
          "internalType": "uint256",
          "name": "_value",
          "type": "uint256"
        }
      ],
      "name": "transferNC",
      "outputs": [],
      "stateMutability": "nonpayable",
      "type": "function"
    },
    {
      "inputs": [
        {
          "internalType": "address",
          "name": "",
          "type": "address"
        },
        {
          "internalType": "uint256",
          "name": "",
          "type": "uint256"
        }
      ],
      "name": "userNft",
      "outputs": [
        {
          "internalType": "uint256",
          "name": "",
          "type": "uint256"
        }
      ],
      "stateMutability": "view",
      "type": "function"
    }
  ],
  "bytecode": "0x60806040523480156200001157600080fd5b5060405162002515380380620025158339818101604052810190620000379190620001fc565b816000806101000a81548173ffffffffffffffffffffffffffffffffffffffff021916908373ffffffffffffffffffffffffffffffffffffffff16021790555080600160006101000a81548173ffffffffffffffffffffffffffffffffffffffff021916908373ffffffffffffffffffffffffffffffffffffffff16021790555060008054906101000a900473ffffffffffffffffffffffffffffffffffffffff1673ffffffffffffffffffffffffffffffffffffffff16638da5cb5b6040518163ffffffff1660e01b8152600401602060405180830381865afa15801562000124573d6000803e3d6000fd5b505050506040513d601f19601f820116820180604052508101906200014a919062000288565b600260006101000a81548173ffffffffffffffffffffffffffffffffffffffff021916908373ffffffffffffffffffffffffffffffffffffffff1602179055505050620002ba565b600080fd5b600073ffffffffffffffffffffffffffffffffffffffff82169050919050565b6000620001c48262000197565b9050919050565b620001d681620001b7565b8114620001e257600080fd5b50565b600081519050620001f681620001cb565b92915050565b6000806040838503121562000216576200021562000192565b5b60006200022685828601620001e5565b92505060206200023985828601620001e5565b9150509250929050565b6000620002508262000197565b9050919050565b620002628162000243565b81146200026e57600080fd5b50565b600081519050620002828162000257565b92915050565b600060208284031215620002a157620002a062000192565b5b6000620002b18482850162000271565b91505092915050565b61224b80620002ca6000396000f3fe6080604052600436106101355760003560e01c80638da5cb5b116100ab578063a59b96821161006f578063a59b968214610453578063b0ea6a841461047e578063b7be8034146104a9578063bd014d5e146104e6578063cafde69a14610511578063ecc708e11461053a57610135565b80638da5cb5b1461036757806394eac4a5146103925780639897e50d146103cf578063a1948acf1461040c578063a36e50df1461044957610135565b80633bf11422116100fd5780633bf1142214610233578063551026bb146102705780637aa3977f146102995780637bce3d8b146102c25780638b663bc1146102ff5780638c5d2a6d1461032a57610135565b80630803a3e31461013a5780630935a539146101655780632106ada214610190578063277ed1e8146101cd578063348a9ffa146101f6575b600080fd5b34801561014657600080fd5b5061014f610577565b60405161015c9190611569565b60405180910390f35b34801561017157600080fd5b5061017a610614565b604051610187919061160a565b60405180910390f35b34801561019c57600080fd5b506101b760048036038101906101b2919061166f565b61063a565b6040516101c491906116bd565b60405180910390f35b3480156101d957600080fd5b506101f460048036038101906101ef9190611704565b6106df565b005b34801561020257600080fd5b5061021d60048036038101906102189190611744565b6109a8565b60405161022a9190611780565b60405180910390f35b34801561023f57600080fd5b5061025a600480360381019061025591906118d0565b6109f4565b6040516102679190611934565b60405180910390f35b34801561027c57600080fd5b5061029760048036038101906102929190611704565b610a2a565b005b3480156102a557600080fd5b506102c060048036038101906102bb91906118d0565b610abf565b005b3480156102ce57600080fd5b506102e960048036038101906102e49190611744565b610e94565b6040516102f69190611780565b60405180910390f35b34801561030b57600080fd5b50610314610f38565b6040516103219190611569565b60405180910390f35b34801561033657600080fd5b50610351600480360381019061034c919061166f565b610fd3565b60405161035e9190611569565b60405180910390f35b34801561037357600080fd5b5061037c611079565b6040516103899190611970565b60405180910390f35b34801561039e57600080fd5b506103b960048036038101906103b4919061166f565b61109f565b6040516103c69190611934565b60405180910390f35b3480156103db57600080fd5b506103f660048036038101906103f19190611704565b6110bf565b6040516104039190611780565b60405180910390f35b34801561041857600080fd5b50610433600480360381019061042e919061166f565b6110f0565b6040516104409190611780565b60405180910390f35b610451611114565b005b34801561045f57600080fd5b506104686112a1565b60405161047591906119ac565b60405180910390f35b34801561048a57600080fd5b506104936112c5565b6040516104a09190611780565b60405180910390f35b3480156104b557600080fd5b506104d060048036038101906104cb91906118d0565b6112d2565b6040516104dd9190611780565b60405180910390f35b3480156104f257600080fd5b506104fb611300565b6040516105089190611780565b60405180910390f35b34801561051d57600080fd5b506105386004803603810190610533919061166f565b611397565b005b34801561054657600080fd5b50610561600480360381019061055c919061166f565b6114b5565b60405161056e9190611780565b60405180910390f35b6060600160009054906101000a900473ffffffffffffffffffffffffffffffffffffffff1673ffffffffffffffffffffffffffffffffffffffff166395d89b416040518163ffffffff1660e01b8152600401600060405180830381865afa1580156105e6573d6000803e3d6000fd5b505050506040513d6000823e3d601f19601f8201168201806040525081019061060f9190611a37565b905090565b600160009054906101000a900473ffffffffffffffffffffffffffffffffffffffff1681565b6000600160009054906101000a900473ffffffffffffffffffffffffffffffffffffffff1673ffffffffffffffffffffffffffffffffffffffff16636352211e836040518263ffffffff1660e01b81526004016106979190611780565b602060405180830381865afa1580156106b4573d6000803e3d6000fd5b505050506040513d601f19601f820116820180604052508101906106d89190611a95565b9050919050565b60008054906101000a900473ffffffffffffffffffffffffffffffffffffffff1673ffffffffffffffffffffffffffffffffffffffff1663beabacc83384846040518463ffffffff1660e01b815260040161073c93929190611ac2565b600060405180830381600087803b15801561075657600080fd5b505af115801561076a573d6000803e3d6000fd5b5050505060005b600960003373ffffffffffffffffffffffffffffffffffffffff1673ffffffffffffffffffffffffffffffffffffffff168152602001908152602001600020805490508110156109a35781600960003373ffffffffffffffffffffffffffffffffffffffff1673ffffffffffffffffffffffffffffffffffffffff168152602001908152602001600020828154811061080d5761080c611af9565b5b90600052602060002001540361099057600960003373ffffffffffffffffffffffffffffffffffffffff1673ffffffffffffffffffffffffffffffffffffffff1681526020019081526020016000206001600960003373ffffffffffffffffffffffffffffffffffffffff1673ffffffffffffffffffffffffffffffffffffffff168152602001908152602001600020805490506108ab9190611b57565b815481106108bc576108bb611af9565b5b9060005260206000200154600960003373ffffffffffffffffffffffffffffffffffffffff1673ffffffffffffffffffffffffffffffffffffffff168152602001908152602001600020828154811061091857610917611af9565b5b9060005260206000200181905550600960003373ffffffffffffffffffffffffffffffffffffffff1673ffffffffffffffffffffffffffffffffffffffff16815260200190815260200160002080548061097557610974611b8b565b5b600190038181906000526020600020016000905590556109a3565b808061099b90611bba565b915050610771565b505050565b6000600960008373ffffffffffffffffffffffffffffffffffffffff1673ffffffffffffffffffffffffffffffffffffffff168152602001908152602001600020805490509050919050565b6008818051602081018201805184825260208301602085012081835280955050505050506000915054906101000a900460ff1681565b600160009054906101000a900473ffffffffffffffffffffffffffffffffffffffff1673ffffffffffffffffffffffffffffffffffffffff166342842e0e3384846040518463ffffffff1660e01b8152600401610a8993929190611ac2565b600060405180830381600087803b158015610aa357600080fd5b505af1158015610ab7573d6000803e3d6000fd5b505050505050565b60001515600882604051610ad39190611c3e565b908152602001604051809103902060009054906101000a900460ff16151514610b31576040517f08c379a0000000000000000000000000000000000000000000000000000000008152600401610b2890611ca1565b60405180910390fd5b6064610b3c33610e94565b1015610b7d576040517f08c379a0000000000000000000000000000000000000000000000000000000008152600401610b7490611d0d565b60405180910390fd5b6001600882604051610b8f9190611c3e565b908152602001604051809103902060006101000a81548160ff021916908315150217905550600260009054906101000a900473ffffffffffffffffffffffffffffffffffffffff1673ffffffffffffffffffffffffffffffffffffffff163373ffffffffffffffffffffffffffffffffffffffff1603610ca057600160009054906101000a900473ffffffffffffffffffffffffffffffffffffffff1673ffffffffffffffffffffffffffffffffffffffff1663a0712d686003805490506040518263ffffffff1660e01b8152600401610c699190611780565b600060405180830381600087803b158015610c8357600080fd5b505af1158015610c97573d6000803e3d6000fd5b50505050610d60565b610ccd600260009054906101000a900473ffffffffffffffffffffffffffffffffffffffff1660646106df565b600160009054906101000a900473ffffffffffffffffffffffffffffffffffffffff1673ffffffffffffffffffffffffffffffffffffffff1663a0712d686003805490506040518263ffffffff1660e01b8152600401610d2d9190611780565b600060405180830381600087803b158015610d4757600080fd5b505af1158015610d5b573d6000803e3d6000fd5b505050505b600380549050600782604051610d769190611c3e565b908152602001604051809103902081905550600060066000600380549050815260200190815260200160002060006101000a81548160ff0219169083151502179055506040518060200160405280828152506005600060038054905081526020019081526020016000206000820151816000019081610df59190611f2f565b50905050600960003373ffffffffffffffffffffffffffffffffffffffff1673ffffffffffffffffffffffffffffffffffffffff168152602001908152602001600020600380549050908060018154018082558091505060019003906000526020600020016000909190919091505560038080549050908060018154018082558091505060019003906000526020600020016000909190919091505550565b60008060009054906101000a900473ffffffffffffffffffffffffffffffffffffffff1673ffffffffffffffffffffffffffffffffffffffff166370a08231836040518263ffffffff1660e01b8152600401610ef091906116bd565b602060405180830381865afa158015610f0d573d6000803e3d6000fd5b505050506040513d601f19601f82011682018060405250810190610f319190612016565b9050919050565b606060008054906101000a900473ffffffffffffffffffffffffffffffffffffffff1673ffffffffffffffffffffffffffffffffffffffff166395d89b416040518163ffffffff1660e01b8152600401600060405180830381865afa158015610fa5573d6000803e3d6000fd5b505050506040513d6000823e3d601f19601f82011682018060405250810190610fce9190611a37565b905090565b6005602052806000526040600020600091509050806000018054610ff690611d5c565b80601f016020809104026020016040519081016040528092919081815260200182805461102290611d5c565b801561106f5780601f106110445761010080835404028352916020019161106f565b820191906000526020600020905b81548152906001019060200180831161105257829003601f168201915b5050505050905081565b600260009054906101000a900473ffffffffffffffffffffffffffffffffffffffff1681565b60066020528060005260406000206000915054906101000a900460ff1681565b600960205281600052604060002081815481106110db57600080fd5b90600052602060002001600091509150505481565b6004818154811061110057600080fd5b906000526020600020016000915090505481565b670de0b6b3a764000034101561115f576040517f08c379a00000000000000000000000000000000000000000000000000000000081526004016111569061208f565b60405180910390fd5b60006103e8670de0b6b3a76400003461117891906120de565b611182919061210f565b9050600260009054906101000a900473ffffffffffffffffffffffffffffffffffffffff1673ffffffffffffffffffffffffffffffffffffffff166108fc349081150290604051600060405180830381858888f193505050501580156111ec573d6000803e3d6000fd5b5060008054906101000a900473ffffffffffffffffffffffffffffffffffffffff1673ffffffffffffffffffffffffffffffffffffffff1663beabacc8600260009054906101000a900473ffffffffffffffffffffffffffffffffffffffff1633846040518463ffffffff1660e01b815260040161126c93929190612172565b600060405180830381600087803b15801561128657600080fd5b505af115801561129a573d6000803e3d6000fd5b5050505050565b60008054906101000a900473ffffffffffffffffffffffffffffffffffffffff1681565b6000600380549050905090565b6007818051602081018201805184825260208301602085012081835280955050505050506000915090505481565b60008060009054906101000a900473ffffffffffffffffffffffffffffffffffffffff1673ffffffffffffffffffffffffffffffffffffffff166318160ddd6040518163ffffffff1660e01b8152600401602060405180830381865afa15801561136e573d6000803e3d6000fd5b505050506040513d601f19601f820116820180604052508101906113929190612016565b905090565b600260009054906101000a900473ffffffffffffffffffffffffffffffffffffffff1673ffffffffffffffffffffffffffffffffffffffff163373ffffffffffffffffffffffffffffffffffffffff1614611427576040517f08c379a000000000000000000000000000000000000000000000000000000000815260040161141e906121f5565b60405180910390fd5b60008054906101000a900473ffffffffffffffffffffffffffffffffffffffff1673ffffffffffffffffffffffffffffffffffffffff1663a0712d68826040518263ffffffff1660e01b81526004016114809190611780565b600060405180830381600087803b15801561149a57600080fd5b505af11580156114ae573d6000803e3d6000fd5b5050505050565b600381815481106114c557600080fd5b906000526020600020016000915090505481565b600081519050919050565b600082825260208201905092915050565b60005b838110156115135780820151818401526020810190506114f8565b60008484015250505050565b6000601f19601f8301169050919050565b600061153b826114d9565b61154581856114e4565b93506115558185602086016114f5565b61155e8161151f565b840191505092915050565b600060208201905081810360008301526115838184611530565b905092915050565b600073ffffffffffffffffffffffffffffffffffffffff82169050919050565b6000819050919050565b60006115d06115cb6115c68461158b565b6115ab565b61158b565b9050919050565b60006115e2826115b5565b9050919050565b60006115f4826115d7565b9050919050565b611604816115e9565b82525050565b600060208201905061161f60008301846115fb565b92915050565b6000604051905090565b600080fd5b600080fd5b6000819050919050565b61164c81611639565b811461165757600080fd5b50565b60008135905061166981611643565b92915050565b6000602082840312156116855761168461162f565b5b60006116938482850161165a565b91505092915050565b60006116a78261158b565b9050919050565b6116b78161169c565b82525050565b60006020820190506116d260008301846116ae565b92915050565b6116e18161169c565b81146116ec57600080fd5b50565b6000813590506116fe816116d8565b92915050565b6000806040838503121561171b5761171a61162f565b5b6000611729858286016116ef565b925050602061173a8582860161165a565b9150509250929050565b60006020828403121561175a5761175961162f565b5b6000611768848285016116ef565b91505092915050565b61177a81611639565b82525050565b60006020820190506117956000830184611771565b92915050565b600080fd5b600080fd5b7f4e487b7100000000000000000000000000000000000000000000000000000000600052604160045260246000fd5b6117dd8261151f565b810181811067ffffffffffffffff821117156117fc576117fb6117a5565b5b80604052505050565b600061180f611625565b905061181b82826117d4565b919050565b600067ffffffffffffffff82111561183b5761183a6117a5565b5b6118448261151f565b9050602081019050919050565b82818337600083830152505050565b600061187361186e84611820565b611805565b90508281526020810184848401111561188f5761188e6117a0565b5b61189a848285611851565b509392505050565b600082601f8301126118b7576118b661179b565b5b81356118c7848260208601611860565b91505092915050565b6000602082840312156118e6576118e561162f565b5b600082013567ffffffffffffffff81111561190457611903611634565b5b611910848285016118a2565b91505092915050565b60008115159050919050565b61192e81611919565b82525050565b60006020820190506119496000830184611925565b92915050565b600061195a8261158b565b9050919050565b61196a8161194f565b82525050565b60006020820190506119856000830184611961565b92915050565b6000611996826115d7565b9050919050565b6119a68161198b565b82525050565b60006020820190506119c1600083018461199d565b92915050565b60006119da6119d584611820565b611805565b9050828152602081018484840111156119f6576119f56117a0565b5b611a018482856114f5565b509392505050565b600082601f830112611a1e57611a1d61179b565b5b8151611a2e8482602086016119c7565b91505092915050565b600060208284031215611a4d57611a4c61162f565b5b600082015167ffffffffffffffff811115611a6b57611a6a611634565b5b611a7784828501611a09565b91505092915050565b600081519050611a8f816116d8565b92915050565b600060208284031215611aab57611aaa61162f565b5b6000611ab984828501611a80565b91505092915050565b6000606082019050611ad760008301866116ae565b611ae460208301856116ae565b611af16040830184611771565b949350505050565b7f4e487b7100000000000000000000000000000000000000000000000000000000600052603260045260246000fd5b7f4e487b7100000000000000000000000000000000000000000000000000000000600052601160045260246000fd5b6000611b6282611639565b9150611b6d83611639565b9250828203905081811115611b8557611b84611b28565b5b92915050565b7f4e487b7100000000000000000000000000000000000000000000000000000000600052603160045260246000fd5b6000611bc582611639565b91507fffffffffffffffffffffffffffffffffffffffffffffffffffffffffffffffff8203611bf757611bf6611b28565b5b600182019050919050565b600081905092915050565b6000611c18826114d9565b611c228185611c02565b9350611c328185602086016114f5565b80840191505092915050565b6000611c4a8284611c0d565b915081905092915050565b7f74686973206e616d6520616c7265616479207573656400000000000000000000600082015250565b6000611c8b6016836114e4565b9150611c9682611c55565b602082019050919050565b60006020820190508181036000830152611cba81611c7e565b9050919050565b7f796f7572204e43203c2031303000000000000000000000000000000000000000600082015250565b6000611cf7600d836114e4565b9150611d0282611cc1565b602082019050919050565b60006020820190508181036000830152611d2681611cea565b9050919050565b7f4e487b7100000000000000000000000000000000000000000000000000000000600052602260045260246000fd5b60006002820490506001821680611d7457607f821691505b602082108103611d8757611d86611d2d565b5b50919050565b60008190508160005260206000209050919050565b60006020601f8301049050919050565b600082821b905092915050565b600060088302611def7fffffffffffffffffffffffffffffffffffffffffffffffffffffffffffffffff82611db2565b611df98683611db2565b95508019841693508086168417925050509392505050565b6000611e2c611e27611e2284611639565b6115ab565b611639565b9050919050565b6000819050919050565b611e4683611e11565b611e5a611e5282611e33565b848454611dbf565b825550505050565b600090565b611e6f611e62565b611e7a818484611e3d565b505050565b5b81811015611e9e57611e93600082611e67565b600181019050611e80565b5050565b601f821115611ee357611eb481611d8d565b611ebd84611da2565b81016020851015611ecc578190505b611ee0611ed885611da2565b830182611e7f565b50505b505050565b600082821c905092915050565b6000611f0660001984600802611ee8565b1980831691505092915050565b6000611f1f8383611ef5565b9150826002028217905092915050565b611f38826114d9565b67ffffffffffffffff811115611f5157611f506117a5565b5b611f5b8254611d5c565b611f66828285611ea2565b600060209050601f831160018114611f995760008415611f87578287015190505b611f918582611f13565b865550611ff9565b601f198416611fa786611d8d565b60005b82811015611fcf57848901518255600182019150602085019450602081019050611faa565b86831015611fec5784890151611fe8601f891682611ef5565b8355505b6001600288020188555050505b505050505050565b60008151905061201081611643565b92915050565b60006020828403121561202c5761202b61162f565b5b600061203a84828501612001565b91505092915050565b7f496e73756666696369656e742045746865722073656e74000000000000000000600082015250565b60006120796017836114e4565b915061208482612043565b602082019050919050565b600060208201905081810360008301526120a88161206c565b9050919050565b7f4e487b7100000000000000000000000000000000000000000000000000000000600052601260045260246000fd5b60006120e982611639565b91506120f483611639565b925082612104576121036120af565b5b828204905092915050565b600061211a82611639565b915061212583611639565b925082820261213381611639565b9150828204841483151761214a57612149611b28565b5b5092915050565b600061215c826115d7565b9050919050565b61216c81612151565b82525050565b60006060820190506121876000830186612163565b61219460208301856116ae565b6121a16040830184611771565b949350505050565b7f796f75206e6f74206f776e657240210000000000000000000000000000000000600082015250565b60006121df600f836114e4565b91506121ea826121a9565b602082019050919050565b6000602082019050818103600083015261220e816121d2565b905091905056fea2646970667358221220e49400a502f6888f4f64f948ba5a5a7b6f5b8f20847b7f653fdbd2616858ae2964736f6c63430008140033",
  "linkReferences": {},
  "deployedLinkReferences": {}
}