{
  "_format": "hh-sol-artifact-1",
  "contractName": "NameWorld",
  "sourceName": "contracts/NameWorld.sol",
  "abi": [
    {
      "inputs": [],
      "stateMutability": "nonpayable",
      "type": "constructor"
    },
    {
      "inputs": [
        {
          "internalType": "address",
          "name": "sender",
          "type": "address"
        },
        {
          "internalType": "uint256",
          "name": "tokenId",
          "type": "uint256"
        },
        {
          "internalType": "address",
          "name": "owner",
          "type": "address"
        }
      ],
      "name": "ERC721IncorrectOwner",
      "type": "error"
    },
    {
      "inputs": [
        {
          "internalType": "address",
          "name": "operator",
          "type": "address"
        },
        {
          "internalType": "uint256",
          "name": "tokenId",
          "type": "uint256"
        }
      ],
      "name": "ERC721InsufficientApproval",
      "type": "error"
    },
    {
      "inputs": [
        {
          "internalType": "address",
          "name": "approver",
          "type": "address"
        }
      ],
      "name": "ERC721InvalidApprover",
      "type": "error"
    },
    {
      "inputs": [
        {
          "internalType": "address",
          "name": "operator",
          "type": "address"
        }
      ],
      "name": "ERC721InvalidOperator",
      "type": "error"
    },
    {
      "inputs": [
        {
          "internalType": "address",
          "name": "owner",
          "type": "address"
        }
      ],
      "name": "ERC721InvalidOwner",
      "type": "error"
    },
    {
      "inputs": [
        {
          "internalType": "address",
          "name": "receiver",
          "type": "address"
        }
      ],
      "name": "ERC721InvalidReceiver",
      "type": "error"
    },
    {
      "inputs": [
        {
          "internalType": "address",
          "name": "sender",
          "type": "address"
        }
      ],
      "name": "ERC721InvalidSender",
      "type": "error"
    },
    {
      "inputs": [
        {
          "internalType": "uint256",
          "name": "tokenId",
          "type": "uint256"
        }
      ],
      "name": "ERC721NonexistentToken",
      "type": "error"
    },
    {
      "anonymous": false,
      "inputs": [
        {
          "indexed": true,
          "internalType": "address",
          "name": "owner",
          "type": "address"
        },
        {
          "indexed": true,
          "internalType": "address",
          "name": "approved",
          "type": "address"
        },
        {
          "indexed": true,
          "internalType": "uint256",
          "name": "tokenId",
          "type": "uint256"
        }
      ],
      "name": "Approval",
      "type": "event"
    },
    {
      "anonymous": false,
      "inputs": [
        {
          "indexed": true,
          "internalType": "address",
          "name": "owner",
          "type": "address"
        },
        {
          "indexed": true,
          "internalType": "address",
          "name": "operator",
          "type": "address"
        },
        {
          "indexed": false,
          "internalType": "bool",
          "name": "approved",
          "type": "bool"
        }
      ],
      "name": "ApprovalForAll",
      "type": "event"
    },
    {
      "anonymous": false,
      "inputs": [
        {
          "indexed": true,
          "internalType": "address",
          "name": "from",
          "type": "address"
        },
        {
          "indexed": true,
          "internalType": "address",
          "name": "to",
          "type": "address"
        },
        {
          "indexed": true,
          "internalType": "uint256",
          "name": "tokenId",
          "type": "uint256"
        }
      ],
      "name": "Transfer",
      "type": "event"
    },
    {
      "inputs": [
        {
          "internalType": "uint256",
          "name": "",
          "type": "uint256"
        }
      ],
      "name": "allIdTokens",
      "outputs": [
        {
          "internalType": "uint256",
          "name": "",
          "type": "uint256"
        }
      ],
      "stateMutability": "view",
      "type": "function"
    },
    {
      "inputs": [
        {
          "internalType": "address",
          "name": "to",
          "type": "address"
        },
        {
          "internalType": "uint256",
          "name": "tokenId",
          "type": "uint256"
        }
      ],
      "name": "approve",
      "outputs": [],
      "stateMutability": "nonpayable",
      "type": "function"
    },
    {
      "inputs": [
        {
          "internalType": "address",
          "name": "owner",
          "type": "address"
        }
      ],
      "name": "balanceOf",
      "outputs": [
        {
          "internalType": "uint256",
          "name": "",
          "type": "uint256"
        }
      ],
      "stateMutability": "view",
      "type": "function"
    },
    {
      "inputs": [
        {
          "internalType": "uint256",
          "name": "tokenId",
          "type": "uint256"
        }
      ],
      "name": "getApproved",
      "outputs": [
        {
          "internalType": "address",
          "name": "",
          "type": "address"
        }
      ],
      "stateMutability": "view",
      "type": "function"
    },
    {
      "inputs": [
        {
          "internalType": "uint256",
          "name": "",
          "type": "uint256"
        }
      ],
      "name": "idNftMap",
      "outputs": [
        {
          "internalType": "string",
          "name": "name",
          "type": "string"
        }
      ],
      "stateMutability": "view",
      "type": "function"
    },
    {
      "inputs": [
        {
          "internalType": "address",
          "name": "owner",
          "type": "address"
        },
        {
          "internalType": "address",
          "name": "operator",
          "type": "address"
        }
      ],
      "name": "isApprovedForAll",
      "outputs": [
        {
          "internalType": "bool",
          "name": "",
          "type": "bool"
        }
      ],
      "stateMutability": "view",
      "type": "function"
    },
    {
      "inputs": [
        {
          "internalType": "string",
          "name": "_name",
          "type": "string"
        }
      ],
      "name": "mintToken",
      "outputs": [],
      "stateMutability": "nonpayable",
      "type": "function"
    },
    {
      "inputs": [],
      "name": "name",
      "outputs": [
        {
          "internalType": "string",
          "name": "",
          "type": "string"
        }
      ],
      "stateMutability": "view",
      "type": "function"
    },
    {
      "inputs": [
        {
          "internalType": "uint256",
          "name": "tokenId",
          "type": "uint256"
        }
      ],
      "name": "ownerOf",
      "outputs": [
        {
          "internalType": "address",
          "name": "",
          "type": "address"
        }
      ],
      "stateMutability": "view",
      "type": "function"
    },
    {
      "inputs": [
        {
          "internalType": "address",
          "name": "from",
          "type": "address"
        },
        {
          "internalType": "address",
          "name": "to",
          "type": "address"
        },
        {
          "internalType": "uint256",
          "name": "tokenId",
          "type": "uint256"
        }
      ],
      "name": "safeTransferFrom",
      "outputs": [],
      "stateMutability": "nonpayable",
      "type": "function"
    },
    {
      "inputs": [
        {
          "internalType": "address",
          "name": "from",
          "type": "address"
        },
        {
          "internalType": "address",
          "name": "to",
          "type": "address"
        },
        {
          "internalType": "uint256",
          "name": "tokenId",
          "type": "uint256"
        },
        {
          "internalType": "bytes",
          "name": "data",
          "type": "bytes"
        }
      ],
      "name": "safeTransferFrom",
      "outputs": [],
      "stateMutability": "nonpayable",
      "type": "function"
    },
    {
      "inputs": [
        {
          "internalType": "address",
          "name": "operator",
          "type": "address"
        },
        {
          "internalType": "bool",
          "name": "approved",
          "type": "bool"
        }
      ],
      "name": "setApprovalForAll",
      "outputs": [],
      "stateMutability": "nonpayable",
      "type": "function"
    },
    {
      "inputs": [
        {
          "internalType": "string",
          "name": "",
          "type": "string"
        }
      ],
      "name": "statusName",
      "outputs": [
        {
          "internalType": "bool",
          "name": "",
          "type": "bool"
        }
      ],
      "stateMutability": "view",
      "type": "function"
    },
    {
      "inputs": [
        {
          "internalType": "uint256",
          "name": "",
          "type": "uint256"
        }
      ],
      "name": "statusToSale",
      "outputs": [
        {
          "internalType": "bool",
          "name": "",
          "type": "bool"
        }
      ],
      "stateMutability": "view",
      "type": "function"
    },
    {
      "inputs": [
        {
          "internalType": "bytes4",
          "name": "interfaceId",
          "type": "bytes4"
        }
      ],
      "name": "supportsInterface",
      "outputs": [
        {
          "internalType": "bool",
          "name": "",
          "type": "bool"
        }
      ],
      "stateMutability": "view",
      "type": "function"
    },
    {
      "inputs": [],
      "name": "symbol",
      "outputs": [
        {
          "internalType": "string",
          "name": "",
          "type": "string"
        }
      ],
      "stateMutability": "view",
      "type": "function"
    },
    {
      "inputs": [
        {
          "internalType": "uint256",
          "name": "tokenId",
          "type": "uint256"
        }
      ],
      "name": "tokenURI",
      "outputs": [
        {
          "internalType": "string",
          "name": "",
          "type": "string"
        }
      ],
      "stateMutability": "view",
      "type": "function"
    },
    {
      "inputs": [
        {
          "internalType": "address",
          "name": "from",
          "type": "address"
        },
        {
          "internalType": "address",
          "name": "to",
          "type": "address"
        },
        {
          "internalType": "uint256",
          "name": "tokenId",
          "type": "uint256"
        }
      ],
      "name": "transferFrom",
      "outputs": [],
      "stateMutability": "nonpayable",
      "type": "function"
    },
    {
      "inputs": [
        {
          "internalType": "address",
          "name": "",
          "type": "address"
        },
        {
          "internalType": "uint256",
          "name": "",
          "type": "uint256"
        }
      ],
      "name": "userNft",
      "outputs": [
        {
          "internalType": "uint256",
          "name": "",
          "type": "uint256"
        }
      ],
      "stateMutability": "view",
      "type": "function"
    }
  ],
  "bytecode": "0x60806040523480156200001157600080fd5b506040518060400160405280600781526020017f4e616d654e4654000000000000000000000000000000000000000000000000008152506040518060400160405280600381526020017f4e4654000000000000000000000000000000000000000000000000000000000081525081600090816200008f919062000365565b508060019081620000a1919062000365565b50505033600660006101000a81548173ffffffffffffffffffffffffffffffffffffffff021916908373ffffffffffffffffffffffffffffffffffffffff1602179055506200044c565b600081519050919050565b7f4e487b7100000000000000000000000000000000000000000000000000000000600052604160045260246000fd5b7f4e487b7100000000000000000000000000000000000000000000000000000000600052602260045260246000fd5b600060028204905060018216806200016d57607f821691505b60208210810362000183576200018262000125565b5b50919050565b60008190508160005260206000209050919050565b60006020601f8301049050919050565b600082821b905092915050565b600060088302620001ed7fffffffffffffffffffffffffffffffffffffffffffffffffffffffffffffffff82620001ae565b620001f98683620001ae565b95508019841693508086168417925050509392505050565b6000819050919050565b6000819050919050565b600062000246620002406200023a8462000211565b6200021b565b62000211565b9050919050565b6000819050919050565b620002628362000225565b6200027a62000271826200024d565b848454620001bb565b825550505050565b600090565b6200029162000282565b6200029e81848462000257565b505050565b5b81811015620002c657620002ba60008262000287565b600181019050620002a4565b5050565b601f8211156200031557620002df8162000189565b620002ea846200019e565b81016020851015620002fa578190505b6200031262000309856200019e565b830182620002a3565b50505b505050565b600082821c905092915050565b60006200033a600019846008026200031a565b1980831691505092915050565b600062000355838362000327565b9150826002028217905092915050565b6200037082620000eb565b67ffffffffffffffff8111156200038c576200038b620000f6565b5b62000398825462000154565b620003a5828285620002ca565b600060209050601f831160018114620003dd5760008415620003c8578287015190505b620003d4858262000347565b86555062000444565b601f198416620003ed8662000189565b60005b828110156200041757848901518255600182019150602085019450602081019050620003f0565b8683101562000437578489015162000433601f89168262000327565b8355505b6001600288020188555050505b505050505050565b6125a2806200045c6000396000f3fe608060405234801561001057600080fd5b50600436106101215760003560e01c806370a08231116100ad578063a22cb46511610071578063a22cb46514610352578063b88d4fde1461036e578063c87b56dd1461038a578063e985e9c5146103ba578063ecc708e1146103ea57610121565b806370a08231146102745780638c5d2a6d146102a457806394eac4a5146102d457806395d89b41146103045780639897e50d1461032257610121565b806323b872dd116100f457806323b872dd146101c057806333eba49a146101dc5780633bf11422146101f857806342842e0e146102285780636352211e1461024457610121565b806301ffc9a71461012657806306fdde0314610156578063081812fc14610174578063095ea7b3146101a4575b600080fd5b610140600480360381019061013b9190611a01565b61041a565b60405161014d9190611a49565b60405180910390f35b61015e6104fc565b60405161016b9190611af4565b60405180910390f35b61018e60048036038101906101899190611b4c565b61058e565b60405161019b9190611bba565b60405180910390f35b6101be60048036038101906101b99190611c01565b6105aa565b005b6101da60048036038101906101d59190611c41565b6105c0565b005b6101f660048036038101906101f19190611dc9565b6106c2565b005b610212600480360381019061020d9190611dc9565b610855565b60405161021f9190611a49565b60405180910390f35b610242600480360381019061023d9190611c41565b61088b565b005b61025e60048036038101906102599190611b4c565b6108ab565b60405161026b9190611bba565b60405180910390f35b61028e60048036038101906102899190611e12565b6108bd565b60405161029b9190611e4e565b60405180910390f35b6102be60048036038101906102b99190611b4c565b610977565b6040516102cb9190611af4565b60405180910390f35b6102ee60048036038101906102e99190611b4c565b610a1d565b6040516102fb9190611a49565b60405180910390f35b61030c610a3d565b6040516103199190611af4565b60405180910390f35b61033c60048036038101906103379190611c01565b610acf565b6040516103499190611e4e565b60405180910390f35b61036c60048036038101906103679190611e95565b610b00565b005b61038860048036038101906103839190611f76565b610b16565b005b6103a4600480360381019061039f9190611b4c565b610b33565b6040516103b19190611af4565b60405180910390f35b6103d460048036038101906103cf9190611ff9565b610b9c565b6040516103e19190611a49565b60405180910390f35b61040460048036038101906103ff9190611b4c565b610c30565b6040516104119190611e4e565b60405180910390f35b60007f80ac58cd000000000000000000000000000000000000000000000000000000007bffffffffffffffffffffffffffffffffffffffffffffffffffffffff1916827bffffffffffffffffffffffffffffffffffffffffffffffffffffffff191614806104e557507f5b5e139f000000000000000000000000000000000000000000000000000000007bffffffffffffffffffffffffffffffffffffffffffffffffffffffff1916827bffffffffffffffffffffffffffffffffffffffffffffffffffffffff1916145b806104f557506104f482610c54565b5b9050919050565b60606000805461050b90612068565b80601f016020809104026020016040519081016040528092919081815260200182805461053790612068565b80156105845780601f1061055957610100808354040283529160200191610584565b820191906000526020600020905b81548152906001019060200180831161056757829003601f168201915b5050505050905090565b600061059982610cbe565b506105a382610d46565b9050919050565b6105bc82826105b7610d83565b610d8b565b5050565b600073ffffffffffffffffffffffffffffffffffffffff168273ffffffffffffffffffffffffffffffffffffffff16036106325760006040517f64a0ae920000000000000000000000000000000000000000000000000000000081526004016106299190611bba565b60405180910390fd5b60006106468383610641610d83565b610d9d565b90508373ffffffffffffffffffffffffffffffffffffffff168173ffffffffffffffffffffffffffffffffffffffff16146106bc578382826040517f64283d7b0000000000000000000000000000000000000000000000000000000081526004016106b393929190612099565b60405180910390fd5b50505050565b60001515600a826040516106d6919061210c565b908152602001604051809103902060009054906101000a900460ff16151514610734576040517f08c379a000000000000000000000000000000000000000000000000000000000815260040161072b9061216f565b60405180910390fd5b600b60003373ffffffffffffffffffffffffffffffffffffffff1673ffffffffffffffffffffffffffffffffffffffff168152602001908152602001600020600780549050908060018154018082558091505060019003906000526020600020016000909190919091505560405180602001604052808281525060086000600780549050815260200190815260200160002060008201518160000190816107db919061233b565b509050506001600a826040516107f1919061210c565b908152602001604051809103902060006101000a81548160ff02191690831515021790555061082533600780549050610fb7565b60078080549050908060018154018082558091505060019003906000526020600020016000909190919091505550565b600a818051602081018201805184825260208301602085012081835280955050505050506000915054906101000a900460ff1681565b6108a683838360405180602001604052806000815250610b16565b505050565b60006108b682610cbe565b9050919050565b60008073ffffffffffffffffffffffffffffffffffffffff168273ffffffffffffffffffffffffffffffffffffffff16036109305760006040517f89c62b640000000000000000000000000000000000000000000000000000000081526004016109279190611bba565b60405180910390fd5b600360008373ffffffffffffffffffffffffffffffffffffffff1673ffffffffffffffffffffffffffffffffffffffff168152602001908152602001600020549050919050565b600860205280600052604060002060009150905080600001805461099a90612068565b80601f01602080910402602001604051908101604052809291908181526020018280546109c690612068565b8015610a135780601f106109e857610100808354040283529160200191610a13565b820191906000526020600020905b8154815290600101906020018083116109f657829003601f168201915b5050505050905081565b60096020528060005260406000206000915054906101000a900460ff1681565b606060018054610a4c90612068565b80601f0160208091040260200160405190810160405280929190818152602001828054610a7890612068565b8015610ac55780601f10610a9a57610100808354040283529160200191610ac5565b820191906000526020600020905b815481529060010190602001808311610aa857829003601f168201915b5050505050905090565b600b6020528160005260406000208181548110610aeb57600080fd5b90600052602060002001600091509150505481565b610b12610b0b610d83565b83836110b0565b5050565b610b218484846105c0565b610b2d8484848461121f565b50505050565b6060610b3e82610cbe565b506000610b496113d6565b90506000815111610b695760405180602001604052806000815250610b94565b80610b73846113ed565b604051602001610b8492919061240d565b6040516020818303038152906040525b915050919050565b6000600560008473ffffffffffffffffffffffffffffffffffffffff1673ffffffffffffffffffffffffffffffffffffffff16815260200190815260200160002060008373ffffffffffffffffffffffffffffffffffffffff1673ffffffffffffffffffffffffffffffffffffffff16815260200190815260200160002060009054906101000a900460ff16905092915050565b60078181548110610c4057600080fd5b906000526020600020016000915090505481565b60007f01ffc9a7000000000000000000000000000000000000000000000000000000007bffffffffffffffffffffffffffffffffffffffffffffffffffffffff1916827bffffffffffffffffffffffffffffffffffffffffffffffffffffffff1916149050919050565b600080610cca836114bb565b9050600073ffffffffffffffffffffffffffffffffffffffff168173ffffffffffffffffffffffffffffffffffffffff1603610d3d57826040517f7e273289000000000000000000000000000000000000000000000000000000008152600401610d349190611e4e565b60405180910390fd5b80915050919050565b60006004600083815260200190815260200160002060009054906101000a900473ffffffffffffffffffffffffffffffffffffffff169050919050565b600033905090565b610d9883838360016114f8565b505050565b600080610da9846114bb565b9050600073ffffffffffffffffffffffffffffffffffffffff168373ffffffffffffffffffffffffffffffffffffffff1614610deb57610dea8184866116bd565b5b600073ffffffffffffffffffffffffffffffffffffffff168173ffffffffffffffffffffffffffffffffffffffff1614610e7c57610e2d6000856000806114f8565b6001600360008373ffffffffffffffffffffffffffffffffffffffff1673ffffffffffffffffffffffffffffffffffffffff168152602001908152602001600020600082825403925050819055505b600073ffffffffffffffffffffffffffffffffffffffff168573ffffffffffffffffffffffffffffffffffffffff1614610eff576001600360008773ffffffffffffffffffffffffffffffffffffffff1673ffffffffffffffffffffffffffffffffffffffff168152602001908152602001600020600082825401925050819055505b846002600086815260200190815260200160002060006101000a81548173ffffffffffffffffffffffffffffffffffffffff021916908373ffffffffffffffffffffffffffffffffffffffff160217905550838573ffffffffffffffffffffffffffffffffffffffff168273ffffffffffffffffffffffffffffffffffffffff167fddf252ad1be2c89b69c2b068fc378daa952ba7f163c4a11628f55a4df523b3ef60405160405180910390a4809150509392505050565b600073ffffffffffffffffffffffffffffffffffffffff168273ffffffffffffffffffffffffffffffffffffffff16036110295760006040517f64a0ae920000000000000000000000000000000000000000000000000000000081526004016110209190611bba565b60405180910390fd5b600061103783836000610d9d565b9050600073ffffffffffffffffffffffffffffffffffffffff168173ffffffffffffffffffffffffffffffffffffffff16146110ab5760006040517f73c6ac6e0000000000000000000000000000000000000000000000000000000081526004016110a29190611bba565b60405180910390fd5b505050565b600073ffffffffffffffffffffffffffffffffffffffff168273ffffffffffffffffffffffffffffffffffffffff160361112157816040517f5b08ba180000000000000000000000000000000000000000000000000000000081526004016111189190611bba565b60405180910390fd5b80600560008573ffffffffffffffffffffffffffffffffffffffff1673ffffffffffffffffffffffffffffffffffffffff16815260200190815260200160002060008473ffffffffffffffffffffffffffffffffffffffff1673ffffffffffffffffffffffffffffffffffffffff16815260200190815260200160002060006101000a81548160ff0219169083151502179055508173ffffffffffffffffffffffffffffffffffffffff168373ffffffffffffffffffffffffffffffffffffffff167f17307eab39ab6107e8899845ad3d59bd9653f200f220920489ca2b5937696c31836040516112129190611a49565b60405180910390a3505050565b60008373ffffffffffffffffffffffffffffffffffffffff163b11156113d0578273ffffffffffffffffffffffffffffffffffffffff1663150b7a02611263610d83565b8685856040518563ffffffff1660e01b81526004016112859493929190612486565b6020604051808303816000875af19250505080156112c157506040513d601f19601f820116820180604052508101906112be91906124e7565b60015b611345573d80600081146112f1576040519150601f19603f3d011682016040523d82523d6000602084013e6112f6565b606091505b50600081510361133d57836040517f64a0ae920000000000000000000000000000000000000000000000000000000081526004016113349190611bba565b60405180910390fd5b805181602001fd5b63150b7a0260e01b7bffffffffffffffffffffffffffffffffffffffffffffffffffffffff1916817bffffffffffffffffffffffffffffffffffffffffffffffffffffffff1916146113ce57836040517f64a0ae920000000000000000000000000000000000000000000000000000000081526004016113c59190611bba565b60405180910390fd5b505b50505050565b606060405180602001604052806000815250905090565b6060600060016113fc84611781565b01905060008167ffffffffffffffff81111561141b5761141a611c9e565b5b6040519080825280601f01601f19166020018201604052801561144d5781602001600182028036833780820191505090505b509050600082602001820190505b6001156114b0578080600190039150507f3031323334353637383961626364656600000000000000000000000000000000600a86061a8153600a85816114a4576114a3612514565b5b0494506000850361145b575b819350505050919050565b60006002600083815260200190815260200160002060009054906101000a900473ffffffffffffffffffffffffffffffffffffffff169050919050565b80806115315750600073ffffffffffffffffffffffffffffffffffffffff168273ffffffffffffffffffffffffffffffffffffffff1614155b1561166557600061154184610cbe565b9050600073ffffffffffffffffffffffffffffffffffffffff168373ffffffffffffffffffffffffffffffffffffffff16141580156115ac57508273ffffffffffffffffffffffffffffffffffffffff168173ffffffffffffffffffffffffffffffffffffffff1614155b80156115bf57506115bd8184610b9c565b155b1561160157826040517fa9fbf51f0000000000000000000000000000000000000000000000000000000081526004016115f89190611bba565b60405180910390fd5b811561166357838573ffffffffffffffffffffffffffffffffffffffff168273ffffffffffffffffffffffffffffffffffffffff167f8c5be1e5ebec7d5bd14f71427d1e84f3dd0314c0f7b2291e5b200ac8c7c3b92560405160405180910390a45b505b836004600085815260200190815260200160002060006101000a81548173ffffffffffffffffffffffffffffffffffffffff021916908373ffffffffffffffffffffffffffffffffffffffff16021790555050505050565b6116c88383836118d4565b61177c57600073ffffffffffffffffffffffffffffffffffffffff168373ffffffffffffffffffffffffffffffffffffffff160361173d57806040517f7e2732890000000000000000000000000000000000000000000000000000000081526004016117349190611e4e565b60405180910390fd5b81816040517f177e802f000000000000000000000000000000000000000000000000000000008152600401611773929190612543565b60405180910390fd5b505050565b600080600090507a184f03e93ff9f4daa797ed6e38ed64bf6a1f01000000000000000083106117df577a184f03e93ff9f4daa797ed6e38ed64bf6a1f01000000000000000083816117d5576117d4612514565b5b0492506040810190505b6d04ee2d6d415b85acef8100000000831061181c576d04ee2d6d415b85acef8100000000838161181257611811612514565b5b0492506020810190505b662386f26fc10000831061184b57662386f26fc10000838161184157611840612514565b5b0492506010810190505b6305f5e1008310611874576305f5e100838161186a57611869612514565b5b0492506008810190505b612710831061189957612710838161188f5761188e612514565b5b0492506004810190505b606483106118bc57606483816118b2576118b1612514565b5b0492506002810190505b600a83106118cb576001810190505b80915050919050565b60008073ffffffffffffffffffffffffffffffffffffffff168373ffffffffffffffffffffffffffffffffffffffff161415801561198c57508273ffffffffffffffffffffffffffffffffffffffff168473ffffffffffffffffffffffffffffffffffffffff16148061194d575061194c8484610b9c565b5b8061198b57508273ffffffffffffffffffffffffffffffffffffffff1661197383610d46565b73ffffffffffffffffffffffffffffffffffffffff16145b5b90509392505050565b6000604051905090565b600080fd5b600080fd5b60007fffffffff0000000000000000000000000000000000000000000000000000000082169050919050565b6119de816119a9565b81146119e957600080fd5b50565b6000813590506119fb816119d5565b92915050565b600060208284031215611a1757611a1661199f565b5b6000611a25848285016119ec565b91505092915050565b60008115159050919050565b611a4381611a2e565b82525050565b6000602082019050611a5e6000830184611a3a565b92915050565b600081519050919050565b600082825260208201905092915050565b60005b83811015611a9e578082015181840152602081019050611a83565b60008484015250505050565b6000601f19601f8301169050919050565b6000611ac682611a64565b611ad08185611a6f565b9350611ae0818560208601611a80565b611ae981611aaa565b840191505092915050565b60006020820190508181036000830152611b0e8184611abb565b905092915050565b6000819050919050565b611b2981611b16565b8114611b3457600080fd5b50565b600081359050611b4681611b20565b92915050565b600060208284031215611b6257611b6161199f565b5b6000611b7084828501611b37565b91505092915050565b600073ffffffffffffffffffffffffffffffffffffffff82169050919050565b6000611ba482611b79565b9050919050565b611bb481611b99565b82525050565b6000602082019050611bcf6000830184611bab565b92915050565b611bde81611b99565b8114611be957600080fd5b50565b600081359050611bfb81611bd5565b92915050565b60008060408385031215611c1857611c1761199f565b5b6000611c2685828601611bec565b9250506020611c3785828601611b37565b9150509250929050565b600080600060608486031215611c5a57611c5961199f565b5b6000611c6886828701611bec565b9350506020611c7986828701611bec565b9250506040611c8a86828701611b37565b9150509250925092565b600080fd5b600080fd5b7f4e487b7100000000000000000000000000000000000000000000000000000000600052604160045260246000fd5b611cd682611aaa565b810181811067ffffffffffffffff82111715611cf557611cf4611c9e565b5b80604052505050565b6000611d08611995565b9050611d148282611ccd565b919050565b600067ffffffffffffffff821115611d3457611d33611c9e565b5b611d3d82611aaa565b9050602081019050919050565b82818337600083830152505050565b6000611d6c611d6784611d19565b611cfe565b905082815260208101848484011115611d8857611d87611c99565b5b611d93848285611d4a565b509392505050565b600082601f830112611db057611daf611c94565b5b8135611dc0848260208601611d59565b91505092915050565b600060208284031215611ddf57611dde61199f565b5b600082013567ffffffffffffffff811115611dfd57611dfc6119a4565b5b611e0984828501611d9b565b91505092915050565b600060208284031215611e2857611e2761199f565b5b6000611e3684828501611bec565b91505092915050565b611e4881611b16565b82525050565b6000602082019050611e636000830184611e3f565b92915050565b611e7281611a2e565b8114611e7d57600080fd5b50565b600081359050611e8f81611e69565b92915050565b60008060408385031215611eac57611eab61199f565b5b6000611eba85828601611bec565b9250506020611ecb85828601611e80565b9150509250929050565b600067ffffffffffffffff821115611ef057611eef611c9e565b5b611ef982611aaa565b9050602081019050919050565b6000611f19611f1484611ed5565b611cfe565b905082815260208101848484011115611f3557611f34611c99565b5b611f40848285611d4a565b509392505050565b600082601f830112611f5d57611f5c611c94565b5b8135611f6d848260208601611f06565b91505092915050565b60008060008060808587031215611f9057611f8f61199f565b5b6000611f9e87828801611bec565b9450506020611faf87828801611bec565b9350506040611fc087828801611b37565b925050606085013567ffffffffffffffff811115611fe157611fe06119a4565b5b611fed87828801611f48565b91505092959194509250565b600080604083850312156120105761200f61199f565b5b600061201e85828601611bec565b925050602061202f85828601611bec565b9150509250929050565b7f4e487b7100000000000000000000000000000000000000000000000000000000600052602260045260246000fd5b6000600282049050600182168061208057607f821691505b60208210810361209357612092612039565b5b50919050565b60006060820190506120ae6000830186611bab565b6120bb6020830185611e3f565b6120c86040830184611bab565b949350505050565b600081905092915050565b60006120e682611a64565b6120f081856120d0565b9350612100818560208601611a80565b80840191505092915050565b600061211882846120db565b915081905092915050565b7f74686973206e616d6520616c7265616479207573656400000000000000000000600082015250565b6000612159601683611a6f565b915061216482612123565b602082019050919050565b600060208201905081810360008301526121888161214c565b9050919050565b60008190508160005260206000209050919050565b60006020601f8301049050919050565b600082821b905092915050565b6000600883026121f17fffffffffffffffffffffffffffffffffffffffffffffffffffffffffffffffff826121b4565b6121fb86836121b4565b95508019841693508086168417925050509392505050565b6000819050919050565b600061223861223361222e84611b16565b612213565b611b16565b9050919050565b6000819050919050565b6122528361221d565b61226661225e8261223f565b8484546121c1565b825550505050565b600090565b61227b61226e565b612286818484612249565b505050565b5b818110156122aa5761229f600082612273565b60018101905061228c565b5050565b601f8211156122ef576122c08161218f565b6122c9846121a4565b810160208510156122d8578190505b6122ec6122e4856121a4565b83018261228b565b50505b505050565b600082821c905092915050565b6000612312600019846008026122f4565b1980831691505092915050565b600061232b8383612301565b9150826002028217905092915050565b61234482611a64565b67ffffffffffffffff81111561235d5761235c611c9e565b5b6123678254612068565b6123728282856122ae565b600060209050601f8311600181146123a55760008415612393578287015190505b61239d858261231f565b865550612405565b601f1984166123b38661218f565b60005b828110156123db578489015182556001820191506020850194506020810190506123b6565b868310156123f857848901516123f4601f891682612301565b8355505b6001600288020188555050505b505050505050565b600061241982856120db565b915061242582846120db565b91508190509392505050565b600081519050919050565b600082825260208201905092915050565b600061245882612431565b612462818561243c565b9350612472818560208601611a80565b61247b81611aaa565b840191505092915050565b600060808201905061249b6000830187611bab565b6124a86020830186611bab565b6124b56040830185611e3f565b81810360608301526124c7818461244d565b905095945050505050565b6000815190506124e1816119d5565b92915050565b6000602082840312156124fd576124fc61199f565b5b600061250b848285016124d2565b91505092915050565b7f4e487b7100000000000000000000000000000000000000000000000000000000600052601260045260246000fd5b60006040820190506125586000830185611bab565b6125656020830184611e3f565b939250505056fea26469706673582212202a023328c8315f30aefeb738ace4f563553e7704d9d2530e1bd54dd30cdfc58964736f6c63430008140033",
  "linkReferences": {},
  "deployedLinkReferences": {}
}