{
  "_format": "hh-sol-artifact-1",
  "contractName": "NameNft",
  "sourceName": "contracts/NameNft.sol",
  "abi": [
    {
      "inputs": [],
      "stateMutability": "nonpayable",
      "type": "constructor"
    },
    {
      "inputs": [
        {
          "internalType": "address",
          "name": "sender",
          "type": "address"
        },
        {
          "internalType": "uint256",
          "name": "tokenId",
          "type": "uint256"
        },
        {
          "internalType": "address",
          "name": "owner",
          "type": "address"
        }
      ],
      "name": "ERC721IncorrectOwner",
      "type": "error"
    },
    {
      "inputs": [
        {
          "internalType": "address",
          "name": "operator",
          "type": "address"
        },
        {
          "internalType": "uint256",
          "name": "tokenId",
          "type": "uint256"
        }
      ],
      "name": "ERC721InsufficientApproval",
      "type": "error"
    },
    {
      "inputs": [
        {
          "internalType": "address",
          "name": "approver",
          "type": "address"
        }
      ],
      "name": "ERC721InvalidApprover",
      "type": "error"
    },
    {
      "inputs": [
        {
          "internalType": "address",
          "name": "operator",
          "type": "address"
        }
      ],
      "name": "ERC721InvalidOperator",
      "type": "error"
    },
    {
      "inputs": [
        {
          "internalType": "address",
          "name": "owner",
          "type": "address"
        }
      ],
      "name": "ERC721InvalidOwner",
      "type": "error"
    },
    {
      "inputs": [
        {
          "internalType": "address",
          "name": "receiver",
          "type": "address"
        }
      ],
      "name": "ERC721InvalidReceiver",
      "type": "error"
    },
    {
      "inputs": [
        {
          "internalType": "address",
          "name": "sender",
          "type": "address"
        }
      ],
      "name": "ERC721InvalidSender",
      "type": "error"
    },
    {
      "inputs": [
        {
          "internalType": "uint256",
          "name": "tokenId",
          "type": "uint256"
        }
      ],
      "name": "ERC721NonexistentToken",
      "type": "error"
    },
    {
      "anonymous": false,
      "inputs": [
        {
          "indexed": true,
          "internalType": "address",
          "name": "owner",
          "type": "address"
        },
        {
          "indexed": true,
          "internalType": "address",
          "name": "approved",
          "type": "address"
        },
        {
          "indexed": true,
          "internalType": "uint256",
          "name": "tokenId",
          "type": "uint256"
        }
      ],
      "name": "Approval",
      "type": "event"
    },
    {
      "anonymous": false,
      "inputs": [
        {
          "indexed": true,
          "internalType": "address",
          "name": "owner",
          "type": "address"
        },
        {
          "indexed": true,
          "internalType": "address",
          "name": "operator",
          "type": "address"
        },
        {
          "indexed": false,
          "internalType": "bool",
          "name": "approved",
          "type": "bool"
        }
      ],
      "name": "ApprovalForAll",
      "type": "event"
    },
    {
      "anonymous": false,
      "inputs": [
        {
          "indexed": true,
          "internalType": "address",
          "name": "from",
          "type": "address"
        },
        {
          "indexed": true,
          "internalType": "address",
          "name": "to",
          "type": "address"
        },
        {
          "indexed": true,
          "internalType": "uint256",
          "name": "tokenId",
          "type": "uint256"
        }
      ],
      "name": "Transfer",
      "type": "event"
    },
    {
      "inputs": [
        {
          "internalType": "address",
          "name": "to",
          "type": "address"
        },
        {
          "internalType": "uint256",
          "name": "tokenId",
          "type": "uint256"
        }
      ],
      "name": "approve",
      "outputs": [],
      "stateMutability": "nonpayable",
      "type": "function"
    },
    {
      "inputs": [
        {
          "internalType": "address",
          "name": "owner",
          "type": "address"
        }
      ],
      "name": "balanceOf",
      "outputs": [
        {
          "internalType": "uint256",
          "name": "",
          "type": "uint256"
        }
      ],
      "stateMutability": "view",
      "type": "function"
    },
    {
      "inputs": [
        {
          "internalType": "uint256",
          "name": "tokenId",
          "type": "uint256"
        }
      ],
      "name": "getApproved",
      "outputs": [
        {
          "internalType": "address",
          "name": "",
          "type": "address"
        }
      ],
      "stateMutability": "view",
      "type": "function"
    },
    {
      "inputs": [
        {
          "internalType": "address",
          "name": "owner",
          "type": "address"
        },
        {
          "internalType": "address",
          "name": "operator",
          "type": "address"
        }
      ],
      "name": "isApprovedForAll",
      "outputs": [
        {
          "internalType": "bool",
          "name": "",
          "type": "bool"
        }
      ],
      "stateMutability": "view",
      "type": "function"
    },
    {
      "inputs": [
        {
          "internalType": "uint256",
          "name": "_allIdTokenslength",
          "type": "uint256"
        }
      ],
      "name": "mint",
      "outputs": [],
      "stateMutability": "nonpayable",
      "type": "function"
    },
    {
      "inputs": [],
      "name": "name",
      "outputs": [
        {
          "internalType": "string",
          "name": "",
          "type": "string"
        }
      ],
      "stateMutability": "view",
      "type": "function"
    },
    {
      "inputs": [
        {
          "internalType": "uint256",
          "name": "tokenId",
          "type": "uint256"
        }
      ],
      "name": "ownerOf",
      "outputs": [
        {
          "internalType": "address",
          "name": "",
          "type": "address"
        }
      ],
      "stateMutability": "view",
      "type": "function"
    },
    {
      "inputs": [
        {
          "internalType": "address",
          "name": "from",
          "type": "address"
        },
        {
          "internalType": "address",
          "name": "to",
          "type": "address"
        },
        {
          "internalType": "uint256",
          "name": "tokenId",
          "type": "uint256"
        }
      ],
      "name": "safeTransferFrom",
      "outputs": [],
      "stateMutability": "nonpayable",
      "type": "function"
    },
    {
      "inputs": [
        {
          "internalType": "address",
          "name": "from",
          "type": "address"
        },
        {
          "internalType": "address",
          "name": "to",
          "type": "address"
        },
        {
          "internalType": "uint256",
          "name": "tokenId",
          "type": "uint256"
        },
        {
          "internalType": "bytes",
          "name": "data",
          "type": "bytes"
        }
      ],
      "name": "safeTransferFrom",
      "outputs": [],
      "stateMutability": "nonpayable",
      "type": "function"
    },
    {
      "inputs": [
        {
          "internalType": "address",
          "name": "operator",
          "type": "address"
        },
        {
          "internalType": "bool",
          "name": "approved",
          "type": "bool"
        }
      ],
      "name": "setApprovalForAll",
      "outputs": [],
      "stateMutability": "nonpayable",
      "type": "function"
    },
    {
      "inputs": [
        {
          "internalType": "bytes4",
          "name": "interfaceId",
          "type": "bytes4"
        }
      ],
      "name": "supportsInterface",
      "outputs": [
        {
          "internalType": "bool",
          "name": "",
          "type": "bool"
        }
      ],
      "stateMutability": "view",
      "type": "function"
    },
    {
      "inputs": [],
      "name": "symbol",
      "outputs": [
        {
          "internalType": "string",
          "name": "",
          "type": "string"
        }
      ],
      "stateMutability": "view",
      "type": "function"
    },
    {
      "inputs": [
        {
          "internalType": "uint256",
          "name": "tokenId",
          "type": "uint256"
        }
      ],
      "name": "tokenURI",
      "outputs": [
        {
          "internalType": "string",
          "name": "",
          "type": "string"
        }
      ],
      "stateMutability": "view",
      "type": "function"
    },
    {
      "inputs": [
        {
          "internalType": "address",
          "name": "from",
          "type": "address"
        },
        {
          "internalType": "address",
          "name": "to",
          "type": "address"
        },
        {
          "internalType": "uint256",
          "name": "tokenId",
          "type": "uint256"
        }
      ],
      "name": "transferFrom",
      "outputs": [],
      "stateMutability": "nonpayable",
      "type": "function"
    }
  ],
  "bytecode": "0x60806040523480156200001157600080fd5b506040518060400160405280600781526020017f4e616d654e4654000000000000000000000000000000000000000000000000008152506040518060400160405280600481526020017f4e4e46540000000000000000000000000000000000000000000000000000000081525081600090816200008f919062000324565b508060019081620000a1919062000324565b5050506200040b565b600081519050919050565b7f4e487b7100000000000000000000000000000000000000000000000000000000600052604160045260246000fd5b7f4e487b7100000000000000000000000000000000000000000000000000000000600052602260045260246000fd5b600060028204905060018216806200012c57607f821691505b602082108103620001425762000141620000e4565b5b50919050565b60008190508160005260206000209050919050565b60006020601f8301049050919050565b600082821b905092915050565b600060088302620001ac7fffffffffffffffffffffffffffffffffffffffffffffffffffffffffffffffff826200016d565b620001b886836200016d565b95508019841693508086168417925050509392505050565b6000819050919050565b6000819050919050565b600062000205620001ff620001f984620001d0565b620001da565b620001d0565b9050919050565b6000819050919050565b6200022183620001e4565b6200023962000230826200020c565b8484546200017a565b825550505050565b600090565b6200025062000241565b6200025d81848462000216565b505050565b5b8181101562000285576200027960008262000246565b60018101905062000263565b5050565b601f821115620002d4576200029e8162000148565b620002a9846200015d565b81016020851015620002b9578190505b620002d1620002c8856200015d565b83018262000262565b50505b505050565b600082821c905092915050565b6000620002f960001984600802620002d9565b1980831691505092915050565b6000620003148383620002e6565b9150826002028217905092915050565b6200032f82620000aa565b67ffffffffffffffff8111156200034b576200034a620000b5565b5b62000357825462000113565b6200036482828562000289565b600060209050601f8311600181146200039c576000841562000387578287015190505b62000393858262000306565b86555062000403565b601f198416620003ac8662000148565b60005b82811015620003d657848901518255600182019150602085019450602081019050620003af565b86831015620003f65784890151620003f2601f891682620002e6565b8355505b6001600288020188555050505b505050505050565b611db9806200041b6000396000f3fe608060405234801561001057600080fd5b50600436106100ea5760003560e01c806370a082311161008c578063a22cb46511610066578063a22cb4651461025b578063b88d4fde14610277578063c87b56dd14610293578063e985e9c5146102c3576100ea565b806370a08231146101f157806395d89b4114610221578063a0712d681461023f576100ea565b8063095ea7b3116100c8578063095ea7b31461016d57806323b872dd1461018957806342842e0e146101a55780636352211e146101c1576100ea565b806301ffc9a7146100ef57806306fdde031461011f578063081812fc1461013d575b600080fd5b61010960048036038101906101049190611603565b6102f3565b604051610116919061164b565b60405180910390f35b6101276103d5565b60405161013491906116f6565b60405180910390f35b6101576004803603810190610152919061174e565b610467565b60405161016491906117bc565b60405180910390f35b61018760048036038101906101829190611803565b610483565b005b6101a3600480360381019061019e9190611843565b610499565b005b6101bf60048036038101906101ba9190611843565b61059b565b005b6101db60048036038101906101d6919061174e565b6105bb565b6040516101e891906117bc565b60405180910390f35b61020b60048036038101906102069190611896565b6105cd565b60405161021891906118d2565b60405180910390f35b610229610687565b60405161023691906116f6565b60405180910390f35b6102596004803603810190610254919061174e565b610719565b005b61027560048036038101906102709190611919565b610726565b005b610291600480360381019061028c9190611a8e565b61073c565b005b6102ad60048036038101906102a8919061174e565b610759565b6040516102ba91906116f6565b60405180910390f35b6102dd60048036038101906102d89190611b11565b6107c2565b6040516102ea919061164b565b60405180910390f35b60007f80ac58cd000000000000000000000000000000000000000000000000000000007bffffffffffffffffffffffffffffffffffffffffffffffffffffffff1916827bffffffffffffffffffffffffffffffffffffffffffffffffffffffff191614806103be57507f5b5e139f000000000000000000000000000000000000000000000000000000007bffffffffffffffffffffffffffffffffffffffffffffffffffffffff1916827bffffffffffffffffffffffffffffffffffffffffffffffffffffffff1916145b806103ce57506103cd82610856565b5b9050919050565b6060600080546103e490611b80565b80601f016020809104026020016040519081016040528092919081815260200182805461041090611b80565b801561045d5780601f106104325761010080835404028352916020019161045d565b820191906000526020600020905b81548152906001019060200180831161044057829003601f168201915b5050505050905090565b6000610472826108c0565b5061047c82610948565b9050919050565b6104958282610490610985565b61098d565b5050565b600073ffffffffffffffffffffffffffffffffffffffff168273ffffffffffffffffffffffffffffffffffffffff160361050b5760006040517f64a0ae9200000000000000000000000000000000000000000000000000000000815260040161050291906117bc565b60405180910390fd5b600061051f838361051a610985565b61099f565b90508373ffffffffffffffffffffffffffffffffffffffff168173ffffffffffffffffffffffffffffffffffffffff1614610595578382826040517f64283d7b00000000000000000000000000000000000000000000000000000000815260040161058c93929190611bb1565b60405180910390fd5b50505050565b6105b68383836040518060200160405280600081525061073c565b505050565b60006105c6826108c0565b9050919050565b60008073ffffffffffffffffffffffffffffffffffffffff168273ffffffffffffffffffffffffffffffffffffffff16036106405760006040517f89c62b6400000000000000000000000000000000000000000000000000000000815260040161063791906117bc565b60405180910390fd5b600360008373ffffffffffffffffffffffffffffffffffffffff1673ffffffffffffffffffffffffffffffffffffffff168152602001908152602001600020549050919050565b60606001805461069690611b80565b80601f01602080910402602001604051908101604052809291908181526020018280546106c290611b80565b801561070f5780601f106106e45761010080835404028352916020019161070f565b820191906000526020600020905b8154815290600101906020018083116106f257829003601f168201915b5050505050905090565b6107233382610bb9565b50565b610738610731610985565b8383610cb2565b5050565b610747848484610499565b61075384848484610e21565b50505050565b6060610764826108c0565b50600061076f610fd8565b9050600081511161078f57604051806020016040528060008152506107ba565b8061079984610fef565b6040516020016107aa929190611c24565b6040516020818303038152906040525b915050919050565b6000600560008473ffffffffffffffffffffffffffffffffffffffff1673ffffffffffffffffffffffffffffffffffffffff16815260200190815260200160002060008373ffffffffffffffffffffffffffffffffffffffff1673ffffffffffffffffffffffffffffffffffffffff16815260200190815260200160002060009054906101000a900460ff16905092915050565b60007f01ffc9a7000000000000000000000000000000000000000000000000000000007bffffffffffffffffffffffffffffffffffffffffffffffffffffffff1916827bffffffffffffffffffffffffffffffffffffffffffffffffffffffff1916149050919050565b6000806108cc836110bd565b9050600073ffffffffffffffffffffffffffffffffffffffff168173ffffffffffffffffffffffffffffffffffffffff160361093f57826040517f7e27328900000000000000000000000000000000000000000000000000000000815260040161093691906118d2565b60405180910390fd5b80915050919050565b60006004600083815260200190815260200160002060009054906101000a900473ffffffffffffffffffffffffffffffffffffffff169050919050565b600033905090565b61099a83838360016110fa565b505050565b6000806109ab846110bd565b9050600073ffffffffffffffffffffffffffffffffffffffff168373ffffffffffffffffffffffffffffffffffffffff16146109ed576109ec8184866112bf565b5b600073ffffffffffffffffffffffffffffffffffffffff168173ffffffffffffffffffffffffffffffffffffffff1614610a7e57610a2f6000856000806110fa565b6001600360008373ffffffffffffffffffffffffffffffffffffffff1673ffffffffffffffffffffffffffffffffffffffff168152602001908152602001600020600082825403925050819055505b600073ffffffffffffffffffffffffffffffffffffffff168573ffffffffffffffffffffffffffffffffffffffff1614610b01576001600360008773ffffffffffffffffffffffffffffffffffffffff1673ffffffffffffffffffffffffffffffffffffffff168152602001908152602001600020600082825401925050819055505b846002600086815260200190815260200160002060006101000a81548173ffffffffffffffffffffffffffffffffffffffff021916908373ffffffffffffffffffffffffffffffffffffffff160217905550838573ffffffffffffffffffffffffffffffffffffffff168273ffffffffffffffffffffffffffffffffffffffff167fddf252ad1be2c89b69c2b068fc378daa952ba7f163c4a11628f55a4df523b3ef60405160405180910390a4809150509392505050565b600073ffffffffffffffffffffffffffffffffffffffff168273ffffffffffffffffffffffffffffffffffffffff1603610c2b5760006040517f64a0ae92000000000000000000000000000000000000000000000000000000008152600401610c2291906117bc565b60405180910390fd5b6000610c398383600061099f565b9050600073ffffffffffffffffffffffffffffffffffffffff168173ffffffffffffffffffffffffffffffffffffffff1614610cad5760006040517f73c6ac6e000000000000000000000000000000000000000000000000000000008152600401610ca491906117bc565b60405180910390fd5b505050565b600073ffffffffffffffffffffffffffffffffffffffff168273ffffffffffffffffffffffffffffffffffffffff1603610d2357816040517f5b08ba18000000000000000000000000000000000000000000000000000000008152600401610d1a91906117bc565b60405180910390fd5b80600560008573ffffffffffffffffffffffffffffffffffffffff1673ffffffffffffffffffffffffffffffffffffffff16815260200190815260200160002060008473ffffffffffffffffffffffffffffffffffffffff1673ffffffffffffffffffffffffffffffffffffffff16815260200190815260200160002060006101000a81548160ff0219169083151502179055508173ffffffffffffffffffffffffffffffffffffffff168373ffffffffffffffffffffffffffffffffffffffff167f17307eab39ab6107e8899845ad3d59bd9653f200f220920489ca2b5937696c3183604051610e14919061164b565b60405180910390a3505050565b60008373ffffffffffffffffffffffffffffffffffffffff163b1115610fd2578273ffffffffffffffffffffffffffffffffffffffff1663150b7a02610e65610985565b8685856040518563ffffffff1660e01b8152600401610e879493929190611c9d565b6020604051808303816000875af1925050508015610ec357506040513d601f19601f82011682018060405250810190610ec09190611cfe565b60015b610f47573d8060008114610ef3576040519150601f19603f3d011682016040523d82523d6000602084013e610ef8565b606091505b506000815103610f3f57836040517f64a0ae92000000000000000000000000000000000000000000000000000000008152600401610f3691906117bc565b60405180910390fd5b805181602001fd5b63150b7a0260e01b7bffffffffffffffffffffffffffffffffffffffffffffffffffffffff1916817bffffffffffffffffffffffffffffffffffffffffffffffffffffffff191614610fd057836040517f64a0ae92000000000000000000000000000000000000000000000000000000008152600401610fc791906117bc565b60405180910390fd5b505b50505050565b606060405180602001604052806000815250905090565b606060006001610ffe84611383565b01905060008167ffffffffffffffff81111561101d5761101c611963565b5b6040519080825280601f01601f19166020018201604052801561104f5781602001600182028036833780820191505090505b509050600082602001820190505b6001156110b2578080600190039150507f3031323334353637383961626364656600000000000000000000000000000000600a86061a8153600a85816110a6576110a5611d2b565b5b0494506000850361105d575b819350505050919050565b60006002600083815260200190815260200160002060009054906101000a900473ffffffffffffffffffffffffffffffffffffffff169050919050565b80806111335750600073ffffffffffffffffffffffffffffffffffffffff168273ffffffffffffffffffffffffffffffffffffffff1614155b15611267576000611143846108c0565b9050600073ffffffffffffffffffffffffffffffffffffffff168373ffffffffffffffffffffffffffffffffffffffff16141580156111ae57508273ffffffffffffffffffffffffffffffffffffffff168173ffffffffffffffffffffffffffffffffffffffff1614155b80156111c157506111bf81846107c2565b155b1561120357826040517fa9fbf51f0000000000000000000000000000000000000000000000000000000081526004016111fa91906117bc565b60405180910390fd5b811561126557838573ffffffffffffffffffffffffffffffffffffffff168273ffffffffffffffffffffffffffffffffffffffff167f8c5be1e5ebec7d5bd14f71427d1e84f3dd0314c0f7b2291e5b200ac8c7c3b92560405160405180910390a45b505b836004600085815260200190815260200160002060006101000a81548173ffffffffffffffffffffffffffffffffffffffff021916908373ffffffffffffffffffffffffffffffffffffffff16021790555050505050565b6112ca8383836114d6565b61137e57600073ffffffffffffffffffffffffffffffffffffffff168373ffffffffffffffffffffffffffffffffffffffff160361133f57806040517f7e27328900000000000000000000000000000000000000000000000000000000815260040161133691906118d2565b60405180910390fd5b81816040517f177e802f000000000000000000000000000000000000000000000000000000008152600401611375929190611d5a565b60405180910390fd5b505050565b600080600090507a184f03e93ff9f4daa797ed6e38ed64bf6a1f01000000000000000083106113e1577a184f03e93ff9f4daa797ed6e38ed64bf6a1f01000000000000000083816113d7576113d6611d2b565b5b0492506040810190505b6d04ee2d6d415b85acef8100000000831061141e576d04ee2d6d415b85acef8100000000838161141457611413611d2b565b5b0492506020810190505b662386f26fc10000831061144d57662386f26fc10000838161144357611442611d2b565b5b0492506010810190505b6305f5e1008310611476576305f5e100838161146c5761146b611d2b565b5b0492506008810190505b612710831061149b57612710838161149157611490611d2b565b5b0492506004810190505b606483106114be57606483816114b4576114b3611d2b565b5b0492506002810190505b600a83106114cd576001810190505b80915050919050565b60008073ffffffffffffffffffffffffffffffffffffffff168373ffffffffffffffffffffffffffffffffffffffff161415801561158e57508273ffffffffffffffffffffffffffffffffffffffff168473ffffffffffffffffffffffffffffffffffffffff16148061154f575061154e84846107c2565b5b8061158d57508273ffffffffffffffffffffffffffffffffffffffff1661157583610948565b73ffffffffffffffffffffffffffffffffffffffff16145b5b90509392505050565b6000604051905090565b600080fd5b600080fd5b60007fffffffff0000000000000000000000000000000000000000000000000000000082169050919050565b6115e0816115ab565b81146115eb57600080fd5b50565b6000813590506115fd816115d7565b92915050565b600060208284031215611619576116186115a1565b5b6000611627848285016115ee565b91505092915050565b60008115159050919050565b61164581611630565b82525050565b6000602082019050611660600083018461163c565b92915050565b600081519050919050565b600082825260208201905092915050565b60005b838110156116a0578082015181840152602081019050611685565b60008484015250505050565b6000601f19601f8301169050919050565b60006116c882611666565b6116d28185611671565b93506116e2818560208601611682565b6116eb816116ac565b840191505092915050565b6000602082019050818103600083015261171081846116bd565b905092915050565b6000819050919050565b61172b81611718565b811461173657600080fd5b50565b60008135905061174881611722565b92915050565b600060208284031215611764576117636115a1565b5b600061177284828501611739565b91505092915050565b600073ffffffffffffffffffffffffffffffffffffffff82169050919050565b60006117a68261177b565b9050919050565b6117b68161179b565b82525050565b60006020820190506117d160008301846117ad565b92915050565b6117e08161179b565b81146117eb57600080fd5b50565b6000813590506117fd816117d7565b92915050565b6000806040838503121561181a576118196115a1565b5b6000611828858286016117ee565b925050602061183985828601611739565b9150509250929050565b60008060006060848603121561185c5761185b6115a1565b5b600061186a868287016117ee565b935050602061187b868287016117ee565b925050604061188c86828701611739565b9150509250925092565b6000602082840312156118ac576118ab6115a1565b5b60006118ba848285016117ee565b91505092915050565b6118cc81611718565b82525050565b60006020820190506118e760008301846118c3565b92915050565b6118f681611630565b811461190157600080fd5b50565b600081359050611913816118ed565b92915050565b600080604083850312156119305761192f6115a1565b5b600061193e858286016117ee565b925050602061194f85828601611904565b9150509250929050565b600080fd5b600080fd5b7f4e487b7100000000000000000000000000000000000000000000000000000000600052604160045260246000fd5b61199b826116ac565b810181811067ffffffffffffffff821117156119ba576119b9611963565b5b80604052505050565b60006119cd611597565b90506119d98282611992565b919050565b600067ffffffffffffffff8211156119f9576119f8611963565b5b611a02826116ac565b9050602081019050919050565b82818337600083830152505050565b6000611a31611a2c846119de565b6119c3565b905082815260208101848484011115611a4d57611a4c61195e565b5b611a58848285611a0f565b509392505050565b600082601f830112611a7557611a74611959565b5b8135611a85848260208601611a1e565b91505092915050565b60008060008060808587031215611aa857611aa76115a1565b5b6000611ab6878288016117ee565b9450506020611ac7878288016117ee565b9350506040611ad887828801611739565b925050606085013567ffffffffffffffff811115611af957611af86115a6565b5b611b0587828801611a60565b91505092959194509250565b60008060408385031215611b2857611b276115a1565b5b6000611b36858286016117ee565b9250506020611b47858286016117ee565b9150509250929050565b7f4e487b7100000000000000000000000000000000000000000000000000000000600052602260045260246000fd5b60006002820490506001821680611b9857607f821691505b602082108103611bab57611baa611b51565b5b50919050565b6000606082019050611bc660008301866117ad565b611bd360208301856118c3565b611be060408301846117ad565b949350505050565b600081905092915050565b6000611bfe82611666565b611c088185611be8565b9350611c18818560208601611682565b80840191505092915050565b6000611c308285611bf3565b9150611c3c8284611bf3565b91508190509392505050565b600081519050919050565b600082825260208201905092915050565b6000611c6f82611c48565b611c798185611c53565b9350611c89818560208601611682565b611c92816116ac565b840191505092915050565b6000608082019050611cb260008301876117ad565b611cbf60208301866117ad565b611ccc60408301856118c3565b8181036060830152611cde8184611c64565b905095945050505050565b600081519050611cf8816115d7565b92915050565b600060208284031215611d1457611d136115a1565b5b6000611d2284828501611ce9565b91505092915050565b7f4e487b7100000000000000000000000000000000000000000000000000000000600052601260045260246000fd5b6000604082019050611d6f60008301856117ad565b611d7c60208301846118c3565b939250505056fea2646970667358221220bc0832b776e1f07e739de089ff23c136c79f590449160dc2e1d6f7feca2ee8f964736f6c63430008140033",
  "linkReferences": {},
  "deployedLinkReferences": {}
}