{
  "_format": "hh-sol-artifact-1",
  "contractName": "NameCoin",
  "sourceName": "contracts/NameCoin.sol",
  "abi": [
    {
      "inputs": [],
      "stateMutability": "nonpayable",
      "type": "constructor"
    },
    {
      "inputs": [
        {
          "internalType": "address",
          "name": "spender",
          "type": "address"
        },
        {
          "internalType": "uint256",
          "name": "allowance",
          "type": "uint256"
        },
        {
          "internalType": "uint256",
          "name": "needed",
          "type": "uint256"
        }
      ],
      "name": "ERC20InsufficientAllowance",
      "type": "error"
    },
    {
      "inputs": [
        {
          "internalType": "address",
          "name": "sender",
          "type": "address"
        },
        {
          "internalType": "uint256",
          "name": "balance",
          "type": "uint256"
        },
        {
          "internalType": "uint256",
          "name": "needed",
          "type": "uint256"
        }
      ],
      "name": "ERC20InsufficientBalance",
      "type": "error"
    },
    {
      "inputs": [
        {
          "internalType": "address",
          "name": "approver",
          "type": "address"
        }
      ],
      "name": "ERC20InvalidApprover",
      "type": "error"
    },
    {
      "inputs": [
        {
          "internalType": "address",
          "name": "receiver",
          "type": "address"
        }
      ],
      "name": "ERC20InvalidReceiver",
      "type": "error"
    },
    {
      "inputs": [
        {
          "internalType": "address",
          "name": "sender",
          "type": "address"
        }
      ],
      "name": "ERC20InvalidSender",
      "type": "error"
    },
    {
      "inputs": [
        {
          "internalType": "address",
          "name": "spender",
          "type": "address"
        }
      ],
      "name": "ERC20InvalidSpender",
      "type": "error"
    },
    {
      "anonymous": false,
      "inputs": [
        {
          "indexed": true,
          "internalType": "address",
          "name": "owner",
          "type": "address"
        },
        {
          "indexed": true,
          "internalType": "address",
          "name": "spender",
          "type": "address"
        },
        {
          "indexed": false,
          "internalType": "uint256",
          "name": "value",
          "type": "uint256"
        }
      ],
      "name": "Approval",
      "type": "event"
    },
    {
      "anonymous": false,
      "inputs": [
        {
          "indexed": true,
          "internalType": "address",
          "name": "from",
          "type": "address"
        },
        {
          "indexed": true,
          "internalType": "address",
          "name": "to",
          "type": "address"
        },
        {
          "indexed": false,
          "internalType": "uint256",
          "name": "value",
          "type": "uint256"
        }
      ],
      "name": "Transfer",
      "type": "event"
    },
    {
      "inputs": [
        {
          "internalType": "address",
          "name": "owner",
          "type": "address"
        },
        {
          "internalType": "address",
          "name": "spender",
          "type": "address"
        }
      ],
      "name": "allowance",
      "outputs": [
        {
          "internalType": "uint256",
          "name": "",
          "type": "uint256"
        }
      ],
      "stateMutability": "view",
      "type": "function"
    },
    {
      "inputs": [
        {
          "internalType": "address",
          "name": "spender",
          "type": "address"
        },
        {
          "internalType": "uint256",
          "name": "value",
          "type": "uint256"
        }
      ],
      "name": "approve",
      "outputs": [
        {
          "internalType": "bool",
          "name": "",
          "type": "bool"
        }
      ],
      "stateMutability": "nonpayable",
      "type": "function"
    },
    {
      "inputs": [
        {
          "internalType": "address",
          "name": "account",
          "type": "address"
        }
      ],
      "name": "balanceOf",
      "outputs": [
        {
          "internalType": "uint256",
          "name": "",
          "type": "uint256"
        }
      ],
      "stateMutability": "view",
      "type": "function"
    },
    {
      "inputs": [
        {
          "internalType": "uint256",
          "name": "_value",
          "type": "uint256"
        }
      ],
      "name": "buyToken",
      "outputs": [],
      "stateMutability": "payable",
      "type": "function"
    },
    {
      "inputs": [],
      "name": "decimals",
      "outputs": [
        {
          "internalType": "uint8",
          "name": "",
          "type": "uint8"
        }
      ],
      "stateMutability": "view",
      "type": "function"
    },
    {
      "inputs": [
        {
          "internalType": "uint256",
          "name": "_value",
          "type": "uint256"
        }
      ],
      "name": "mint",
      "outputs": [],
      "stateMutability": "nonpayable",
      "type": "function"
    },
    {
      "inputs": [],
      "name": "name",
      "outputs": [
        {
          "internalType": "string",
          "name": "",
          "type": "string"
        }
      ],
      "stateMutability": "view",
      "type": "function"
    },
    {
      "inputs": [],
      "name": "owner",
      "outputs": [
        {
          "internalType": "address payable",
          "name": "",
          "type": "address"
        }
      ],
      "stateMutability": "view",
      "type": "function"
    },
    {
      "inputs": [],
      "name": "symbol",
      "outputs": [
        {
          "internalType": "string",
          "name": "",
          "type": "string"
        }
      ],
      "stateMutability": "view",
      "type": "function"
    },
    {
      "inputs": [],
      "name": "totalSupply",
      "outputs": [
        {
          "internalType": "uint256",
          "name": "",
          "type": "uint256"
        }
      ],
      "stateMutability": "view",
      "type": "function"
    },
    {
      "inputs": [
        {
          "internalType": "address",
          "name": "to",
          "type": "address"
        },
        {
          "internalType": "uint256",
          "name": "value",
          "type": "uint256"
        }
      ],
      "name": "transfer",
      "outputs": [
        {
          "internalType": "bool",
          "name": "",
          "type": "bool"
        }
      ],
      "stateMutability": "nonpayable",
      "type": "function"
    },
    {
      "inputs": [
        {
          "internalType": "address",
          "name": "from",
          "type": "address"
        },
        {
          "internalType": "address",
          "name": "to",
          "type": "address"
        },
        {
          "internalType": "uint256",
          "name": "value",
          "type": "uint256"
        }
      ],
      "name": "transferFrom",
      "outputs": [
        {
          "internalType": "bool",
          "name": "",
          "type": "bool"
        }
      ],
      "stateMutability": "nonpayable",
      "type": "function"
    }
  ],
  "bytecode": "0x608060405260646006553480156200001657600080fd5b506040518060400160405280600881526020017f4e616d65436f696e0000000000000000000000000000000000000000000000008152506040518060400160405280600281526020017f4e43000000000000000000000000000000000000000000000000000000000000815250816003908162000094919062000665565b508060049081620000a6919062000665565b50505033600560006101000a81548173ffffffffffffffffffffffffffffffffffffffff021916908373ffffffffffffffffffffffffffffffffffffffff1602179055506000633b9aca00905062000127600560009054906101000a900473ffffffffffffffffffffffffffffffffffffffff16826200012e60201b60201c565b5062000883565b600073ffffffffffffffffffffffffffffffffffffffff168273ffffffffffffffffffffffffffffffffffffffff1603620001a35760006040517fec442f050000000000000000000000000000000000000000000000000000000081526004016200019a919062000791565b60405180910390fd5b620001b760008383620001bb60201b60201c565b5050565b600073ffffffffffffffffffffffffffffffffffffffff168373ffffffffffffffffffffffffffffffffffffffff160362000211578060026000828254620002049190620007dd565b92505081905550620002e7565b60008060008573ffffffffffffffffffffffffffffffffffffffff1673ffffffffffffffffffffffffffffffffffffffff16815260200190815260200160002054905081811015620002a0578381836040517fe450d38c000000000000000000000000000000000000000000000000000000008152600401620002979392919062000829565b60405180910390fd5b8181036000808673ffffffffffffffffffffffffffffffffffffffff1673ffffffffffffffffffffffffffffffffffffffff16815260200190815260200160002081905550505b600073ffffffffffffffffffffffffffffffffffffffff168273ffffffffffffffffffffffffffffffffffffffff16036200033257806002600082825403925050819055506200037f565b806000808473ffffffffffffffffffffffffffffffffffffffff1673ffffffffffffffffffffffffffffffffffffffff168152602001908152602001600020600082825401925050819055505b8173ffffffffffffffffffffffffffffffffffffffff168373ffffffffffffffffffffffffffffffffffffffff167fddf252ad1be2c89b69c2b068fc378daa952ba7f163c4a11628f55a4df523b3ef83604051620003de919062000866565b60405180910390a3505050565b600081519050919050565b7f4e487b7100000000000000000000000000000000000000000000000000000000600052604160045260246000fd5b7f4e487b7100000000000000000000000000000000000000000000000000000000600052602260045260246000fd5b600060028204905060018216806200046d57607f821691505b60208210810362000483576200048262000425565b5b50919050565b60008190508160005260206000209050919050565b60006020601f8301049050919050565b600082821b905092915050565b600060088302620004ed7fffffffffffffffffffffffffffffffffffffffffffffffffffffffffffffffff82620004ae565b620004f98683620004ae565b95508019841693508086168417925050509392505050565b6000819050919050565b6000819050919050565b600062000546620005406200053a8462000511565b6200051b565b62000511565b9050919050565b6000819050919050565b620005628362000525565b6200057a62000571826200054d565b848454620004bb565b825550505050565b600090565b6200059162000582565b6200059e81848462000557565b505050565b5b81811015620005c657620005ba60008262000587565b600181019050620005a4565b5050565b601f8211156200061557620005df8162000489565b620005ea846200049e565b81016020851015620005fa578190505b6200061262000609856200049e565b830182620005a3565b50505b505050565b600082821c905092915050565b60006200063a600019846008026200061a565b1980831691505092915050565b600062000655838362000627565b9150826002028217905092915050565b6200067082620003eb565b67ffffffffffffffff8111156200068c576200068b620003f6565b5b62000698825462000454565b620006a5828285620005ca565b600060209050601f831160018114620006dd5760008415620006c8578287015190505b620006d4858262000647565b86555062000744565b601f198416620006ed8662000489565b60005b828110156200071757848901518255600182019150602085019450602081019050620006f0565b8683101562000737578489015162000733601f89168262000627565b8355505b6001600288020188555050505b505050505050565b600073ffffffffffffffffffffffffffffffffffffffff82169050919050565b600062000779826200074c565b9050919050565b6200078b816200076c565b82525050565b6000602082019050620007a8600083018462000780565b92915050565b7f4e487b7100000000000000000000000000000000000000000000000000000000600052601160045260246000fd5b6000620007ea8262000511565b9150620007f78362000511565b9250828201905080821115620008125762000811620007ae565b5b92915050565b620008238162000511565b82525050565b600060608201905062000840600083018662000780565b6200084f602083018562000818565b6200085e604083018462000818565b949350505050565b60006020820190506200087d600083018462000818565b92915050565b61134080620008936000396000f3fe6080604052600436106100a75760003560e01c806370a082311161006457806370a08231146101c35780638da5cb5b1461020057806395d89b411461022b578063a0712d6814610256578063a9059cbb1461027f578063dd62ed3e146102bc576100a7565b806306fdde03146100ac578063095ea7b3146100d757806318160ddd1461011457806323b872dd1461013f5780632d296bf11461017c578063313ce56714610198575b600080fd5b3480156100b857600080fd5b506100c16102f9565b6040516100ce9190610e11565b60405180910390f35b3480156100e357600080fd5b506100fe60048036038101906100f99190610ecc565b61038b565b60405161010b9190610f27565b60405180910390f35b34801561012057600080fd5b506101296103ae565b6040516101369190610f51565b60405180910390f35b34801561014b57600080fd5b5061016660048036038101906101619190610f6c565b6103b8565b6040516101739190610f27565b60405180910390f35b61019660048036038101906101919190610fbf565b6103e7565b005b3480156101a457600080fd5b506101ad6104ef565b6040516101ba9190611008565b60405180910390f35b3480156101cf57600080fd5b506101ea60048036038101906101e59190611023565b6104f8565b6040516101f79190610f51565b60405180910390f35b34801561020c57600080fd5b50610215610540565b6040516102229190611071565b60405180910390f35b34801561023757600080fd5b50610240610566565b60405161024d9190610e11565b60405180910390f35b34801561026257600080fd5b5061027d60048036038101906102789190610fbf565b6105f8565b005b34801561028b57600080fd5b506102a660048036038101906102a19190610ecc565b6106b7565b6040516102b39190610f27565b60405180910390f35b3480156102c857600080fd5b506102e360048036038101906102de919061108c565b6106da565b6040516102f09190610f51565b60405180910390f35b606060038054610308906110fb565b80601f0160208091040260200160405190810160405280929190818152602001828054610334906110fb565b80156103815780601f1061035657610100808354040283529160200191610381565b820191906000526020600020905b81548152906001019060200180831161036457829003601f168201915b5050505050905090565b600080610396610761565b90506103a3818585610769565b600191505092915050565b6000600254905090565b6000806103c3610761565b90506103d085828561077b565b6103db85858561080f565b60019150509392505050565b60006103e8826103f7919061115b565b90506000670de0b6b3a76400008361040f919061115b565b905080341015610454576040517f08c379a000000000000000000000000000000000000000000000000000000000815260040161044b906111e9565b60405180910390fd5b610481600560009054906101000a900473ffffffffffffffffffffffffffffffffffffffff16338461080f565b600560009054906101000a900473ffffffffffffffffffffffffffffffffffffffff1673ffffffffffffffffffffffffffffffffffffffff166108fc349081150290604051600060405180830381858888f193505050501580156104e9573d6000803e3d6000fd5b50505050565b60006012905090565b60008060008373ffffffffffffffffffffffffffffffffffffffff1673ffffffffffffffffffffffffffffffffffffffff168152602001908152602001600020549050919050565b600560009054906101000a900473ffffffffffffffffffffffffffffffffffffffff1681565b606060048054610575906110fb565b80601f01602080910402602001604051908101604052809291908181526020018280546105a1906110fb565b80156105ee5780601f106105c3576101008083540402835291602001916105ee565b820191906000526020600020905b8154815290600101906020018083116105d157829003601f168201915b5050505050905090565b600560009054906101000a900473ffffffffffffffffffffffffffffffffffffffff1673ffffffffffffffffffffffffffffffffffffffff163373ffffffffffffffffffffffffffffffffffffffff1614610688576040517f08c379a000000000000000000000000000000000000000000000000000000000815260040161067f90611255565b60405180910390fd5b6106b4600560009054906101000a900473ffffffffffffffffffffffffffffffffffffffff1682610903565b50565b6000806106c2610761565b90506106cf81858561080f565b600191505092915050565b6000600160008473ffffffffffffffffffffffffffffffffffffffff1673ffffffffffffffffffffffffffffffffffffffff16815260200190815260200160002060008373ffffffffffffffffffffffffffffffffffffffff1673ffffffffffffffffffffffffffffffffffffffff16815260200190815260200160002054905092915050565b600033905090565b6107768383836001610985565b505050565b600061078784846106da565b90507fffffffffffffffffffffffffffffffffffffffffffffffffffffffffffffffff811461080957818110156107f9578281836040517ffb8f41b20000000000000000000000000000000000000000000000000000000081526004016107f093929190611284565b60405180910390fd5b61080884848484036000610985565b5b50505050565b600073ffffffffffffffffffffffffffffffffffffffff168373ffffffffffffffffffffffffffffffffffffffff16036108815760006040517f96c6fd1e00000000000000000000000000000000000000000000000000000000815260040161087891906112bb565b60405180910390fd5b600073ffffffffffffffffffffffffffffffffffffffff168273ffffffffffffffffffffffffffffffffffffffff16036108f35760006040517fec442f050000000000000000000000000000000000000000000000000000000081526004016108ea91906112bb565b60405180910390fd5b6108fe838383610b5c565b505050565b600073ffffffffffffffffffffffffffffffffffffffff168273ffffffffffffffffffffffffffffffffffffffff16036109755760006040517fec442f0500000000000000000000000000000000000000000000000000000000815260040161096c91906112bb565b60405180910390fd5b61098160008383610b5c565b5050565b600073ffffffffffffffffffffffffffffffffffffffff168473ffffffffffffffffffffffffffffffffffffffff16036109f75760006040517fe602df050000000000000000000000000000000000000000000000000000000081526004016109ee91906112bb565b60405180910390fd5b600073ffffffffffffffffffffffffffffffffffffffff168373ffffffffffffffffffffffffffffffffffffffff1603610a695760006040517f94280d62000000000000000000000000000000000000000000000000000000008152600401610a6091906112bb565b60405180910390fd5b81600160008673ffffffffffffffffffffffffffffffffffffffff1673ffffffffffffffffffffffffffffffffffffffff16815260200190815260200160002060008573ffffffffffffffffffffffffffffffffffffffff1673ffffffffffffffffffffffffffffffffffffffff168152602001908152602001600020819055508015610b56578273ffffffffffffffffffffffffffffffffffffffff168473ffffffffffffffffffffffffffffffffffffffff167f8c5be1e5ebec7d5bd14f71427d1e84f3dd0314c0f7b2291e5b200ac8c7c3b92584604051610b4d9190610f51565b60405180910390a35b50505050565b600073ffffffffffffffffffffffffffffffffffffffff168373ffffffffffffffffffffffffffffffffffffffff1603610bae578060026000828254610ba291906112d6565b92505081905550610c81565b60008060008573ffffffffffffffffffffffffffffffffffffffff1673ffffffffffffffffffffffffffffffffffffffff16815260200190815260200160002054905081811015610c3a578381836040517fe450d38c000000000000000000000000000000000000000000000000000000008152600401610c3193929190611284565b60405180910390fd5b8181036000808673ffffffffffffffffffffffffffffffffffffffff1673ffffffffffffffffffffffffffffffffffffffff16815260200190815260200160002081905550505b600073ffffffffffffffffffffffffffffffffffffffff168273ffffffffffffffffffffffffffffffffffffffff1603610cca5780600260008282540392505081905550610d17565b806000808473ffffffffffffffffffffffffffffffffffffffff1673ffffffffffffffffffffffffffffffffffffffff168152602001908152602001600020600082825401925050819055505b8173ffffffffffffffffffffffffffffffffffffffff168373ffffffffffffffffffffffffffffffffffffffff167fddf252ad1be2c89b69c2b068fc378daa952ba7f163c4a11628f55a4df523b3ef83604051610d749190610f51565b60405180910390a3505050565b600081519050919050565b600082825260208201905092915050565b60005b83811015610dbb578082015181840152602081019050610da0565b60008484015250505050565b6000601f19601f8301169050919050565b6000610de382610d81565b610ded8185610d8c565b9350610dfd818560208601610d9d565b610e0681610dc7565b840191505092915050565b60006020820190508181036000830152610e2b8184610dd8565b905092915050565b600080fd5b600073ffffffffffffffffffffffffffffffffffffffff82169050919050565b6000610e6382610e38565b9050919050565b610e7381610e58565b8114610e7e57600080fd5b50565b600081359050610e9081610e6a565b92915050565b6000819050919050565b610ea981610e96565b8114610eb457600080fd5b50565b600081359050610ec681610ea0565b92915050565b60008060408385031215610ee357610ee2610e33565b5b6000610ef185828601610e81565b9250506020610f0285828601610eb7565b9150509250929050565b60008115159050919050565b610f2181610f0c565b82525050565b6000602082019050610f3c6000830184610f18565b92915050565b610f4b81610e96565b82525050565b6000602082019050610f666000830184610f42565b92915050565b600080600060608486031215610f8557610f84610e33565b5b6000610f9386828701610e81565b9350506020610fa486828701610e81565b9250506040610fb586828701610eb7565b9150509250925092565b600060208284031215610fd557610fd4610e33565b5b6000610fe384828501610eb7565b91505092915050565b600060ff82169050919050565b61100281610fec565b82525050565b600060208201905061101d6000830184610ff9565b92915050565b60006020828403121561103957611038610e33565b5b600061104784828501610e81565b91505092915050565b600061105b82610e38565b9050919050565b61106b81611050565b82525050565b60006020820190506110866000830184611062565b92915050565b600080604083850312156110a3576110a2610e33565b5b60006110b185828601610e81565b92505060206110c285828601610e81565b9150509250929050565b7f4e487b7100000000000000000000000000000000000000000000000000000000600052602260045260246000fd5b6000600282049050600182168061111357607f821691505b602082108103611126576111256110cc565b5b50919050565b7f4e487b7100000000000000000000000000000000000000000000000000000000600052601160045260246000fd5b600061116682610e96565b915061117183610e96565b925082820261117f81610e96565b915082820484148315176111965761119561112c565b5b5092915050565b7f496e73756666696369656e74204554482073656e740000000000000000000000600082015250565b60006111d3601583610d8c565b91506111de8261119d565b602082019050919050565b60006020820190508181036000830152611202816111c6565b9050919050565b7f796f75206e6f74206f776e657240210000000000000000000000000000000000600082015250565b600061123f600f83610d8c565b915061124a82611209565b602082019050919050565b6000602082019050818103600083015261126e81611232565b9050919050565b61127e81610e58565b82525050565b60006060820190506112996000830186611275565b6112a66020830185610f42565b6112b36040830184610f42565b949350505050565b60006020820190506112d06000830184611275565b92915050565b60006112e182610e96565b91506112ec83610e96565b92508282019050808211156113045761130361112c565b5b9291505056fea2646970667358221220c7c0f42b675bde31472a0e2d06a39e98f6aa58dacbdff9056bae19036357adb164736f6c63430008140033",
  "linkReferences": {},
  "deployedLinkReferences": {}
}