{
  "_format": "hh-sol-artifact-1",
  "contractName": "NameCoin",
  "sourceName": "contracts/NameCoin.sol",
  "abi": [
    {
      "inputs": [],
      "stateMutability": "nonpayable",
      "type": "constructor"
    },
    {
      "inputs": [
        {
          "internalType": "address",
          "name": "spender",
          "type": "address"
        },
        {
          "internalType": "uint256",
          "name": "allowance",
          "type": "uint256"
        },
        {
          "internalType": "uint256",
          "name": "needed",
          "type": "uint256"
        }
      ],
      "name": "ERC20InsufficientAllowance",
      "type": "error"
    },
    {
      "inputs": [
        {
          "internalType": "address",
          "name": "sender",
          "type": "address"
        },
        {
          "internalType": "uint256",
          "name": "balance",
          "type": "uint256"
        },
        {
          "internalType": "uint256",
          "name": "needed",
          "type": "uint256"
        }
      ],
      "name": "ERC20InsufficientBalance",
      "type": "error"
    },
    {
      "inputs": [
        {
          "internalType": "address",
          "name": "approver",
          "type": "address"
        }
      ],
      "name": "ERC20InvalidApprover",
      "type": "error"
    },
    {
      "inputs": [
        {
          "internalType": "address",
          "name": "receiver",
          "type": "address"
        }
      ],
      "name": "ERC20InvalidReceiver",
      "type": "error"
    },
    {
      "inputs": [
        {
          "internalType": "address",
          "name": "sender",
          "type": "address"
        }
      ],
      "name": "ERC20InvalidSender",
      "type": "error"
    },
    {
      "inputs": [
        {
          "internalType": "address",
          "name": "spender",
          "type": "address"
        }
      ],
      "name": "ERC20InvalidSpender",
      "type": "error"
    },
    {
      "anonymous": false,
      "inputs": [
        {
          "indexed": true,
          "internalType": "address",
          "name": "owner",
          "type": "address"
        },
        {
          "indexed": true,
          "internalType": "address",
          "name": "spender",
          "type": "address"
        },
        {
          "indexed": false,
          "internalType": "uint256",
          "name": "value",
          "type": "uint256"
        }
      ],
      "name": "Approval",
      "type": "event"
    },
    {
      "anonymous": false,
      "inputs": [
        {
          "indexed": true,
          "internalType": "address",
          "name": "from",
          "type": "address"
        },
        {
          "indexed": true,
          "internalType": "address",
          "name": "to",
          "type": "address"
        },
        {
          "indexed": false,
          "internalType": "uint256",
          "name": "value",
          "type": "uint256"
        }
      ],
      "name": "Transfer",
      "type": "event"
    },
    {
      "inputs": [
        {
          "internalType": "address",
          "name": "owner",
          "type": "address"
        },
        {
          "internalType": "address",
          "name": "spender",
          "type": "address"
        }
      ],
      "name": "allowance",
      "outputs": [
        {
          "internalType": "uint256",
          "name": "",
          "type": "uint256"
        }
      ],
      "stateMutability": "view",
      "type": "function"
    },
    {
      "inputs": [
        {
          "internalType": "address",
          "name": "spender",
          "type": "address"
        },
        {
          "internalType": "uint256",
          "name": "value",
          "type": "uint256"
        }
      ],
      "name": "approve",
      "outputs": [
        {
          "internalType": "bool",
          "name": "",
          "type": "bool"
        }
      ],
      "stateMutability": "nonpayable",
      "type": "function"
    },
    {
      "inputs": [
        {
          "internalType": "address",
          "name": "_adr",
          "type": "address"
        }
      ],
      "name": "balance",
      "outputs": [
        {
          "internalType": "uint256",
          "name": "bal",
          "type": "uint256"
        }
      ],
      "stateMutability": "view",
      "type": "function"
    },
    {
      "inputs": [
        {
          "internalType": "address",
          "name": "account",
          "type": "address"
        }
      ],
      "name": "balanceOf",
      "outputs": [
        {
          "internalType": "uint256",
          "name": "",
          "type": "uint256"
        }
      ],
      "stateMutability": "view",
      "type": "function"
    },
    {
      "inputs": [],
      "name": "decimals",
      "outputs": [
        {
          "internalType": "uint8",
          "name": "",
          "type": "uint8"
        }
      ],
      "stateMutability": "view",
      "type": "function"
    },
    {
      "inputs": [
        {
          "internalType": "uint256",
          "name": "_value",
          "type": "uint256"
        }
      ],
      "name": "mint",
      "outputs": [],
      "stateMutability": "nonpayable",
      "type": "function"
    },
    {
      "inputs": [],
      "name": "name",
      "outputs": [
        {
          "internalType": "string",
          "name": "",
          "type": "string"
        }
      ],
      "stateMutability": "view",
      "type": "function"
    },
    {
      "inputs": [],
      "name": "owner",
      "outputs": [
        {
          "internalType": "address payable",
          "name": "",
          "type": "address"
        }
      ],
      "stateMutability": "view",
      "type": "function"
    },
    {
      "inputs": [],
      "name": "symbol",
      "outputs": [
        {
          "internalType": "string",
          "name": "",
          "type": "string"
        }
      ],
      "stateMutability": "view",
      "type": "function"
    },
    {
      "inputs": [],
      "name": "totalSupply",
      "outputs": [
        {
          "internalType": "uint256",
          "name": "",
          "type": "uint256"
        }
      ],
      "stateMutability": "view",
      "type": "function"
    },
    {
      "inputs": [
        {
          "internalType": "address",
          "name": "to",
          "type": "address"
        },
        {
          "internalType": "uint256",
          "name": "value",
          "type": "uint256"
        }
      ],
      "name": "transfer",
      "outputs": [
        {
          "internalType": "bool",
          "name": "",
          "type": "bool"
        }
      ],
      "stateMutability": "nonpayable",
      "type": "function"
    },
    {
      "inputs": [
        {
          "internalType": "address",
          "name": "_from",
          "type": "address"
        },
        {
          "internalType": "address",
          "name": "_to",
          "type": "address"
        },
        {
          "internalType": "uint256",
          "name": "_value",
          "type": "uint256"
        }
      ],
      "name": "transfer",
      "outputs": [],
      "stateMutability": "nonpayable",
      "type": "function"
    },
    {
      "inputs": [
        {
          "internalType": "address",
          "name": "from",
          "type": "address"
        },
        {
          "internalType": "address",
          "name": "to",
          "type": "address"
        },
        {
          "internalType": "uint256",
          "name": "value",
          "type": "uint256"
        }
      ],
      "name": "transferFrom",
      "outputs": [
        {
          "internalType": "bool",
          "name": "",
          "type": "bool"
        }
      ],
      "stateMutability": "nonpayable",
      "type": "function"
    }
  ],
  "bytecode": "0x60806040523480156200001157600080fd5b506040518060400160405280600881526020017f4e616d65436f696e0000000000000000000000000000000000000000000000008152506040518060400160405280600281526020017f4e4300000000000000000000000000000000000000000000000000000000000081525081600390816200008f919062000660565b508060049081620000a1919062000660565b50505033600560006101000a81548173ffffffffffffffffffffffffffffffffffffffff021916908373ffffffffffffffffffffffffffffffffffffffff1602179055506000633b9aca00905062000122600560009054906101000a900473ffffffffffffffffffffffffffffffffffffffff16826200012960201b60201c565b506200087e565b600073ffffffffffffffffffffffffffffffffffffffff168273ffffffffffffffffffffffffffffffffffffffff16036200019e5760006040517fec442f050000000000000000000000000000000000000000000000000000000081526004016200019591906200078c565b60405180910390fd5b620001b260008383620001b660201b60201c565b5050565b600073ffffffffffffffffffffffffffffffffffffffff168373ffffffffffffffffffffffffffffffffffffffff16036200020c578060026000828254620001ff9190620007d8565b92505081905550620002e2565b60008060008573ffffffffffffffffffffffffffffffffffffffff1673ffffffffffffffffffffffffffffffffffffffff168152602001908152602001600020549050818110156200029b578381836040517fe450d38c000000000000000000000000000000000000000000000000000000008152600401620002929392919062000824565b60405180910390fd5b8181036000808673ffffffffffffffffffffffffffffffffffffffff1673ffffffffffffffffffffffffffffffffffffffff16815260200190815260200160002081905550505b600073ffffffffffffffffffffffffffffffffffffffff168273ffffffffffffffffffffffffffffffffffffffff16036200032d57806002600082825403925050819055506200037a565b806000808473ffffffffffffffffffffffffffffffffffffffff1673ffffffffffffffffffffffffffffffffffffffff168152602001908152602001600020600082825401925050819055505b8173ffffffffffffffffffffffffffffffffffffffff168373ffffffffffffffffffffffffffffffffffffffff167fddf252ad1be2c89b69c2b068fc378daa952ba7f163c4a11628f55a4df523b3ef83604051620003d9919062000861565b60405180910390a3505050565b600081519050919050565b7f4e487b7100000000000000000000000000000000000000000000000000000000600052604160045260246000fd5b7f4e487b7100000000000000000000000000000000000000000000000000000000600052602260045260246000fd5b600060028204905060018216806200046857607f821691505b6020821081036200047e576200047d62000420565b5b50919050565b60008190508160005260206000209050919050565b60006020601f8301049050919050565b600082821b905092915050565b600060088302620004e87fffffffffffffffffffffffffffffffffffffffffffffffffffffffffffffffff82620004a9565b620004f48683620004a9565b95508019841693508086168417925050509392505050565b6000819050919050565b6000819050919050565b6000620005416200053b62000535846200050c565b62000516565b6200050c565b9050919050565b6000819050919050565b6200055d8362000520565b620005756200056c8262000548565b848454620004b6565b825550505050565b600090565b6200058c6200057d565b6200059981848462000552565b505050565b5b81811015620005c157620005b560008262000582565b6001810190506200059f565b5050565b601f8211156200061057620005da8162000484565b620005e58462000499565b81016020851015620005f5578190505b6200060d620006048562000499565b8301826200059e565b50505b505050565b600082821c905092915050565b6000620006356000198460080262000615565b1980831691505092915050565b600062000650838362000622565b9150826002028217905092915050565b6200066b82620003e6565b67ffffffffffffffff811115620006875762000686620003f1565b5b6200069382546200044f565b620006a0828285620005c5565b600060209050601f831160018114620006d85760008415620006c3578287015190505b620006cf858262000642565b8655506200073f565b601f198416620006e88662000484565b60005b828110156200071257848901518255600182019150602085019450602081019050620006eb565b868310156200073257848901516200072e601f89168262000622565b8355505b6001600288020188555050505b505050505050565b600073ffffffffffffffffffffffffffffffffffffffff82169050919050565b6000620007748262000747565b9050919050565b620007868162000767565b82525050565b6000602082019050620007a360008301846200077b565b92915050565b7f4e487b7100000000000000000000000000000000000000000000000000000000600052601160045260246000fd5b6000620007e5826200050c565b9150620007f2836200050c565b92508282019050808211156200080d576200080c620007a9565b5b92915050565b6200081e816200050c565b82525050565b60006060820190506200083b60008301866200077b565b6200084a602083018562000813565b62000859604083018462000813565b949350505050565b600060208201905062000878600083018462000813565b92915050565b611079806200088e6000396000f3fe608060405234801561001057600080fd5b50600436106100cf5760003560e01c80638da5cb5b1161008c578063a9059cbb11610066578063a9059cbb14610216578063beabacc814610246578063dd62ed3e14610262578063e3d670d714610292576100cf565b80638da5cb5b146101be57806395d89b41146101dc578063a0712d68146101fa576100cf565b806306fdde03146100d4578063095ea7b3146100f257806318160ddd1461012257806323b872dd14610140578063313ce5671461017057806370a082311461018e575b600080fd5b6100dc6102c2565b6040516100e99190610c64565b60405180910390f35b61010c60048036038101906101079190610d1f565b610354565b6040516101199190610d7a565b60405180910390f35b61012a610377565b6040516101379190610da4565b60405180910390f35b61015a60048036038101906101559190610dbf565b610381565b6040516101679190610d7a565b60405180910390f35b6101786103b0565b6040516101859190610e2e565b60405180910390f35b6101a860048036038101906101a39190610e49565b6103b9565b6040516101b59190610da4565b60405180910390f35b6101c6610401565b6040516101d39190610e97565b60405180910390f35b6101e4610427565b6040516101f19190610c64565b60405180910390f35b610214600480360381019061020f9190610eb2565b6104b9565b005b610230600480360381019061022b9190610d1f565b6104e8565b60405161023d9190610d7a565b60405180910390f35b610260600480360381019061025b9190610dbf565b61050b565b005b61027c60048036038101906102779190610edf565b61051b565b6040516102899190610da4565b60405180910390f35b6102ac60048036038101906102a79190610e49565b6105a2565b6040516102b99190610da4565b60405180910390f35b6060600380546102d190610f4e565b80601f01602080910402602001604051908101604052809291908181526020018280546102fd90610f4e565b801561034a5780601f1061031f5761010080835404028352916020019161034a565b820191906000526020600020905b81548152906001019060200180831161032d57829003601f168201915b5050505050905090565b60008061035f6105b4565b905061036c8185856105bc565b600191505092915050565b6000600254905090565b60008061038c6105b4565b90506103998582856105ce565b6103a4858585610662565b60019150509392505050565b60006012905090565b60008060008373ffffffffffffffffffffffffffffffffffffffff1673ffffffffffffffffffffffffffffffffffffffff168152602001908152602001600020549050919050565b600560009054906101000a900473ffffffffffffffffffffffffffffffffffffffff1681565b60606004805461043690610f4e565b80601f016020809104026020016040519081016040528092919081815260200182805461046290610f4e565b80156104af5780601f10610484576101008083540402835291602001916104af565b820191906000526020600020905b81548152906001019060200180831161049257829003601f168201915b5050505050905090565b6104e5600560009054906101000a900473ffffffffffffffffffffffffffffffffffffffff1682610756565b50565b6000806104f36105b4565b9050610500818585610662565b600191505092915050565b610516838383610662565b505050565b6000600160008473ffffffffffffffffffffffffffffffffffffffff1673ffffffffffffffffffffffffffffffffffffffff16815260200190815260200160002060008373ffffffffffffffffffffffffffffffffffffffff1673ffffffffffffffffffffffffffffffffffffffff16815260200190815260200160002054905092915050565b60006105ad826103b9565b9050919050565b600033905090565b6105c983838360016107d8565b505050565b60006105da848461051b565b90507fffffffffffffffffffffffffffffffffffffffffffffffffffffffffffffffff811461065c578181101561064c578281836040517ffb8f41b200000000000000000000000000000000000000000000000000000000815260040161064393929190610f8e565b60405180910390fd5b61065b848484840360006107d8565b5b50505050565b600073ffffffffffffffffffffffffffffffffffffffff168373ffffffffffffffffffffffffffffffffffffffff16036106d45760006040517f96c6fd1e0000000000000000000000000000000000000000000000000000000081526004016106cb9190610fc5565b60405180910390fd5b600073ffffffffffffffffffffffffffffffffffffffff168273ffffffffffffffffffffffffffffffffffffffff16036107465760006040517fec442f0500000000000000000000000000000000000000000000000000000000815260040161073d9190610fc5565b60405180910390fd5b6107518383836109af565b505050565b600073ffffffffffffffffffffffffffffffffffffffff168273ffffffffffffffffffffffffffffffffffffffff16036107c85760006040517fec442f050000000000000000000000000000000000000000000000000000000081526004016107bf9190610fc5565b60405180910390fd5b6107d4600083836109af565b5050565b600073ffffffffffffffffffffffffffffffffffffffff168473ffffffffffffffffffffffffffffffffffffffff160361084a5760006040517fe602df050000000000000000000000000000000000000000000000000000000081526004016108419190610fc5565b60405180910390fd5b600073ffffffffffffffffffffffffffffffffffffffff168373ffffffffffffffffffffffffffffffffffffffff16036108bc5760006040517f94280d620000000000000000000000000000000000000000000000000000000081526004016108b39190610fc5565b60405180910390fd5b81600160008673ffffffffffffffffffffffffffffffffffffffff1673ffffffffffffffffffffffffffffffffffffffff16815260200190815260200160002060008573ffffffffffffffffffffffffffffffffffffffff1673ffffffffffffffffffffffffffffffffffffffff1681526020019081526020016000208190555080156109a9578273ffffffffffffffffffffffffffffffffffffffff168473ffffffffffffffffffffffffffffffffffffffff167f8c5be1e5ebec7d5bd14f71427d1e84f3dd0314c0f7b2291e5b200ac8c7c3b925846040516109a09190610da4565b60405180910390a35b50505050565b600073ffffffffffffffffffffffffffffffffffffffff168373ffffffffffffffffffffffffffffffffffffffff1603610a015780600260008282546109f5919061100f565b92505081905550610ad4565b60008060008573ffffffffffffffffffffffffffffffffffffffff1673ffffffffffffffffffffffffffffffffffffffff16815260200190815260200160002054905081811015610a8d578381836040517fe450d38c000000000000000000000000000000000000000000000000000000008152600401610a8493929190610f8e565b60405180910390fd5b8181036000808673ffffffffffffffffffffffffffffffffffffffff1673ffffffffffffffffffffffffffffffffffffffff16815260200190815260200160002081905550505b600073ffffffffffffffffffffffffffffffffffffffff168273ffffffffffffffffffffffffffffffffffffffff1603610b1d5780600260008282540392505081905550610b6a565b806000808473ffffffffffffffffffffffffffffffffffffffff1673ffffffffffffffffffffffffffffffffffffffff168152602001908152602001600020600082825401925050819055505b8173ffffffffffffffffffffffffffffffffffffffff168373ffffffffffffffffffffffffffffffffffffffff167fddf252ad1be2c89b69c2b068fc378daa952ba7f163c4a11628f55a4df523b3ef83604051610bc79190610da4565b60405180910390a3505050565b600081519050919050565b600082825260208201905092915050565b60005b83811015610c0e578082015181840152602081019050610bf3565b60008484015250505050565b6000601f19601f8301169050919050565b6000610c3682610bd4565b610c408185610bdf565b9350610c50818560208601610bf0565b610c5981610c1a565b840191505092915050565b60006020820190508181036000830152610c7e8184610c2b565b905092915050565b600080fd5b600073ffffffffffffffffffffffffffffffffffffffff82169050919050565b6000610cb682610c8b565b9050919050565b610cc681610cab565b8114610cd157600080fd5b50565b600081359050610ce381610cbd565b92915050565b6000819050919050565b610cfc81610ce9565b8114610d0757600080fd5b50565b600081359050610d1981610cf3565b92915050565b60008060408385031215610d3657610d35610c86565b5b6000610d4485828601610cd4565b9250506020610d5585828601610d0a565b9150509250929050565b60008115159050919050565b610d7481610d5f565b82525050565b6000602082019050610d8f6000830184610d6b565b92915050565b610d9e81610ce9565b82525050565b6000602082019050610db96000830184610d95565b92915050565b600080600060608486031215610dd857610dd7610c86565b5b6000610de686828701610cd4565b9350506020610df786828701610cd4565b9250506040610e0886828701610d0a565b9150509250925092565b600060ff82169050919050565b610e2881610e12565b82525050565b6000602082019050610e436000830184610e1f565b92915050565b600060208284031215610e5f57610e5e610c86565b5b6000610e6d84828501610cd4565b91505092915050565b6000610e8182610c8b565b9050919050565b610e9181610e76565b82525050565b6000602082019050610eac6000830184610e88565b92915050565b600060208284031215610ec857610ec7610c86565b5b6000610ed684828501610d0a565b91505092915050565b60008060408385031215610ef657610ef5610c86565b5b6000610f0485828601610cd4565b9250506020610f1585828601610cd4565b9150509250929050565b7f4e487b7100000000000000000000000000000000000000000000000000000000600052602260045260246000fd5b60006002820490506001821680610f6657607f821691505b602082108103610f7957610f78610f1f565b5b50919050565b610f8881610cab565b82525050565b6000606082019050610fa36000830186610f7f565b610fb06020830185610d95565b610fbd6040830184610d95565b949350505050565b6000602082019050610fda6000830184610f7f565b92915050565b7f4e487b7100000000000000000000000000000000000000000000000000000000600052601160045260246000fd5b600061101a82610ce9565b915061102583610ce9565b925082820190508082111561103d5761103c610fe0565b5b9291505056fea2646970667358221220cc5e3a1a20a71fd184632db798275c6fb06631cabbe86750db451aa03a9473d564736f6c63430008140033",
  "linkReferences": {},
  "deployedLinkReferences": {}
}