{
  "_format": "hh-sol-artifact-1",
  "contractName": "NameCoin",
  "sourceName": "contracts/NameCoin.sol",
  "abi": [
    {
      "inputs": [],
      "stateMutability": "nonpayable",
      "type": "constructor"
    },
    {
      "inputs": [
        {
          "internalType": "address",
          "name": "spender",
          "type": "address"
        },
        {
          "internalType": "uint256",
          "name": "allowance",
          "type": "uint256"
        },
        {
          "internalType": "uint256",
          "name": "needed",
          "type": "uint256"
        }
      ],
      "name": "ERC20InsufficientAllowance",
      "type": "error"
    },
    {
      "inputs": [
        {
          "internalType": "address",
          "name": "sender",
          "type": "address"
        },
        {
          "internalType": "uint256",
          "name": "balance",
          "type": "uint256"
        },
        {
          "internalType": "uint256",
          "name": "needed",
          "type": "uint256"
        }
      ],
      "name": "ERC20InsufficientBalance",
      "type": "error"
    },
    {
      "inputs": [
        {
          "internalType": "address",
          "name": "approver",
          "type": "address"
        }
      ],
      "name": "ERC20InvalidApprover",
      "type": "error"
    },
    {
      "inputs": [
        {
          "internalType": "address",
          "name": "receiver",
          "type": "address"
        }
      ],
      "name": "ERC20InvalidReceiver",
      "type": "error"
    },
    {
      "inputs": [
        {
          "internalType": "address",
          "name": "sender",
          "type": "address"
        }
      ],
      "name": "ERC20InvalidSender",
      "type": "error"
    },
    {
      "inputs": [
        {
          "internalType": "address",
          "name": "spender",
          "type": "address"
        }
      ],
      "name": "ERC20InvalidSpender",
      "type": "error"
    },
    {
      "anonymous": false,
      "inputs": [
        {
          "indexed": true,
          "internalType": "address",
          "name": "owner",
          "type": "address"
        },
        {
          "indexed": true,
          "internalType": "address",
          "name": "spender",
          "type": "address"
        },
        {
          "indexed": false,
          "internalType": "uint256",
          "name": "value",
          "type": "uint256"
        }
      ],
      "name": "Approval",
      "type": "event"
    },
    {
      "anonymous": false,
      "inputs": [
        {
          "indexed": true,
          "internalType": "address",
          "name": "from",
          "type": "address"
        },
        {
          "indexed": true,
          "internalType": "address",
          "name": "to",
          "type": "address"
        },
        {
          "indexed": false,
          "internalType": "uint256",
          "name": "value",
          "type": "uint256"
        }
      ],
      "name": "Transfer",
      "type": "event"
    },
    {
      "inputs": [
        {
          "internalType": "address",
          "name": "owner",
          "type": "address"
        },
        {
          "internalType": "address",
          "name": "spender",
          "type": "address"
        }
      ],
      "name": "allowance",
      "outputs": [
        {
          "internalType": "uint256",
          "name": "",
          "type": "uint256"
        }
      ],
      "stateMutability": "view",
      "type": "function"
    },
    {
      "inputs": [
        {
          "internalType": "address",
          "name": "spender",
          "type": "address"
        },
        {
          "internalType": "uint256",
          "name": "value",
          "type": "uint256"
        }
      ],
      "name": "approve",
      "outputs": [
        {
          "internalType": "bool",
          "name": "",
          "type": "bool"
        }
      ],
      "stateMutability": "nonpayable",
      "type": "function"
    },
    {
      "inputs": [
        {
          "internalType": "address",
          "name": "account",
          "type": "address"
        }
      ],
      "name": "balanceOf",
      "outputs": [
        {
          "internalType": "uint256",
          "name": "",
          "type": "uint256"
        }
      ],
      "stateMutability": "view",
      "type": "function"
    },
    {
      "inputs": [
        {
          "internalType": "uint256",
          "name": "_value",
          "type": "uint256"
        }
      ],
      "name": "buyToken",
      "outputs": [],
      "stateMutability": "payable",
      "type": "function"
    },
    {
      "inputs": [],
      "name": "decimals",
      "outputs": [
        {
          "internalType": "uint8",
          "name": "",
          "type": "uint8"
        }
      ],
      "stateMutability": "view",
      "type": "function"
    },
    {
      "inputs": [
        {
          "internalType": "uint256",
          "name": "_value",
          "type": "uint256"
        }
      ],
      "name": "mint",
      "outputs": [],
      "stateMutability": "nonpayable",
      "type": "function"
    },
    {
      "inputs": [],
      "name": "name",
      "outputs": [
        {
          "internalType": "string",
          "name": "",
          "type": "string"
        }
      ],
      "stateMutability": "view",
      "type": "function"
    },
    {
      "inputs": [],
      "name": "owner",
      "outputs": [
        {
          "internalType": "address payable",
          "name": "",
          "type": "address"
        }
      ],
      "stateMutability": "view",
      "type": "function"
    },
    {
      "inputs": [],
      "name": "symbol",
      "outputs": [
        {
          "internalType": "string",
          "name": "",
          "type": "string"
        }
      ],
      "stateMutability": "view",
      "type": "function"
    },
    {
      "inputs": [],
      "name": "totalSupply",
      "outputs": [
        {
          "internalType": "uint256",
          "name": "",
          "type": "uint256"
        }
      ],
      "stateMutability": "view",
      "type": "function"
    },
    {
      "inputs": [
        {
          "internalType": "address",
          "name": "to",
          "type": "address"
        },
        {
          "internalType": "uint256",
          "name": "value",
          "type": "uint256"
        }
      ],
      "name": "transfer",
      "outputs": [
        {
          "internalType": "bool",
          "name": "",
          "type": "bool"
        }
      ],
      "stateMutability": "nonpayable",
      "type": "function"
    },
    {
      "inputs": [
        {
          "internalType": "address",
          "name": "from",
          "type": "address"
        },
        {
          "internalType": "address",
          "name": "to",
          "type": "address"
        },
        {
          "internalType": "uint256",
          "name": "value",
          "type": "uint256"
        }
      ],
      "name": "transferFrom",
      "outputs": [
        {
          "internalType": "bool",
          "name": "",
          "type": "bool"
        }
      ],
      "stateMutability": "nonpayable",
      "type": "function"
    }
  ],
  "bytecode": "0x608060405260016006553480156200001657600080fd5b506040518060400160405280600881526020017f4e616d65436f696e0000000000000000000000000000000000000000000000008152506040518060400160405280600281526020017f4e43000000000000000000000000000000000000000000000000000000000000815250816003908162000094919062000665565b508060049081620000a6919062000665565b50505033600560006101000a81548173ffffffffffffffffffffffffffffffffffffffff021916908373ffffffffffffffffffffffffffffffffffffffff1602179055506000633b9aca00905062000127600560009054906101000a900473ffffffffffffffffffffffffffffffffffffffff16826200012e60201b60201c565b5062000883565b600073ffffffffffffffffffffffffffffffffffffffff168273ffffffffffffffffffffffffffffffffffffffff1603620001a35760006040517fec442f050000000000000000000000000000000000000000000000000000000081526004016200019a919062000791565b60405180910390fd5b620001b760008383620001bb60201b60201c565b5050565b600073ffffffffffffffffffffffffffffffffffffffff168373ffffffffffffffffffffffffffffffffffffffff160362000211578060026000828254620002049190620007dd565b92505081905550620002e7565b60008060008573ffffffffffffffffffffffffffffffffffffffff1673ffffffffffffffffffffffffffffffffffffffff16815260200190815260200160002054905081811015620002a0578381836040517fe450d38c000000000000000000000000000000000000000000000000000000008152600401620002979392919062000829565b60405180910390fd5b8181036000808673ffffffffffffffffffffffffffffffffffffffff1673ffffffffffffffffffffffffffffffffffffffff16815260200190815260200160002081905550505b600073ffffffffffffffffffffffffffffffffffffffff168273ffffffffffffffffffffffffffffffffffffffff16036200033257806002600082825403925050819055506200037f565b806000808473ffffffffffffffffffffffffffffffffffffffff1673ffffffffffffffffffffffffffffffffffffffff168152602001908152602001600020600082825401925050819055505b8173ffffffffffffffffffffffffffffffffffffffff168373ffffffffffffffffffffffffffffffffffffffff167fddf252ad1be2c89b69c2b068fc378daa952ba7f163c4a11628f55a4df523b3ef83604051620003de919062000866565b60405180910390a3505050565b600081519050919050565b7f4e487b7100000000000000000000000000000000000000000000000000000000600052604160045260246000fd5b7f4e487b7100000000000000000000000000000000000000000000000000000000600052602260045260246000fd5b600060028204905060018216806200046d57607f821691505b60208210810362000483576200048262000425565b5b50919050565b60008190508160005260206000209050919050565b60006020601f8301049050919050565b600082821b905092915050565b600060088302620004ed7fffffffffffffffffffffffffffffffffffffffffffffffffffffffffffffffff82620004ae565b620004f98683620004ae565b95508019841693508086168417925050509392505050565b6000819050919050565b6000819050919050565b600062000546620005406200053a8462000511565b6200051b565b62000511565b9050919050565b6000819050919050565b620005628362000525565b6200057a62000571826200054d565b848454620004bb565b825550505050565b600090565b6200059162000582565b6200059e81848462000557565b505050565b5b81811015620005c657620005ba60008262000587565b600181019050620005a4565b5050565b601f8211156200061557620005df8162000489565b620005ea846200049e565b81016020851015620005fa578190505b6200061262000609856200049e565b830182620005a3565b50505b505050565b600082821c905092915050565b60006200063a600019846008026200061a565b1980831691505092915050565b600062000655838362000627565b9150826002028217905092915050565b6200067082620003eb565b67ffffffffffffffff8111156200068c576200068b620003f6565b5b62000698825462000454565b620006a5828285620005ca565b600060209050601f831160018114620006dd5760008415620006c8578287015190505b620006d4858262000647565b86555062000744565b601f198416620006ed8662000489565b60005b828110156200071757848901518255600182019150602085019450602081019050620006f0565b8683101562000737578489015162000733601f89168262000627565b8355505b6001600288020188555050505b505050505050565b600073ffffffffffffffffffffffffffffffffffffffff82169050919050565b600062000779826200074c565b9050919050565b6200078b816200076c565b82525050565b6000602082019050620007a8600083018462000780565b92915050565b7f4e487b7100000000000000000000000000000000000000000000000000000000600052601160045260246000fd5b6000620007ea8262000511565b9150620007f78362000511565b9250828201905080821115620008125762000811620007ae565b5b92915050565b620008238162000511565b82525050565b600060608201905062000840600083018662000780565b6200084f602083018562000818565b6200085e604083018462000818565b949350505050565b60006020820190506200087d600083018462000818565b92915050565b61133980620008936000396000f3fe6080604052600436106100a75760003560e01c806370a082311161006457806370a08231146101c35780638da5cb5b1461020057806395d89b411461022b578063a0712d6814610256578063a9059cbb1461027f578063dd62ed3e146102bc576100a7565b806306fdde03146100ac578063095ea7b3146100d757806318160ddd1461011457806323b872dd1461013f5780632d296bf11461017c578063313ce56714610198575b600080fd5b3480156100b857600080fd5b506100c16102f9565b6040516100ce9190610e0a565b60405180910390f35b3480156100e357600080fd5b506100fe60048036038101906100f99190610ec5565b61038b565b60405161010b9190610f20565b60405180910390f35b34801561012057600080fd5b506101296103ae565b6040516101369190610f4a565b60405180910390f35b34801561014b57600080fd5b5061016660048036038101906101619190610f65565b6103b8565b6040516101739190610f20565b60405180910390f35b61019660048036038101906101919190610fb8565b6103e7565b005b3480156101a457600080fd5b506101ad6104e8565b6040516101ba9190611001565b60405180910390f35b3480156101cf57600080fd5b506101ea60048036038101906101e5919061101c565b6104f1565b6040516101f79190610f4a565b60405180910390f35b34801561020c57600080fd5b50610215610539565b604051610222919061106a565b60405180910390f35b34801561023757600080fd5b5061024061055f565b60405161024d9190610e0a565b60405180910390f35b34801561026257600080fd5b5061027d60048036038101906102789190610fb8565b6105f1565b005b34801561028b57600080fd5b506102a660048036038101906102a19190610ec5565b6106b0565b6040516102b39190610f20565b60405180910390f35b3480156102c857600080fd5b506102e360048036038101906102de9190611085565b6106d3565b6040516102f09190610f4a565b60405180910390f35b606060038054610308906110f4565b80601f0160208091040260200160405190810160405280929190818152602001828054610334906110f4565b80156103815780601f1061035657610100808354040283529160200191610381565b820191906000526020600020905b81548152906001019060200180831161036457829003601f168201915b5050505050905090565b60008061039661075a565b90506103a3818585610762565b600191505092915050565b6000600254905090565b6000806103c361075a565b90506103d0858285610774565b6103db858585610808565b60019150509392505050565b6000670de0b6b3a7640000826103fd9190611154565b9050803414610441576040517f08c379a0000000000000000000000000000000000000000000000000000000008152600401610438906111e2565b60405180910390fd5b600560009054906101000a900473ffffffffffffffffffffffffffffffffffffffff1673ffffffffffffffffffffffffffffffffffffffff166108fc349081150290604051600060405180830381858888f193505050501580156104a9573d6000803e3d6000fd5b506104e4600560009054906101000a900473ffffffffffffffffffffffffffffffffffffffff16336103e8856104df9190611154565b610808565b5050565b60006012905090565b60008060008373ffffffffffffffffffffffffffffffffffffffff1673ffffffffffffffffffffffffffffffffffffffff168152602001908152602001600020549050919050565b600560009054906101000a900473ffffffffffffffffffffffffffffffffffffffff1681565b60606004805461056e906110f4565b80601f016020809104026020016040519081016040528092919081815260200182805461059a906110f4565b80156105e75780601f106105bc576101008083540402835291602001916105e7565b820191906000526020600020905b8154815290600101906020018083116105ca57829003601f168201915b5050505050905090565b600560009054906101000a900473ffffffffffffffffffffffffffffffffffffffff1673ffffffffffffffffffffffffffffffffffffffff163373ffffffffffffffffffffffffffffffffffffffff1614610681576040517f08c379a00000000000000000000000000000000000000000000000000000000081526004016106789061124e565b60405180910390fd5b6106ad600560009054906101000a900473ffffffffffffffffffffffffffffffffffffffff16826108fc565b50565b6000806106bb61075a565b90506106c8818585610808565b600191505092915050565b6000600160008473ffffffffffffffffffffffffffffffffffffffff1673ffffffffffffffffffffffffffffffffffffffff16815260200190815260200160002060008373ffffffffffffffffffffffffffffffffffffffff1673ffffffffffffffffffffffffffffffffffffffff16815260200190815260200160002054905092915050565b600033905090565b61076f838383600161097e565b505050565b600061078084846106d3565b90507fffffffffffffffffffffffffffffffffffffffffffffffffffffffffffffffff811461080257818110156107f2578281836040517ffb8f41b20000000000000000000000000000000000000000000000000000000081526004016107e99392919061127d565b60405180910390fd5b6108018484848403600061097e565b5b50505050565b600073ffffffffffffffffffffffffffffffffffffffff168373ffffffffffffffffffffffffffffffffffffffff160361087a5760006040517f96c6fd1e00000000000000000000000000000000000000000000000000000000815260040161087191906112b4565b60405180910390fd5b600073ffffffffffffffffffffffffffffffffffffffff168273ffffffffffffffffffffffffffffffffffffffff16036108ec5760006040517fec442f050000000000000000000000000000000000000000000000000000000081526004016108e391906112b4565b60405180910390fd5b6108f7838383610b55565b505050565b600073ffffffffffffffffffffffffffffffffffffffff168273ffffffffffffffffffffffffffffffffffffffff160361096e5760006040517fec442f0500000000000000000000000000000000000000000000000000000000815260040161096591906112b4565b60405180910390fd5b61097a60008383610b55565b5050565b600073ffffffffffffffffffffffffffffffffffffffff168473ffffffffffffffffffffffffffffffffffffffff16036109f05760006040517fe602df050000000000000000000000000000000000000000000000000000000081526004016109e791906112b4565b60405180910390fd5b600073ffffffffffffffffffffffffffffffffffffffff168373ffffffffffffffffffffffffffffffffffffffff1603610a625760006040517f94280d62000000000000000000000000000000000000000000000000000000008152600401610a5991906112b4565b60405180910390fd5b81600160008673ffffffffffffffffffffffffffffffffffffffff1673ffffffffffffffffffffffffffffffffffffffff16815260200190815260200160002060008573ffffffffffffffffffffffffffffffffffffffff1673ffffffffffffffffffffffffffffffffffffffff168152602001908152602001600020819055508015610b4f578273ffffffffffffffffffffffffffffffffffffffff168473ffffffffffffffffffffffffffffffffffffffff167f8c5be1e5ebec7d5bd14f71427d1e84f3dd0314c0f7b2291e5b200ac8c7c3b92584604051610b469190610f4a565b60405180910390a35b50505050565b600073ffffffffffffffffffffffffffffffffffffffff168373ffffffffffffffffffffffffffffffffffffffff1603610ba7578060026000828254610b9b91906112cf565b92505081905550610c7a565b60008060008573ffffffffffffffffffffffffffffffffffffffff1673ffffffffffffffffffffffffffffffffffffffff16815260200190815260200160002054905081811015610c33578381836040517fe450d38c000000000000000000000000000000000000000000000000000000008152600401610c2a9392919061127d565b60405180910390fd5b8181036000808673ffffffffffffffffffffffffffffffffffffffff1673ffffffffffffffffffffffffffffffffffffffff16815260200190815260200160002081905550505b600073ffffffffffffffffffffffffffffffffffffffff168273ffffffffffffffffffffffffffffffffffffffff1603610cc35780600260008282540392505081905550610d10565b806000808473ffffffffffffffffffffffffffffffffffffffff1673ffffffffffffffffffffffffffffffffffffffff168152602001908152602001600020600082825401925050819055505b8173ffffffffffffffffffffffffffffffffffffffff168373ffffffffffffffffffffffffffffffffffffffff167fddf252ad1be2c89b69c2b068fc378daa952ba7f163c4a11628f55a4df523b3ef83604051610d6d9190610f4a565b60405180910390a3505050565b600081519050919050565b600082825260208201905092915050565b60005b83811015610db4578082015181840152602081019050610d99565b60008484015250505050565b6000601f19601f8301169050919050565b6000610ddc82610d7a565b610de68185610d85565b9350610df6818560208601610d96565b610dff81610dc0565b840191505092915050565b60006020820190508181036000830152610e248184610dd1565b905092915050565b600080fd5b600073ffffffffffffffffffffffffffffffffffffffff82169050919050565b6000610e5c82610e31565b9050919050565b610e6c81610e51565b8114610e7757600080fd5b50565b600081359050610e8981610e63565b92915050565b6000819050919050565b610ea281610e8f565b8114610ead57600080fd5b50565b600081359050610ebf81610e99565b92915050565b60008060408385031215610edc57610edb610e2c565b5b6000610eea85828601610e7a565b9250506020610efb85828601610eb0565b9150509250929050565b60008115159050919050565b610f1a81610f05565b82525050565b6000602082019050610f356000830184610f11565b92915050565b610f4481610e8f565b82525050565b6000602082019050610f5f6000830184610f3b565b92915050565b600080600060608486031215610f7e57610f7d610e2c565b5b6000610f8c86828701610e7a565b9350506020610f9d86828701610e7a565b9250506040610fae86828701610eb0565b9150509250925092565b600060208284031215610fce57610fcd610e2c565b5b6000610fdc84828501610eb0565b91505092915050565b600060ff82169050919050565b610ffb81610fe5565b82525050565b60006020820190506110166000830184610ff2565b92915050565b60006020828403121561103257611031610e2c565b5b600061104084828501610e7a565b91505092915050565b600061105482610e31565b9050919050565b61106481611049565b82525050565b600060208201905061107f600083018461105b565b92915050565b6000806040838503121561109c5761109b610e2c565b5b60006110aa85828601610e7a565b92505060206110bb85828601610e7a565b9150509250929050565b7f4e487b7100000000000000000000000000000000000000000000000000000000600052602260045260246000fd5b6000600282049050600182168061110c57607f821691505b60208210810361111f5761111e6110c5565b5b50919050565b7f4e487b7100000000000000000000000000000000000000000000000000000000600052601160045260246000fd5b600061115f82610e8f565b915061116a83610e8f565b925082820261117881610e8f565b9150828204841483151761118f5761118e611125565b5b5092915050565b7f496e73756666696369656e74204554482073656e740000000000000000000000600082015250565b60006111cc601583610d85565b91506111d782611196565b602082019050919050565b600060208201905081810360008301526111fb816111bf565b9050919050565b7f796f75206e6f74206f776e657240210000000000000000000000000000000000600082015250565b6000611238600f83610d85565b915061124382611202565b602082019050919050565b600060208201905081810360008301526112678161122b565b9050919050565b61127781610e51565b82525050565b6000606082019050611292600083018661126e565b61129f6020830185610f3b565b6112ac6040830184610f3b565b949350505050565b60006020820190506112c9600083018461126e565b92915050565b60006112da82610e8f565b91506112e583610e8f565b92508282019050808211156112fd576112fc611125565b5b9291505056fea264697066735822122029bc65b9a489bead9d0fb37d456523daae42affef7b36fd92e92b51de3b2a03d64736f6c63430008140033",
  "linkReferences": {},
  "deployedLinkReferences": {}
}